:020000040800F2
:1000000000C00020498B00083D810008498100089C
:100010004F810008558100085B8100080000000046
:1000200000000000000000000000000061810008E6
:100030006D810008000000007981000885810008BA
:10004000918B0008918B0008918B0008918B000820
:10005000918B0008918B000891810008918B00081A
:10006000918B0008918B0008918B0008918B000800
:10007000918B0008918B0008918B0008918B0008F0
:10008000918B0008918B0008918B0008918B0008E0
:10009000918B0008918B0008918B00089F810008CC
:1000A000918B0008918B0008918B0008918B0008C0
:1000B000918B0008918B0008918B0008918B0008B0
:1000C000918B0008918B0008918B0008918B0008A0
:1000D000918B0008918B0008918B0008918B000890
:1000E000AD810008918B0008918B0008918B00086E
:1000F000918B0008918B0008918B0008918B000870
:10010000918B0008918B0008918B0008918B00085F
:10011000918B0008918B0008918B0008918B00084F
:10012000918B0008918B0008918B0008918B00083F
:1001300000000000000000000000000000000000BF
:1001400000000000000000000000000000000000AF
:10015000000000000000000000000000000000009F
:10016000000000000000000000000000000000008F
:10017000000000000000000000000000000000007F
:10018000000000000000000000000000000000006F
:10019000000000000000000000000000000000005F
:1001A000000000000000000000000000000000004F
:1001B000000000000000000000000000000000003F
:1001C000000000000000000000000000000000002F
:1001D000000000000000000000000000000000001F
:0401E0005FF8E0F1F3
:1001E80010B5054C237833B9044B13B10448AFF369
:1001F80000800123237010BD2002002000000000B1
:10020800D4AC000808B5034B1BB103490348AFF34E
:10021800008008BD0000000024020020D4AC0008C3
:10022800034613F8012B002AFBD1181A013870472E
:1002380081F0004102E000BF83F0004330B54FEA8F
:1002480041044FEA430594EA050F08BF90EA020FFC
:100258001FBF54EA000C55EA020C7FEA645C7FEA8F
:10026800655C00F0E2804FEA5454D4EB5555B8BFB2
:100278006D420CDD2C4480EA020281EA030382EA23
:10028800000083EA010180EA020281EA0303362DB5
:1002980088BF30BD11F0004F4FEA01314FF4801C88
:1002A8004CEA113102D0404261EB410113F0004F9A
:1002B8004FEA03334CEA133302D0524263EB430351
:1002C80094EA050F00F0A780A4F10104D5F1200EEF
:1002D8000DDB02FA0EFC22FA05F2801841F100014A
:1002E80003FA0EF2801843FA05F359410EE0A5F11E
:1002F80020050EF1200E012A03FA0EFC28BF4CF04F
:10030800020C43FA05F3C01851EBE37101F0004504
:1003180007D54FF0000EDCF1000C7EEB00006EEB11
:100328000101B1F5801F1BD3B1F5001F0CD349089B
:100338005FEA30004FEA3C0C04F101044FEA4452F2
:1003480012F5800F80F09A80BCF1004F08BF5FEA79
:10035800500C50F1000041EB045141EA050130BD59
:100368005FEA4C0C404141EB010111F4801FA4F1FC
:100378000104E9D191F0000F04BF01460020B1FA51
:1003880081F308BF2033A3F10B03B3F120020CDA89
:100398000C3208DD02F1140CC2F10C0201FA0CF067
:1003A80021FA02F10CE002F11402D8BFC2F1200CCC
:1003B80001FA02F120FA0CFCDCBF41EA0C01904082
:1003C800E41AA2BF01EB0451294330BD6FEA0404CB
:1003D8001F3C1CDA0C340EDC04F11404C4F12002B6
:1003E80020FA04F001FA02F340EA030021FA04F3C8
:1003F80045EA030130BDC4F10C04C4F1200220FA1F
:1004080002F001FA04F340EA0300294630BD21FA5C
:1004180004F0294630BD94F0000F83F4801306BF22
:1004280081F480110134013D4EE77FEA645C18BF16
:100438007FEA655C29D094EA050F08BF90EA020FAD
:1004480005D054EA000C04BF1946104630BD91EAA5
:10045800030F1EBF0021002030BD5FEA545C05D1A8
:100468004000494128BF41F0004130BD14F58004E7
:100478003CBF01F5801130BD01F0004545F0FE415B
:1004880041F470014FF0000030BD7FEA645C1ABF90
:10049800194610467FEA655C1CBF0B46024650EAC7
:1004A800013406BF52EA033591EA030F41F40021F3
:1004B80030BD00BF90F0000F04BF0021704730B579
:1004C8004FF4806404F132044FF000054FF000014E
:1004D80050E700BF90F0000F04BF0021704730B50F
:1004E8004FF4806404F1320410F0004548BF4042E4
:1004F8004FF000013EE700BF42004FEAE2014FEA39
:1005080031014FEA02701FBF12F07F4393F07F4F13
:1005180081F06051704732F07F4208BF704793F016
:100528007F4F04BF41F40021704730B54FF4607429
:1005380001F0004521F000411CE700BF50EA01022C
:1005480008BF704730B54FF000050AE050EA0102D5
:1005580008BF704730B511F0004502D5404261EB45
:1005680041014FF4806404F132045FEA915C3FF486
:10057800D8AE4FF003025FEADC0C18BF03325FEA23
:10058800DC0C18BF033202EBDC02C2F1200300FAD4
:1005980003FC20FA02F001FA03FE40EA0E0021FAF9
:1005A80002F11444BDE600BF70B54FF0FF0C4CF4E7
:1005B800E06C1CEA11541DBF1CEA135594EA0C0F99
:1005C80095EA0C0F00F0DEF82C4481EA030621EAD4
:1005D8004C5123EA4C5350EA013518BF52EA03350F
:1005E80041F4801143F4801338D0A0FB02CE4FF0C1
:1005F8000005E1FB02E506F00042E0FB03E54FF0F1
:100608000006E1FB03569CF0000F18BF4EF0010EE8
:10061800A4F1FF04B6F5007F64F5407404D25FEAE4
:100628004E0E6D4146EB060642EAC62141EA555197
:100638004FEAC52040EA5E504FEACE2EB4F1FD0CD9
:1006480088BFBCF5E06F1ED8BEF1004F08BF5FEA57
:10065800500E50F1000041EB045170BD06F0004609
:1006680046EA010140EA020081EA0301B4EB5C04B6
:10067800C2BFD4EB0C0541EA045170BD41F48011AE
:100688004FF0000E013C00F3AB8014F1360FDEBFD3
:10069800002001F0004170BDC4F10004203C35DAAF
:1006A8000C341BDC04F11404C4F1200500FA05F332
:1006B80020FA04F001FA05F240EA020001F00042D3
:1006C80021F0004110EBD37021FA04F642EB060149
:1006D8005EEA430E08BF20EAD37070BDC4F10C0473
:1006E800C4F1200500FA04F320FA05F001FA04F237
:1006F80040EA020001F0004110EBD37041F1000123
:100708005EEA430E08BF20EAD37070BDC4F120052D
:1007180000FA05F24EEA020E20FA04F301FA05F295
:1007280043EA020321FA04F001F0004121FA04F23D
:1007380020EA020000EBD3705EEA430E08BF20EA0D
:10074800D37070BD94F0000F0FD101F00046400047
:1007580041EB010111F4801F08BF013CF7D041EAC9
:10076800060195F0000F18BF704703F000465200CD
:1007780043EB030313F4801F08BF013DF7D043EA9E
:100788000603704794EA0C0F0CEA135518BF95EA54
:100798000C0F0CD050EA410618BF52EA4306D1D1DB
:1007A80081EA030101F000414FF0000070BD50EAFA
:1007B800410606BF1046194652EA430619D094EA84
:1007C8000C0F02D150EA013613D195EA0C0F05D16E
:1007D80052EA03361CBF104619460AD181EA0301C2
:1007E80001F0004141F0FE4141F470014FF000007A
:1007F80070BD41F0FE4141F4780170BD70B54FF015
:10080800FF0C4CF4E06C1CEA11541DBF1CEA135594
:1008180094EA0C0F95EA0C0F00F0A7F8A4EB050476
:1008280081EA030E52EA03354FEA013100F088806D
:100838004FEA03334FF0805545EA131343EA126336
:100848004FEA022245EA111545EA10654FEA0026EB
:100858000EF000419D4208BF964244F1FD0404F5A4
:10086800407402D25B084FEA3202B61A65EB030500
:100878005B084FEA32024FF480104FF4002CB6EBBD
:10088800020E75EB030E22BFB61A754640EA0C003D
:100898005B084FEA3202B6EB020E75EB030E22BF7D
:1008A800B61A754640EA5C005B084FEA3202B6EBBE
:1008B800020E75EB030E22BFB61A754640EA9C007D
:1008C8005B084FEA3202B6EB020E75EB030E22BF4D
:1008D800B61A754640EADC0055EA060E18D04FEA0B
:1008E800051545EA16754FEA06164FEAC30343EAAB
:1008F80052734FEAC2025FEA1C1CC0D111F4801F78
:100908000BD141EA00014FF000004FF0004CB6E770
:1009180011F4801F04BF01430020B4F1FD0C88BF0F
:10092800BCF5E06F3FF6AFAEB5EB030C04BFB6EB1A
:10093800020C5FEA500C50F1000041EB045170BD0D
:100948000EF0004E4EEA113114EB5C04C2BFD4EB3A
:100958000C0541EA045170BD41F480114FF0000EBE
:10096800013C90E645EA060E8DE60CEA135594EA3A
:100978000C0F08BF95EA0C0F3FF43BAF94EA0C0F3D
:100988000AD150EA01347FF434AF95EA0C0F7FF4B2
:1009980025AF104619462CE795EA0C0F06D152EA06
:1009A80003353FF4FDAE1046194622E750EA4106EA
:1009B80018BF52EA43067FF4C5AE50EA41047FF4FB
:1009C8000DAF52EA43057FF4EBAE12E74FF0FF3C60
:1009D80006E000BF4FF0010C02E000BF4FF0010C31
:1009E8004DF804CD4FEA410C7FEA6C5C4FEA430CAA
:1009F80018BF7FEA6C5C1BD001B050EA410C0CBFF9
:100A080052EA430C91EA030F02BF90EA020F00205A
:100A1800704710F1000F91EA030F58BF994208BFC1
:100A280090422CBFD8176FEAE37040F0010070477E
:100A38004FEA410C7FEA6C5C02D150EA013C07D1D5
:100A48004FEA430C7FEA6C5CD6D152EA033CD3D020
:100A58005DF8040B704700BF8446104662468C461A
:100A68001946634600E000BF01B5FFF7B7FF00284D
:100A780048BF10F1000F01BD4DF808EDFFF7F4FF76
:100A88000CBF012000205DF808FB00BF4DF808ED01
:100A9800FFF7EAFF34BF012000205DF808FB00BF24
:100AA8004DF808EDFFF7E0FF94BF012000205DF846
:100AB80008FB00BF4DF808EDFFF7CEFF94BF0120FB
:100AC80000205DF808FB00BF4DF808EDFFF7C4FFF4
:100AD80034BF012000205DF808FB00BF4FEA410C3D
:100AE8007FEA6C5C02D150EA013C0AD14FEA430C20
:100AF8007FEA6C5C02D152EA033C02D14FF000005D
:100B080070474FF0010070474FEA410212F500129A
:100B180015D211D56FF47873B3EB625212D94FEA3C
:100B2800C12343F0004343EA505311F0004F23FA26
:100B380002F018BF404270474FF00000704750EA7B
:100B4800013005D111F0004008BF6FF00040704738
:100B58004FF00000704700BF4A0011D212F5001292
:100B680011D20DD56FF47873B3EB62520ED44FEAFD
:100B7800C12343F0004343EA505323FA02F070477D
:100B88004FF00000704750EA013002D14FF0FF30BB
:100B980070474FF00000704780F0004002E000BF4F
:100BA80081F0004142001FBF5FEA410392EA030F50
:100BB8007FEA226C7FEA236C6AD04FEA1262D2EB9A
:100BC8001363C1BFD218414048404140B8BF5B429F
:100BD800192B88BF704710F0004F40F4000020F038
:100BE8007F4018BF404211F0004F41F4000121F04E
:100BF8007F4118BF494292EA030F3FD0A2F1010298
:100C080041FA03FC10EB0C00C3F1200301FA03F1D5
:100C180000F0004302D5494260EB4000B0F5000FF8
:100C280013D3B0F1807F06D340084FEA310102F1B7
:100C38000102FE2A51D2B1F1004F40EBC25008BF69
:100C480020F0010040EA03007047490040EB000033
:100C580010F4000FA2F10102EDD1B0FA80FCACF162
:100C6800080CB2EB0C0200FA0CF0AABF00EBC25061
:100C780052421843BCBFD0401843704792F0000F4F
:100C880081F4000106BF80F400000132013BB5E7A2
:100C98004FEA41037FEA226C18BF7FEA236C21D018
:100CA80092EA030F04D092F0000F08BF084670477D
:100CB80090EA010F1CBF0020704712F07F4F04D14B
:100CC800400028BF40F00040704712F100723CBF5E
:100CD80000F50000704700F0004343F0FE4040F488
:100CE800000070477FEA226216BF08467FEA236346
:100CF8000146420206BF5FEA412390EA010F40F431
:100D0800800070474FF0000304E000BF10F000437C
:100D180048BF40425FEA000C08BF704743F0964363
:100D280001464FF000001CE050EA010208BF70477E
:100D38004FF000030AE000BF50EA010208BF704705
:100D480011F0004302D5404261EB41015FEA010C1A
:100D580002BF84460146002043F0B64308BFA3F112
:100D68008053A3F50003BCFA8CF2083AA3EBC253F4
:100D780010DB01FA02FC634400FA02FCC2F1200213
:100D8800BCF1004F20FA02F243EB020008BF20F04A
:100D98000100704702F1200201FA02FCC2F12002B0
:100DA80050EA4C0021FA02F243EB020008BF20EAA5
:100DB800DC7070474FF0FF0C1CEAD0521EBF1CEAD3
:100DC800D15392EA0C0F93EA0C0F6FD01A4480EAC1
:100DD800010C400218BF5FEA41211ED04FF00063AA
:100DE80043EA501043EA5111A0FB01310CF00040D6
:100DF800B1F5000F3EBF490041EAD3715B0040EAFC
:100E0800010062F17F02FD2A1DD8B3F1004F40EBCB
:100E1800C25008BF20F00100704790F0000F0CF09E
:100E2800004C08BF49024CEA502040EA51207F3A62
:100E3800C2BFD2F1FF0340EAC250704740F400003D
:100E48004FF00003013A5DDC12F1190FDCBF00F02E
:100E580000407047C2F10002410021FA02F1C2F1DC
:100E6800200200FA02FC5FEA310040F1000053EA78
:100E78004C0308BF20EADC70704792F0000F00F0C6
:100E8800004C02BF400010F4000F013AF9D040EACC
:100E98000C0093F0000F01F0004C02BF490011F460
:100EA800000F013BF9D041EA0C018FE70CEAD1535E
:100EB80092EA0C0F18BF93EA0C0F0AD030F0004CDE
:100EC80018BF31F0004CD8D180EA010000F0004092
:100ED800704790F0000F17BF90F0004F084691F050
:100EE800000F91F0004F14D092EA0C0F01D142028A
:100EF8000FD193EA0C0F03D14B0218BF084608D153
:100F080080EA010000F0004040F0FE4040F400009C
:100F1800704740F0FE4040F4400070474FF0FF0C2F
:100F28001CEAD0521EBF1CEAD15392EA0C0F93EA76
:100F38000C0F69D0A2EB030280EA010C49024FEAC8
:100F4800402037D04FF0805343EA111143EA101381
:100F58000CF000408B4238BF5B0042F17D024FF439
:100F6800000C8B4224BF5B1A40EA0C00B3EB510F14
:100F780024BFA3EB510340EA5C00B3EB910F24BFFD
:100F8800A3EB910340EA9C00B3EBD10F24BFA3EB82
:100F9800D10340EADC001B0118BF5FEA1C1CE0D14A
:100FA800FD2A3FF650AF8B4240EBC25008BF20F0FD
:100FB800010070470CF0004C4CEA50207F32C2BF51
:100FC800D2F1FF0340EAC250704740F400004FF0EE
:100FD8000003013A37E792F0000F00F0004C02BF1F
:100FE800400010F4000F013AF9D040EA0C0093F0E9
:100FF800000F01F0004C02BF490011F4000F013B43
:10100800F9D041EA0C0195E70CEAD15392EA0C0FAA
:1010180008D142027FF47DAF93EA0C0F7FF470AFE2
:10102800084676E793EA0C0F04D14B023FF44CAF25
:1010380008466EE730F0004C18BF31F0004CCAD1BA
:1010480030F000427FF45CAF31F000437FF43CAFF6
:101058005FE700BF4FF0FF3C06E000BF4FF0010C18
:1010680002E000BF4FF0010C4DF804CD4FEA4002FA
:101078004FEA41037FEA226C18BF7FEA236C11D044
:1010880001B052EA530C18BF90EA010F58BFB2EBF7
:10109800030088BFC81738BF6FEAE17018BF40F077
:1010A800010070477FEA226C02D15FEA402C05D12B
:1010B8007FEA236CE4D15FEA412CE1D05DF8040BB0
:1010C800704700BF844608466146FFE70FB5FFF743
:1010D800C9FF002848BF10F1000F0FBD4DF808EDFB
:1010E800FFF7F4FF0CBF012000205DF808FB00BFEC
:1010F8004DF808EDFFF7EAFF34BF012000205DF846
:1011080008FB00BF4DF808EDFFF7E0FF94BF012092
:1011180000205DF808FB00BF4DF808EDFFF7D2FF8F
:1011280094BF012000205DF808FB00BF4DF808EDD2
:10113800FFF7C8FF34BF012000205DF808FB00BF9F
:101148004FEA4002B2F1FE4F0FD34FF09E03B3EBCC
:1011580012620DD94FEA002343F0004310F0004F0C
:1011680023FA02F018BF404270474FF00000704762
:1011780012F1610F01D1420205D110F0004008BF01
:101188006FF0004070474FF00000704742000ED2E9
:10119800B2F1FE4F0BD34FF09E03B3EB126209D4AA
:1011A8004FEA002343F0004323FA02F070474FF060
:1011B8000000704712F1610F01D1420202D14FF0D5
:1011C800FF3070474FF00000704700BF80B500AF98
:1011D800084B1B68074A43F010031360032000F014
:1011E80045F9002000F008F806F070FF00231846C3
:1011F80080BD00BF0020024080B582B000AF78609B
:10120800124B1A68124B1B7819464FF47A73B3FBCA
:10121800F1F3B2FBF3F3184600F05DF90346002B37
:1012280001D001230EE07B680F2B0AD800227968D1
:101238004FF0FF3000F025F9064A7B681360002361
:1012480000E0012318460837BD4680BD080000208D
:10125800040000200000002080B400AF054B1B787C
:101268001A46054B1B681344034A136000BFBD466A
:1012780080BC7047040000204C02002080B400AFFE
:10128800024B1B681846BD4680BC70474C020020C4
:1012980080B584B000AF7860FFF7F0FFB8607B6876
:1012A800FB60FB68B3F1FF3F05D0094B1B781A467A
:1012B800FB681344FB6000BFFFF7E0FF0246BB6812
:1012C800D31AFA689A42F7D800BF1037BD4680BDD6
:1012D8000400002080B485B000AF78607B6803F01C
:1012E8000703FB600C4BDB68BB60BA684FF6FF0373
:1012F8001340BB60FB681A02BB68134343F0BF632B
:1013080043F40033BB60044ABB68D36000BF1437A2
:10131800BD4680BC704700BF00ED00E080B400AF60
:10132800044BDB681B0A03F007031846BD4680BC64
:10133800704700BF00ED00E080B483B000AF034603
:10134800FB7197F90730002B0BDBFB7903F01F02C9
:10135800064997F907305B09012000FA02F241F8C3
:10136800232000BF0C37BD4680BC704700E100E079
:1013780080B483B000AF03463960FB7197F907303A
:10138800002B0ADB3B68DAB20C4997F907301201E7
:10139800D2B20B4483F800230AE03B68DAB208496A
:1013A800FB7903F00F03043B1201D2B20B441A7607
:1013B80000BF0C37BD4680BC704700BF00E100E0AD
:1013C80000ED00E080B489B000AFF860B9607A60E1
:1013D800FB6803F00703FB61FB69C3F10703042BF8
:1013E80028BF0423BB61FB690433062B02D9FB69C0
:1013F800033B00E000237B614FF0FF32BB6902FA38
:1014080003F3DA43BB681A407B699A404FF0FF3117
:101418007B6901FA03F3D9437B680B4013431846F1
:101428002437BD4680BC704780B582B000AF786075
:101438007B68013BB3F1807F01D301230FE00A4AA7
:101448007B68013B53600F214FF0FF30FFF790FF9F
:10145800054B00229A60044B07221A6000231846A5
:101468000837BD4680BD00BF10E000E080B582B0FF
:1014780000AF78607868FFF72DFF00BF0837BD46DA
:1014880080BD80B586B000AF0346B9607A60FB7353
:1014980000237B61FFF742FF78617A68B968786951
:1014A800FFF790FF024697F90F3011461846FFF7ED
:1014B8005FFF00BF1837BD4680BD80B582B000AF62
:1014C8000346FB7197F907301846FFF735FF00BF51
:1014D8000837BD4680BD80B582B000AF78607868B7
:1014E800FFF7A2FF034618460837BD4680BD000037
:1014F80080B48BB000AF7860396000237B62002332
:101508003B6233E101227B6A02FA03F3FB613B6829
:101518001B68FA691340BB61BA69FB699A4240F0DB
:1015280022813B685B68122B34D0122B0DD8022B1A
:101538002BD0022B04D8002B31D0012B1CD048E033
:10154800032B43D0112B1BD043E08F4A934226D064
:101558008D4A934206D88D4A934220D08C4A9342B2
:101568001DD036E08B4A934219D08B4A934216D04D
:101578008A4A934213D02CE03B68DB683B6228E040
:101588003B68DB6804333B6223E03B68DB68083375
:101598003B621EE03B68DB680C333B6219E03B684A
:1015A8009B68002B02D104233B6212E03B689B68D6
:1015B800012B05D108233B627B68FA691A6108E0B0
:1015C80008233B627B68FA695A6102E000233B62A8
:1015D80000BFBB69FF2B01D87B6801E07B6804333F
:1015E8007B61BB69FF2B02D87B6A9B0002E07B6AA8
:1015F800083B9B003B617B691A680F213B6901FA34
:1016080003F3DB431A40396A3B6901FA03F31A43CF
:101618007B691A603B685B6803F08053002B00F01D
:10162800A2805F4B9B695E4A43F0010393615C4B68
:101638009B6903F00103BB60BB685A4A7B6A9B083D
:10164800023352F82330FB607B6A03F003039B00EC
:101658000F2202FA03F3DB43FA681340FB607B684E
:10166800514A93421FD07B68504A934219D07B68F5
:101678004F4A934213D07B684E4A93420DD07B6801
:101688004D4A934207D07B684C4A934201D10523C7
:101698000AE0062308E0042306E0032304E002230B
:1016A80002E0012300E000237A6A02F003029200BC
:1016B8009340FA681343FB603A497B6A9B080233FC
:1016C800FA6841F823203B685B6803F48033002BF9
:1016D80006D03B4B1A683A49BB6913430B6006E0D6
:1016E800374B1A68BB69DB43354913400B603B68CD
:1016F8005B6803F40033002B06D0314B5A6830493D
:10170800BB6913434B6006E02D4B5A68BB69DB434A
:101718002B4913404B603B685B6803F48013002B34
:1017280006D0274B9A682649BB6913438B6006E0AD
:10173800234B9A68BB69DB43214913408B603B68A4
:101748005B6803F40013002B06D01D4BDA681C49B4
:10175800BB691343CB6006E0194BDA68BB69DB430E
:1017680017491340CB607B6A01337B623B681A6878
:101778007B6A22FA03F3002B7FF4C4AE00BF2C3738
:10178800BD4680BC704700BF00002110000011104A
:10179800000012100000311000003210000022106A
:1017A800001002400000014000080140000C014008
:1017B800001001400014014000180140001C0140C5
:1017C8000004014080B485B000AF78600B467B8090
:1017D8007B689A687B881340002B02D00123FB7337
:1017E80001E00023FB73FB7B18461437BD4680BC21
:1017F800704780B483B000AF78600B467B80134697
:101808007B707B78002B03D07A887B681A6103E0B1
:101818007B881A047B681A6100BF0C37BD4680BC00
:10182800704780B483B000AF78600B467B807B68DC
:10183800DA687B881340002B03D07A887B685A616A
:1018480002E07A887B681A6100BF0C37BD4680BC0D
:101858007047000080B582B000AF0346FB80084B9C
:101868005A69FB881340002B06D0054AFB88536150
:10187800FB88184606F0A2FB00BF0837BD4680BDAE
:101888000004014080B586B000AF78607B68002B0B
:1018980001D101236CE27B681B6803F00103002B74
:1018A80000F08780924B5B6803F00C03042B0CD08C
:1018B8008F4B5B6803F00C03082B12D18C4B5B68D1
:1018C80003F48033B3F5803F0BD1894B1B6803F4D5
:1018D8000033002B6CD07B685B68002B68D1012338
:1018E80046E27B685B68B3F5803F06D1804B1B6896
:1018F8007F4A43F4803313602EE07B685B68002BDB
:101908000CD17B4B1B687A4A23F480331360784BE5
:101918001B68774A23F4802313601DE07B685B68AB
:10192800B3F5A02F0CD1724B1B68714A43F4802386
:1019380013606F4B1B686E4A43F4803313600BE0EF
:101948006B4B1B686A4A23F480331360684B1B682F
:10195800674A23F4802313607B685B68002B13D0ED
:10196800FFF78CFC386108E0FFF788FC02463B690A
:10197800D31A642B01D90323FAE15D4B1B6803F4E6
:101988000033002BF0D014E0FFF778FC386108E052
:10199800FFF774FC02463B69D31A642B01D9032371
:1019A800E6E1534B1B6803F40033002BF0D100E051
:1019B80000BF7B681B6803F00203002B63D04C4B0D
:1019C8005B6803F00C03002B0BD0494B5B6803F0FA
:1019D8000C03082B1CD1464B5B6803F48033002BA7
:1019E80016D1434B1B6803F00203002B05D07B681C
:1019F8001B69012B01D00123BAE13D4B1B6823F081
:101A0800F8027B685B69DB00394913430B603AE0F5
:101A18007B681B69002B20D0364B01221A60FFF728
:101A28002DFC386108E0FFF729FC02463B69D31A10
:101A3800022B01D903239BE12D4B1B6803F0020302
:101A4800002BF0D02A4B1B6823F0F8027B685B69F7
:101A5800DB00274913430B6015E0264B00221A6070
:101A6800FFF70CFC386108E0FFF708FC02463B6909
:101A7800D31A022B01D903237AE11D4B1B6803F00B
:101A88000203002BF0D17B681B6803F00803002BCE
:101A98003AD07B689B69002B19D0174B01221A603A
:101AA800FFF7ECFB386108E0FFF7E8FB02463B690B
:101AB800D31A022B01D903235AE10D4B5B6A03F0B9
:101AC8000203002BF0D0012000F0DAFA1CE00A4BE8
:101AD80000221A60FFF7D2FB38610FE0FFF7CEFB58
:101AE80002463B69D31A022B08D9032340E100BF01
:101AF8000010024000004242800442429E4B5B6A52
:101B080003F00203002BE9D17B681B6803F0040390
:101B1800002B00F0A6800023FB75974BDB6903F0D0
:101B28008053002B0DD1944BDB69934A43F08053CB
:101B3800D361914BDB6903F08053BB60BB68012321
:101B4800FB758E4B1B6803F48073002B18D18B4BED
:101B58001B688A4A43F480731360FFF78FFB386170
:101B680008E0FFF78BFB02463B69D31A642B01D9C7
:101B78000323FDE0814B1B6803F48073002BF0D036
:101B88007B68DB68012B06D17B4B1B6A7A4A43F0E2
:101B9800010313622DE07B68DB68002B0CD1764BC8
:101BA8001B6A754A23F001031362734B1B6A724A5E
:101BB80023F0040313621CE07B68DB68052B0CD15F
:101BC8006D4B1B6A6C4A43F0040313626A4B1B6A31
:101BD800694A43F0010313620BE0674B1B6A664ACC
:101BE80023F001031362644B1B6A634A23F0040366
:101BF80013627B68DB68002B15D0FFF73FFB386169
:101C08000AE0FFF73BFB02463B69D31A41F28832F0
:101C1800934201D90323ABE0574B1B6A03F002033D
:101C2800002BEED014E0FFF729FB38610AE0FFF73C
:101C380025FB02463B69D31A41F28832934201D907
:101C4800032395E04C4B1B6A03F00203002BEED1F3
:101C5800FB7D012B05D1484BDB69474A23F08053B4
:101C6800D3617B68DB69002B00F08180424B5B68A5
:101C780003F00C03082B61D07B68DB69022B46D18B
:101C88003F4B00221A60FFF7F9FA386108E0FFF7C6
:101C9800F5FA02463B69D31A022B01D9032367E000
:101CA800354B1B6803F00073002BF0D17B681B6A6F
:101CB800B3F5803F08D1304B5B6823F400327B6872
:101CC8009B682D4913434B602B4B5B6823F47412BC
:101CD8007B68196A7B685B6A0B43274913434B602F
:101CE800274B01221A60FFF7C9FA386108E0FFF7AD
:101CF800C5FA02463B69D31A022B01D9032337E000
:101D08001D4B1B6803F00073002BF0D02FE01C4B19
:101D180000221A60FFF7B2FA386108E0FFF7AEFA5E
:101D280002463B69D31A022B01D9032320E0124B48
:101D38001B6803F00073002BF0D118E07B68DB69A7
:101D4800012B01D1012313E00B4B5B68FB60FB689F
:101D580003F480327B681B6A9A4206D1FB6803F45D
:101D680070127B685B6A9A4201D0012300E000236D
:101D780018461837BD4680BD00100240007000406C
:101D88006000424280B584B000AF786039607B68FB
:101D9800002B01D10123D0E06A4B1B6803F0070335
:101DA8003A689A4210D9674B1B6823F007026549C5
:101DB8003B6813430B60634B1B6803F007033A68E7
:101DC8009A4201D00123B8E07B681B6803F0020344
:101DD800002B20D07B681B6803F00403002B05D080
:101DE800594B5B68584A43F4E06353607B681B684F
:101DF80003F00803002B05D0534B5B68524A43F4A9
:101E080060535360504B5B6823F0F0027B689B681B
:101E18004D4913434B607B681B6803F00103002B9B
:101E280040D07B685B68012B07D1474B1B6803F4E4
:101E38000033002B15D101237FE07B685B68022B00
:101E480007D1414B1B6803F00073002B09D1012314
:101E580073E03D4B1B6803F00203002B01D1012303
:101E68006BE0394B5B6823F003027B685B6836499B
:101E780013434B60FFF702FAF8600AE0FFF7FEF938
:101E88000246FB68D31A41F28832934201D90323F0
:101E980053E02D4B5B6803F00C027B685B689B008A
:101EA8009A42EBD1274B1B6803F007033A689A4222
:101EB80010D2244B1B6823F0070222493B681343C6
:101EC8000B60204B1B6803F007033A689A4201D065
:101ED800012332E07B681B6803F00403002B08D061
:101EE800194B5B6823F4E0627B68DB68164913438F
:101EF8004B607B681B6803F00803002B09D0124B6A
:101F08005B6823F460527B681B69DB000E4913434E
:101F18004B6000F021F801460B4B5B681B0903F08E
:101F28000F030A4AD35C21FA03F3094A1360094BE9
:101F38001B681846FFF760F9002318461037BD469E
:101F480080BD00BF0020024000100240E4AD000840
:101F5800080000200000002090B48AB000AF2A4B8F
:101F68003C1D0FCB84E80F00284B1B883B800023C7
:101F7800FB610023BB6100237B6200237B6100239C
:101F88003B62234B5B68FB61FB6903F00C03042B8A
:101F980002D0082B03D02DE01E4B3B622DE0FB69DD
:101FA8009B0C03F00F0307F12802134413F8243C99
:101FB8007B61FB6903F48033002B13D0144B5B68FF
:101FC8005B0C03F0010307F12802134413F8283CC3
:101FD800BB617B690F4A02FB03F2BB69B2FBF3F3F7
:101FE8007B6204E07B690C4A02FB03F37B627B6A39
:101FF8003B6202E0074B3B6200BF3B6A184628374A
:10200800BD4690BC704700BFF0AC000800AD0008AA
:102018000010024000127A0000093D0080B400AFB1
:10202800024B1B681846BD4680BC7047080000205C
:1020380080B500AFFFF7F2FF0146054B5B681B0A4E
:1020480003F00703034AD35C21FA03F3184680BD63
:1020580000100240F4AD000880B500AFFFF7DEFFC6
:102068000146054B5B68DB0A03F00703034AD35CB0
:1020780021FA03F3184680BD00100240F4AD0008B1
:1020880080B485B000AF78600A4B1B680A4AA2FB8F
:1020980003235B0A7A6802FB03F3FB6000BFFB685B
:1020A8005A1EFA60002BF9D100BF1437BD4680BC18
:1020B800704700BF08000020D34D621080B582B081
:1020C80000AF78607B68002B01D101233FE07B687B
:1020D80093F83930DBB2002B06D17B68002283F8F5
:1020E8003820786806F0F0F87B68242283F83920D5
:1020F8007B681B68DA687B681B6822F40052DA6028
:10210800786800F00BF97B681B681A697B681B68A4
:1021180022F490421A617B681B685A697B681B68C5
:1021280022F02A025A617B681B68DA687B681B68A0
:1021380042F40052DA607B680022DA637B6820226E
:1021480083F839207B68202283F83A200023184638
:102158000837BD4680BD80B588B002AFF860B96069
:102168003B601346FB8000237B61FB6893F83930A2
:10217800DBB2202B40F08380BB68002B02D0FB88A9
:10218800002B01D101237BE0FB6893F83830012B49
:1021980001D1022374E0FB68012283F83820FB6830
:1021A8000022DA63FB68212283F83920FFF766F8FA
:1021B8007861FB68FA889A84FB68FA88DA8442E0D6
:1021C800FB68DB8C9BB2013B9AB2FB68DA84FB6844
:1021D8009B68B3F5805F22D13B6800937B6900223E
:1021E8008021F86800F050F80346002B01D0032343
:1021F80046E0BB683B613B691B881A46FB681B6865
:10220800C2F308025A60FB681B69002B03D1BB6844
:102218000233BB6017E0BB680133BB6013E03B6867
:1022280000937B6900228021F86800F02DF80346AE
:10223800002B01D0032323E0BB685A1CBA601A782C
:10224800FB681B685A60FB68DB8C9BB2002BB7D11C
:102258003B6800937B6900224021F86800F014F87D
:102268000346002B01D003230AE0FB68202283F8F1
:102278003920FB68002283F83820002300E002237D
:1022880018461837BD4680BD80B584B000AFF860E9
:10229800B9603B601346FB712CE0BB69B3F1FF3FAB
:1022A80028D0BB69002B07D0FEF7E8FF02463B6841
:1022B800D31ABA699A421DD2FB681B68DA68FB68B0
:1022C8001B6822F4D072DA60FB681B685A69FB68E5
:1022D8001B6822F001025A61FB68202283F839202A
:1022E800FB68202283F83A20FB68002283F8382014
:1022F80003230FE0FB681B681A68BB681340BA68C1
:102308009A420CBF01230023DBB21A46FB799A429A
:10231800C3D0002318461037BD4680BD80B584B0B1
:1023280000AF78607B681B681B6923F440517B68A9
:10233800DA687B681B680A431A617B689A687B685D
:102348001B691A437B685B691343FB607B681B68E6
:10235800DB6823F4B05323F00C037A681268F96839
:102368000B43D3607B681B685B6923F440717B680F
:102378009A697B681B680A435A617B681B68524AE2
:1023880093424ED1FFF768FEB860BA6813469B00C7
:1023980013449A001A447B685B689B00B2FBF3F312
:1023A8004A4AA2FB03235B091901BA6813469B003A
:1023B80013449A001A447B685B689B00B2FBF3F2F3
:1023C800424BA3FB02035B09642000FB03F3D31A0F
:1023D8001B0132333D4AA2FB03235B0903F0F003E0
:1023E8001944BA6813469B0013449A001A447B6840
:1023F8005B689B00B2FBF3F2344BA3FB02035B095F
:10240800642000FB03F3D31A1B0132332F4AA2FBCB
:1024180003235B0903F00F027B681B680A449A6078
:102428004DE0FFF705FEB860BA6813469B001344F9
:102438009A001A447B685B689B00B2FBF3F3234A5B
:10244800A2FB03235B091901BA6813469B001344D6
:102458009A001A447B685B689B00B2FBF3F21B4B43
:10246800A3FB02035B09642000FB03F3D31A1B01DF
:102478003233164AA2FB03235B0903F0F003194425
:10248800BA6813469B0013449A001A447B685B6839
:102498009B00B2FBF3F20D4BA3FB02035B09642024
:1024A80000FB03F3D31A1B013233084AA2FB0323B0
:1024B8005B0903F00F027B681B680A449A6000BF3F
:1024C8001037BD4680BD00BF003801401F85EB5165
:1024D80080B584B000AF786039607B681B8A1A4683
:1024E8003B681B8A13441846FEF710FC0346BB6082
:1024F8000023FB730023BB737B689A683B689B6867
:1025080019461046FEF712FE0346002B12D07B68D0
:102518009A683B689B6819461046FEF741FB0346DC
:102528001946B868FEF702FE0346002B14D00123B3
:10253800FB7311E03B689A687B689B6819461046F4
:10254800FEF72EFB03461946B868FEF7EFFD034673
:10255800002B01D00123FB737B68DA683B68DB68DA
:1025680019461046FEF7E2FD0346002B12D07B68A1
:10257800DA683B68DB6819461046FEF711FB03462C
:102588001946B868FEF7D2FD0346002B14D0012384
:10259800BB7311E03B68DA687B68DB681946104654
:1025A800FEF7FEFA03461946B868FEF7BFFD034674
:1025B800002B01D00123BB73FB7B002B04D0BB7B1A
:1025C800002B01D0012300E0002303F00103DBB25C
:1025D80018461037BD4680BD80B588B000AF78601A
:1025E8000B46FB700023FB617B681B689B68BB6123
:1025F80096E0BB691B683B613B691B68FB60FB6835
:102608001B7F83F00103DBB2002B03D03B695B68BF
:10261800F86898473B699B68F8689847FB78002BEF
:102628005CD0FB6893F82630002B26D0414B1B6802
:102638001B681946F868FFF74BFF0346002B4DD07F
:10264800FB6801225A773B4B1B681B681A6AFB68B8
:102658001B6A9A420BD9374B1B681B68196AFB68BF
:102668001A6A344B1B681B688A1A1A6236E0314BA7
:102678001B681B6800221A6230E02F4B1B689B689E
:102688007B6128E07B691B681B681946F868FFF7BF
:102698001FFF0346002B1BD0FB6801225A777B697A
:1026A8001B681B681A6AFB681B6A9A420BD97B690C
:1026B8001B681B68196AFB681A6A7B691B681B68B8
:1026C8008A1A1A6204E07B691B681B6800221A6276
:1026D8007B699B687B617B69002BD3D1FB685B7F3F
:1026E800002B10D03B69DB68F8689847386906F01A
:1026F80087FABB695B68BB61BB699B6819467868E8
:1027080006F03AF809E03B691B690C4A1268114661
:10271800F8689847FB690133FB61BB699B68BB613B
:10272800BB69002B7FF465AFFB6918462037BD46AF
:1027380080BD00BF680200207002002064020020F3
:1027480080B500AF214B03221A60214B00221A608A
:10275800204B00221A60204B00221A601F4B0022D7
:102768001A601F4B00221A701E4B00221A600C20A0
:1027780006F03EFA03461A461B4B1A601A4B1B68B2
:1027880000229A60184B1B68174A53600C2006F009
:102798002FFA03461A46154B1A60144B1B68002281
:1027A8009A60124B1B68114A53600C2006F020FAFD
:1027B80003461A460E4B1A600D4B1B6800229A609E
:1027C8000B4B1B680A4A536000BF80BD58020020AB
:1027D800500200206C0200208002002078020020B5
:1027E8008402002054020020700200208802002089
:1027F8005C02002080B586B000AF786006F06AF908
:102808008DE000233B610023FB60504B1B6818469A
:1028180006F09CF802464D4B1A6006F067F97B6893
:1028280098474B4B1B68002B3CD0494B1B681B68D7
:10283800BB60BB681B7F83F00103DBB2002B04D0B5
:10284800434B1B685B68B8689847414B1B689B689B
:10285800B8689847BB685B7F002B17D03C4B1B6858
:10286800DB68B86898473B4B1B68002B08D1384B8E
:102878001B68184606F0C4F9354B00221A6014E0AC
:10288800344B1B68013B334A13600EE0304B1B6826
:102898001B692E4A12681146B86898473B6901338C
:1028A8003B6102E000F066F843E000212A48FFF7A8
:1028B80093FE02463B6913443B6101212748FFF719
:1028C8008BFE02463B6913443B61254B1B689B68A2
:1028D8007B6105E0FB680133FB607B699B687B617A
:1028E8007B69002BF6D106F0E9F80346002B02D1EC
:1028F8001C4B00221A60154B1B68184606F068F836
:102908000246124B1A60184B1B78002B10D106F0A8
:10291800D5F80146FB683A69144805F0BFFB124B2D
:102928001B7883F00103DBB2002B7FF46AAF00E071
:1029380000BF0F4B1B6801330D4A13600A4B00227E
:102948001A7000BF1837BD4680BD00BF6402002062
:10295800680200205802002070020020880200202F
:102968005C020020540200208402002004AD00080C
:102978007802002080B400AF00BFBD4680BC70471D
:1029880080B586B000AFF860B9607A603B6014200B
:1029980006F02EF903467B617B69FA681A607B6949
:1029A800BA685A607B697A689A607B693A68DA60C3
:1029B8007B693A6A1A617B6918461837BD4680BD3B
:1029C80080B584B000AFF860084611461A46034641
:1029D8007B810B463B811346FB80FB684FF000026E
:1029E8001A60FB684FF000025A607B891846FEF7B0
:1029F80089F90246FB689A603B891846FEF782F916
:102A08000246FB68DA60FB68FA881A82FB683A8B30
:102A18005A82FB68BA8B9A82FB683A6A9A61FB68A9
:102A280000221A77FB6800225A7700BF1037BD468C
:102A380080BD80B483B000AF78607B6801221A77CC
:102A480000BF0C37BD4680BC70470000B0B582B0EF
:102A580000AF78607B689C687B681D68164B1B68B4
:102A68001846FEF753F9034619462846FEF7A2F919
:102A7800034619462046FEF795F803461A467B6832
:102A88009A607B68DC687B685D680B4B1B6818463E
:102A9800FEF73CF9034619462846FEF78BF903462C
:102AA80019462046FEF77EF803461A467B68DA6028
:102AB80000BF0837BD46B0BD7C02002080B582B09B
:102AC80000AF786039603968786805F079FE00BF32
:102AD8000837BD4680BD90B589B004AFF8607A600C
:102AE8001A460B467B8113463B81F868BC8D3A8CAD
:102AF8003989BB6B0293BB8E01933B8E00932346AF
:102B0800FFF75EFFFB687A899A84FB687A681A6225
:102B1800FB687A6A1A60FB68BA6A5A60FB6897F8B9
:102B28003C2083F8262000BF1437BD4690BD80B5F1
:102B380082B000AF78607B681846FFF77AFF00BF65
:102B48000837BD4680BD80B582B000AF78607B682D
:102B58009B8C002B03D17B6801225A7705E07B68A8
:102B68009B8C013B9AB27B689A847B681846FFF776
:102B78006DFF00BF0837BD4680BD80B582B000AF8D
:102B8800786039607B6839681846FFF797FF00BF9F
:102B98000837BD4680BD90B589B004AFF860B9600C
:102BA80011461A460B46FB801346BB80F8683C8CDE
:102BB800BA88F988FB6A02933B8D0193BB8C00931A
:102BC8002346FFF7FDFEFB68BA681A6200BF143798
:102BD800BD4690BD80B582B000AF78607B6818466E
:102BE800FFF727FF00BF0837BD4680BD80B582B01C
:102BF80000AF78607B681B6A002B02D17B680122DA
:102C08005A777B681846FFF721FF00BF0837BD4693
:102C180080BD80B582B000AF786039607B68396864
:102C28001846FFF74BFF00BF0837BD4680BD90B57B
:102C380089B004AFF860B96011461A460B46FB80AC
:102C48001346BB80FB68BA681A62F8683C8CBA887D
:102C5800F988FB6A02933B8D0193BB8C0093234652
:102C6800FFF7AEFE00BF1437BD4690BD80B582B0F9
:102C780000AF78607B681846FFF7DBFE00BF0837B7
:102C8800BD4680BD80B582B000AF78600D4B1B6833
:102C9800002B03DD7B680C4A1A600BE0094B1B68AC
:102CA800002B03DA7B68094A1A6003E07B684FF05F
:102CB80000021A607B681846FFF7C8FE00BF083795
:102CC800BD4680BD54020020333333BF3333333F16
:102CD80080B582B000AF786039607B683968184683
:102CE800FFF7ECFE00BF0837BD4680BD80B588B051
:102CF80000AF07F1100300221A605A609A60DA6088
:102D0800464B9B69454A43F020039361434B9B69BB
:102D180003F02003FB60FB68404B9B693F4A43F08C
:102D2800040393613D4B9B6903F00403BB60BB68DC
:102D38003A4B9B69394A43F010039361374B9B69BF
:102D480003F010037B607B6800224FF480713448E5
:102D5800FEF74FFD002204213248FEF74AFD012309
:102D68003B61314B7B610223BB6107F110031946BC
:102D78002B48FEF7BDFB20233B612B4B7B610123D6
:102D8800BB6107F1100319462848FEF7B1FB4FF461
:102D980080733B6101237B610023BB610223FB61DC
:102DA80007F1100319461E48FEF7A2FB4FF4004333
:102DB8003B611D4B7B610123BB6107F11003194681
:102DC8001748FEF795FB04233B6101237B61002331
:102DD800BB610223FB6107F1100319461148FEF796
:102DE80087FB002201210620FEF74BFB0620FEF799
:102DF80064FB012201211720FEF743FB1720FEF791
:102E08005CFB022201212820FEF73BFB2820FEF76D
:102E180054FB00BF2037BD4680BD00BF00100240F4
:102E2800000801400014014000001110001001408A
:102E380080B483B000AF0346FB800D4B4FF4807223
:102E48005A610B4B4FF400725A610A4AFB88D360EF
:102E5800074B80225A61064B80221A61044B4FF4BB
:102E680000721A6100BF0C37BD4680BC704700BFB6
:102E780000100140000C014080B483B000AF03464D
:102E8800FB800D4B4FF480721A610B4B4FF40072AC
:102E98005A610A4AFB88D360074B80225A61064B65
:102EA80080221A61044B4FF400721A6100BF0C377C
:102EB800BD4680BC704700BF00100140000C0140B7
:102EC80080B582B000AF1D4B4FF088321A601B4BA3
:102ED8004FF088325A60194B0022DA60184B4FF4D1
:102EE80080721A61164B4FF400725A61144B4022DB
:102EF8005A61144B9B8848F68912934202D10120EB
:102F0800FEF7C6F90D4B9B68FB800D4B40221A61FA
:102F18000B4B4FF400721A61084B4FF033321A60B2
:102F2800064B4FF033325A60044B4FF6FF72DA60AB
:102F3800FB8818460837BD4680BD00BF000C01401D
:102F4800001001409002002080B582B000AF034617
:102F58000A46FB801346BB80FB881846FFF768FFCC
:102F68000C4B4FF480721A610A4B4FF400725A618D
:102F7800094ABB88D360074B80225A61054B8022DF
:102F88001A61044B4FF400721A6100BF0837BD463E
:102F980080BD00BF00100140000C014080B582B028
:102FA80000AF0346FB80FB881846FFF741FFFFF799
:102FB80087FF034618460837BD4680BD80B500AF79
:102FC800034B1B891846FFF733FF00BF80BD00BFC6
:102FD8009002002080B582B000AF03460A46FB800D
:102FE8001346BB80734B9B8849F24132934205D00C
:102FF800704B9B8845F21032934264D16D4B5B89CC
:103008001846FFF715FF6C4B4FF480721A616A4B34
:103018004FF400725A61FB881B0A9AB2674BDA6058
:10302800654B80225A61644B80221A61624B4FF4CF
:1030380000721A61604B4FF480721A615E4B4FF454
:1030480000725A61FB885D4ADBB2D3605A4B80221A
:103058005A61594B80221A61574B4FF400721A611A
:10306800544B9B891846FFF7E3FE534B4FF480728D
:103078001A61514B4FF400725A61BB881B0A9AB20D
:103088004E4BDA604C4B80225A614B4B80221A61BE
:10309800494B4FF400721A61474B4FF480721A6122
:1030A800454B4FF400725A61BB88444ADBB2D36087
:1030B800414B80225A61404B80221A613E4B4FF4AB
:1030C80000721A6148E23B4B9B8846F60402934221
:1030D80076D1384B9B79012B06D1364B1A88FB8861
:1030E800D31A9BB2013BFB80324B5B891846FFF732
:1030F8009FFE314B4FF480721A612F4B4FF40072D0
:103108005A61FB881B0A9AB22C4BDA602A4B802240
:103118005A61294B80221A61274B4FF400721A61B9
:10312800254B4FF480721A61234B4FF400725A6199
:10313800FB88224ADBB2D3601F4B80225A611E4BA8
:1031480080221A611C4B4FF400721A61194B9B893B
:103158001846FFF76DFE184B4FF480721A61164B34
:103168004FF400725A61BB881B0A9AB2134BDA609B
:10317800114B80225A61104B80221A610E4B4FF47A
:1031880000721A610C4B4FF480721A610A4B4FF4AB
:1031980000725A61BB88094ADBB2D360064B8022B1
:1031A8005A61054B80221A61034B4FF400721A6171
:1031B800D2E100BF9002002000100140000C014045
:1031C800994B9B8841F66312934240F03381964BAA
:1031D8009B79002B63D1944B1A88FB88D31A9BB236
:1031E800013BFB80904B5B891846FFF721FE8F4B14
:1031F8004FF480721A618D4B4FF400725A618C4BF8
:103208000022DA60894B80225A61884B80221A6139
:10321800864B4FF400721A61844B4FF480721A6126
:10322800824B4FF400725A61814B0022DA607F4B67
:1032380080225A617D4B80221A617C4B4FF40072C8
:103248001A617A4B4FF480721A61784B4FF400720E
:103258005A61FB881B0A9AB2754BDA60734B80225D
:103268005A61724B80221A61704B4FF400721A61D6
:103278006E4B4FF480721A616C4B4FF400725A61B6
:10328800FB886B4ADBB2D360684B80225A61674B7C
:1032980080221A61654B4FF400721A6161E0624B3B
:1032A8005B891846FFF7C4FD604B4FF480721A61C2
:1032B8005E4B4FF400725A61FB881B0A9AB25C4B52
:1032C800DA605A4B80225A61584B80221A61574B58
:1032D8004FF400721A61554B4FF480721A61534BC8
:1032E8004FF400725A61FB88514ADBB2D3604F4BEE
:1032F80080225A614D4B80221A614C4B4FF4007268
:103308001A614A4B4FF480721A61484B4FF40072AD
:103318005A61454B1B88013B1A12454BDA60434BF7
:1033280080225A61414B80221A61404B4FF400724F
:103338001A613E4B4FF480721A613C4B4FF4007295
:103348005A61394B1B88013B394ADBB2D360374B92
:1033580080225A61354B80221A61344B4FF4007237
:103368001A61314B9B891846FFF762FD2F4B4FF4CA
:1033780080721A612D4B4FF400725A61BB881B0A88
:103388009AB22B4BDA60294B80225A61274B802254
:103398001A61264B4FF400721A61244B4FF4807265
:1033A8001A61224B4FF400725A61BB88204ADBB283
:1033B800D3601E4B80225A611C4B80221A611B4B22
:1033C8004FF400721A61194B4FF480721A61174B4F
:1033D8004FF400725A61144B5B88013B1A12144B6C
:1033E800DA60124B80225A61104B80221A610F4B0F
:1033F8004FF400721A610D4B4FF480721A610B4B37
:103408004FF400725A61084B5B88013B084ADBB2F3
:10341800D360064B80225A61044B80221A61034B09
:103428004FF400721A6197E09002002000100140EA
:10343800000C01404A4B9B8845F21052934272D1CE
:10344800474B5B891846FFF7F3FC464B4FF48072F5
:103458001A61444B4FF400725A61FB881B0A9AB2F6
:10346800414BDA603F4B80225A613E4B80221A6101
:103478003C4B4FF400721A61394B5B8901339BB2A4
:103488001846FFF7D5FC374B4FF480721A61354B5D
:103498004FF400725A61FB88334ADBB2D360314B78
:1034A80080225A612F4B80221A612E4B4FF40072F2
:1034B8001A612B4B9B891846FFF7BAFC294B4FF42E
:1034C80080721A61274B4FF400725A61BB881B0A3D
:1034D8009AB2254BDA60234B80225A61214B802215
:1034E8001A61204B4FF400721A611D4B9B890133FE
:1034F8009BB21846FFF79CFC1A4B4FF480721A6176
:10350800184B4FF400725A61BB88174ADBB2D3607C
:10351800144B80225A61134B80221A61114B4FF4CD
:1035280000721A6118E00E4B9B79012B06D10C4BE7
:103538001A88FB88D31A9BB2013BFB80084B5B8936
:10354800FA8811461846FFF7FFFC054B9B89BA8895
:1035580011461846FFF7F8FC00BF0837BD4680BD86
:103568009002002000100140000C014080B584B09A
:1035780000AF0346FB710023FB810023BB81784B1E
:103588009B79012B0BD1764B9B8846F6040293421C
:1035980005D0734B9B8841F66312934209D1704B57
:1035A8009B79002B34D16E4B9B8841F66312934272
:1035B8002ED1FB79072B2BD801A252F823F000BF9C
:1035C800E9350008EF350008F5350008FB35000837
:1035D80001360008073600080D36000813360008C3
:1035E8000623FB7114E00723FB7111E00423FB7130
:1035F8000EE00523FB710BE00123FB7108E00023BB
:10360800FB7105E00323FB7102E00223FB7100BF9D
:10361800534B9B8849F24132934218D0504B9B88B8
:1036280046F60402934212D04D4B9B8845F2103265
:1036380093420CD04A4B9B8845F21052934206D0D5
:10364800474B9B8841F66312934240F05082FB79C6
:10365800072B36D801A252F823F000BFCB3600085A
:10366800853600088F36000899360008A33600080A
:10367800AD360008B7360008C1360008FB8943F0AC
:103688008003FB811DE0FB8943F04003FB8118E0C8
:10369800FB8943F0C003FB8113E0FB8943F020035F
:1036A800FB810EE0FB8943F06003FB8109E0FB89A5
:1036B80043F0A003FB8104E0FB8943F0E003FB81B6
:1036C80000BF274B9B8845F21052934203D14FF419
:1036D8005853BB8101E03623BB81214B9B8845F2BF
:1036E800103293420FD01E4B9B8845F210529342E2
:1036F80009D01B4B9B8841F66312934203D0FB8988
:1037080043F00803FB81164B9B8846F6040293425C
:1037180003D1FB8943F00203FB81FA89BB89114677
:103728001846FFF711FC0E4B9B8841F66312934233
:1037380028D0FB8903F02003002B13D0084B1A88EC
:10374800074B5B889A421DD2054B1B887B81044B33
:103758005A88034B1A80024A7B89538012E000BFC3
:10376800900200207F4B1A887E4B5B889A4209D9C9
:103778007C4B1B887B817B4B5A887A4B1A80794A11
:103788007B895380774B9B8845F21052934240F0D7
:10379800EF80744B5B891846FFF74AFB724B4FF476
:1037A80080721A61704B4FF400725A616F4B00229D
:1037B800DA606D4B80225A616B4B80221A616A4B2A
:1037C8004FF400721A61674B5B8901339BB218464C
:1037D800FFF72EFB644B4FF480721A61624B4FF473
:1037E80000725A61614B0022DA605F4B80225A6195
:1037F8005D4B80221A615C4B4FF400721A61594B81
:103808005B8902339BB21846FFF712FB564B4FF405
:1038180080721A61544B4FF400725A61514B1B88E5
:10382800013B1A12514BDA604F4B80225A614E4BC2
:1038380080221A614C4B4FF400721A61494B5B8924
:1038480003339BB21846FFF7F3FA474B4FF48072E5
:103858001A61454B4FF400725A61424B1B88013B79
:10386800424ADBB2D360404B80225A613E4B8022F1
:103878001A613D4B4FF400721A613A4B9B89184606
:10388800FFF7D6FA384B4FF480721A61364B4FF473
:1038980000725A61354B0022DA60334B80225A613C
:1038A800314B80221A61304B4FF400721A612D4B54
:1038B8009B8901339BB21846FFF7BAFA2A4B4FF49B
:1038C80080721A61284B4FF400725A61274B00220C
:1038D800DA60254B80225A61234B80221A61224BE1
:1038E8004FF400721A611F4B9B8902339BB2184632
:1038F800FFF79EFA1C4B4FF480721A611A4B4FF473
:1039080000725A61174B5B88013B1A12174BDA6039
:10391800154B80225A61144B80221A61124B4FF4C6
:1039280000721A610F4B9B8903339BB21846FFF74D
:103938007FFA0D4B4FF480721A610B4B4FF40072F3
:103948005A61084B5B88013B084ADBB2D360064BDF
:1039580080225A61044B80221A61034B4FF4007293
:103968001A610AE19002002000100140000C014099
:10397800844B5B891846FFF75BFA834B4FF48072E0
:103988001A61814B4FF400725A61804B0022DA6051
:103998007D4B80225A617C4B80221A617A4B4FF40E
:1039A80000721A61784B4FF480721A61764B4FF4AB
:1039B80000725A61754B0022DA60734B80225A619B
:1039C800714B80221A61704B4FF400721A616E4B72
:1039D8004FF480721A616C4B4FF400725A61694B54
:1039E8001B88013B1A12694BDA60674B80225A61C7
:1039F800654B80221A61644B4FF400721A61624B66
:103A08004FF480721A61604B4FF400725A615D4B3B
:103A18001B88013B5D4ADBB2D3605B4B80225A6155
:103A2800594B80221A61584B4FF400721A61554B5A
:103A38009B891846FFF7FCF9534B4FF480721A61C3
:103A4800514B4FF400725A61504B0022DA604E4BD2
:103A580080225A614C4B80221A614B4B4FF4007202
:103A68001A61494B4FF480721A61474B4FF4007248
:103A78005A61464B0022DA60434B80225A61424B1E
:103A880080221A61404B4FF400721A613E4B4FF48A
:103A980080721A613C4B4FF400725A61394B5B8853
:103AA800013B1A12394BDA60374B80225A61364B88
:103AB80080221A61344B4FF400721A61324B4FF472
:103AC80080721A61304B4FF400725A612D4B5B883B
:103AD800013B2E4ADBB2D3602B4B80225A612A4B22
:103AE80080221A61284B4FF400721A6145E0FB7975
:103AF800072B36D801A252F823F000BF253B000857
:103B08002F3B0008393B00086B3B0008433B00088B
:103B18004D3B0008573B0008613B0008FB8943F018
:103B28003003FB811DE0FB8943F01003FB8118E0A3
:103B3800FB8943F02003FB8113E0FB8943F0380342
:103B4800FB810EE0FB8943F02803FB8109E0FB8938
:103B580043F01803FB8104E0FB8943F00803FB8171
:103B680000BF0323BB81FB8943F48053FB81FA899F
:103B7800BB8911461846FFF7E7F900BF1037BD4665
:103B880080BD00BF9002002000100140000C0140E1
:103B980090B583B000AF0346FB71BE20FFF748F92C
:103BA8004B4B4FF480721A61494B4FF400725A61C3
:103BB800484B0522DA60464B80225A61444B8022EA
:103BC8001A61434B4FF400721A61414B4FF48072F3
:103BD8001A613F4B4FF400725A61FB791846FCF7A3
:103BE80079FC39A3D3E90023FCF7DEFC03460C4635
:103BF8001A462346374C10461946FCF7ADFF0346D4
:103C0800E360334B80225A61314B80221A61304B7A
:103C18004FF400721A612E4B4FF480721A612C4BCC
:103C28004FF400725A612B4B0122DA60284B802234
:103C38005A61274B80221A61254B4FF400721A6192
:103C4800234B4FF480721A61214B4FF400725A6172
:103C5800204BFF22DA601E4B80225A611C4B8022C7
:103C68001A611B4B4FF400721A61194B4FF48072A2
:103C78001A61174B4FF400725A61164B0022DA6032
:103C8800134B80225A61124B80221A61104B4FF459
:103C980000721A610E4B4FF480721A610C4B4FF48C
:103CA80000725A610B4B0022DA60094B80225A617C
:103CB800074B80221A61064B4FF400721A6100BF4D
:103CC8000C37BD4690BD00BF6666666666660440F2
:103CD80000100140000C014080B582B000AF0346DF
:103CE800FB71FB79002B77D1804B00229A717F4BB7
:103CF800F0221A807D4B4FF4A0725A807B4B9B8830
:103D080049F2413293420BD0784B9B8846F6040225
:103D1800934205D0754B9B8845F2103293421ED1D1
:103D2800724B2C221A81714B2A225A816F4B2B22FB
:103D38009A816E4B9B8846F60402934206D06B4BE1
:103D48009B8845F21032934240F0C780674B4FF48E
:103D5800A0721A80654B4FF4F0725A80BDE0634B35
:103D68009B8845F21052934214D1604B4FF4305265
:103D78001A815E4B4FF428525A815C4B4FF42C52F7
:103D88009A815A4B4FF4F0721A80584B4FF448728C
:103D98005A80A3E0554B9B8841F66312934211D198
:103DA800524B2C221A81514B2B225A814F4B2A22DB
:103DB8009A814E4B4FF4F0721A804C4B4FF4487274
:103DC8005A808BE0494B22221A81484B20225A8183
:103DD800464B21229A8181E0444B01229A71434B40
:103DE8004FF4A0721A80414BF0225A803F4B9B88B7
:103DF80049F24132934205D03C4B9B8845F2103240
:103E0800934209D1394B2C221A81384B2A225A81E4
:103E1800364B2B229A814BE0344B9B8846F60402A2
:103E2800934209D1314B2C221A81304B2B225A81D3
:103E38002E4B2A229A813BE02C4B9B8845F210524C
:103E4800934214D1294B4FF430521A81274B4FF427
:103E580028525A81254B4FF42C529A81234B4FF408
:103E680048721A80214B4FF4F0725A8020E01F4BA1
:103E78009B8841F66312934211D11C4B2C221A8164
:103E88001A4B2A225A81194B2B229A81174B4FF42D
:103E980048721A80154B4FF4F0725A8008E0134BA1
:103EA80022221A81114B21225A81104B20229A81F9
:103EB8000E4B9B8846F60402934205D00B4B9B8819
:103EC80045F21032934209D1084B4FF4F0721A8030
:103ED800064B4FF4A0725A8000E000BF0020FFF7A5
:103EE80045FB00BF0837BD4680BD00BF90020020DB
:103EF80080B586B000AF904B9B698F4A43F00803AA
:103F080093618D4B9B6903F008037B607B688A4B48
:103F18009B69894A43F010039361874B9B6903F0BF
:103F280010033B603B684FF4F863BB600123FB6000
:103F380001233B6103237B6107F1080319467F488E
:103F4800FDF7D6FA4FF6FF73BB6007F10803194671
:103F58007B48FDF7CDFA3220FDF79AF901210020C0
:103F6800FEF7F2FF3220FDF793F90020FFF716F86D
:103F780003461A46734B9A80724B9B88FE2B0BD9CB
:103F8800704B9B884FF6FF72934205D06D4B9B8810
:103F9800B3F5134F40F0C880D320FEF749FFFEF772
:103FA8008FFFFEF78DFFFEF78BFF03461A46654B22
:103FB8009A80644B9B881B029AB2624B9A80FEF7E8
:103FC8007FFF03461A465F4B9B8813439AB25D4BAB
:103FD8009A805C4B9B8849F24132934200F0A4805E
:103FE800BF20FEF725FFFEF76BFFFEF769FFFEF720
:103FF80067FFFEF765FF03461A46524B9A80514BFE
:104008009B881B029AB24F4B9A80FEF759FF0346D2
:104018001A464C4B9B8813439AB24A4B9A80494B99
:104028009B8846F6040293427ED0D420FEF700FF18
:10403800FEF746FFFEF744FFFEF742FF03461A4627
:10404800404B9A803F4B9B881B029AB23D4B9A800B
:10405800FEF736FF03461A463A4B9B8813439AB23B
:10406800384B9A80374B9B8845F2103293425BD08D
:104078004FF45A40FEF7DCFEFEF722FF4FF45B4098
:10408800FEF7D6FEFEF71CFF03461A462D4B9A8014
:104098002C4B9B881B029AB22A4B9A804FF45C40A7
:1040A800FEF7C6FEFEF70CFF03461A46254B9B8813
:1040B80013439AB2234B9A80224B9B88B3F5004F47
:1040C80003D1204B45F210529A801E4B9B8845F233
:1040D8001052934228D0A120FEF7AAFEFEF7F0FE68
:1040E80003461A46174B9A80FEF7EAFE03461A461D
:1040F800144B9A80134B9B881B029AB2114B9A80DF
:10410800FEF7DEFE03461A460E4B9B8813439AB20F
:104118000C4B9A800B4B9B8845F26172934203D1FA
:10412800084B41F663129A80064B9B8849F241324C
:10413800934240F01F8107E0001002400010014048
:10414800000C014090020020CF20FEF771FE0020F5
:10415800FEF792FEC120FEF78FFE3020FEF78CFEA0
:10416800ED20FEF765FE6420FEF786FE0320FEF7CD
:1041780083FE1220FEF780FE8120FEF77DFEE820F8
:10418800FEF756FE8520FEF777FE1020FEF774FE38
:104198007A20FEF771FECB20FEF74AFE3920FEF7A3
:1041A8006BFE2C20FEF768FE0020FEF765FE34202B
:1041B800FEF762FE0220FEF75FFEF720FEF738FEEC
:1041C8002020FEF759FEEA20FEF732FE0020FEF717
:1041D80053FE0020FEF750FEC020FEF729FE1B20EC
:1041E800FEF74AFEC120FEF723FE0120FEF744FE3B
:1041F800C520FEF71DFE3020FEF73EFE3020FEF7FC
:104208003BFEC720FEF714FEB720FEF735FE36202A
:10421800FEF70EFE4820FEF72FFE3A20FEF708FEB6
:104228005520FEF729FEB120FEF702FE0020FEF71A
:1042380023FE1A20FEF720FEB620FEF7F9FD0A201D
:10424800FEF71AFEA220FEF717FEF220FEF7F0FD99
:104258000020FEF711FE2620FEF7EAFD0120FEF7FA
:104268000BFEE020FEF7E4FD0F20FEF705FE2A20F6
:10427800FEF702FE2820FEF7FFFD0820FEF7FCFDF2
:104288000E20FEF7F9FD0820FEF7F6FD5420FEF794
:10429800F3FDA920FEF7F0FD4320FEF7EDFD0A200F
:1042A800FEF7EAFD0F20FEF7E7FD0020FEF7E4FD2C
:1042B8000020FEF7E1FD0020FEF7DEFD0020FEF7FE
:1042C800DBFDE120FEF7B4FD0020FEF7D5FD15204B
:1042D800FEF7D2FD1720FEF7CFFD0720FEF7CCFD35
:1042E8001120FEF7C9FD0620FEF7C6FD2B20FEF7BC
:1042F800C3FD5620FEF7C0FD3C20FEF7BDFD05209E
:10430800FEF7BAFD1020FEF7B7FD0F20FEF7B4FD4B
:104318003F20FEF7B1FD3F20FEF7AEFD0F20FEF770
:10432800ABFD2B20FEF784FD0020FEF7A5FD002045
:10433800FEF7A2FD0120FEF79FFD3F20FEF79CFD42
:104348002A20FEF775FD0020FEF796FD0020FEF7F7
:1043580093FD0020FEF790FDEF20FEF78DFD112064
:10436800FEF766FD7820FCF793FF2920FEF760FD35
:1043780003F0D8BC584B9B8846F60402934240F0A1
:10438800AD801120FEF754FD1420FCF781FFD020EA
:10439800FEF74EFD0720FEF76FFD4220FEF76CFD8D
:1043A8001D20FEF769FDD120FEF742FD0020FEF733
:1043B80063FD1A20FEF760FD0920FEF75DFDD2209F
:1043C800FEF736FD0120FEF757FD2220FEF754FDCB
:1043D800C020FEF72DFD1020FEF74EFD3B20FEF716
:1043E8004BFD0020FEF748FD0220FEF745FD112099
:1043F800FEF742FDC520FEF71BFD0320FEF73CFD3E
:10440800C820FEF715FD0020FEF736FD2520FEF733
:1044180033FD2120FEF730FD0520FEF72DFD00209D
:10442800FEF72AFD0A20FEF727FD6520FEF724FD8A
:104438002520FEF721FD7720FEF71EFD5020FEF710
:104448001BFD0F20FEF718FD0020FEF715FDF820D4
:10445800FEF7EEFC0120FEF70FFDFE20FEF7E8FC5C
:104468000020FEF709FD0220FEF706FD2020FEF7DA
:10447800DFFC3620FEF7DCFC0820FEF7FDFC3A20C6
:10448800FEF7D6FC5520FEF7F7FC2B20FEF7D0FCF4
:104498000020FEF7F1FC0020FEF7EEFC0120FEF7FD
:1044A800EBFC3F20FEF7E8FC2A20FEF7C1FC0020C9
:1044B800FEF7E2FC0020FEF7DFFC0120FEF7DCFC43
:1044C800DF20FEF7D9FC7820FCF7E2FE2920FEF772
:1044D800AFFC03F027BC00BF90020020034B9B8871
:1044E80045F21032934240F07C8701E090020020B0
:1044F800ED20FEF79DFC0120FEF7BEFCFE20FEF736
:10450800BBFCEE20FEF794FCDE20FEF7B5FC212074
:10451800FEF7B2FCF120FEF78BFC0120FEF7ACFCA5
:10452800DF20FEF785FC1020FEF7A6FCC420FEF76E
:104538007FFC8F20FEF7A0FCC620FEF779FC002048
:10454800FEF79AFCE220FEF797FCE220FEF794FCC7
:10455800E220FEF791FCBF20FEF76AFCAA20FEF7D6
:104568008BFCB020FEF764FC0D20FEF785FC0020D4
:10457800FEF782FC0D20FEF77FFC0020FEF77CFC96
:104588001120FEF779FC0020FEF776FC1920FEF7D3
:1045980073FC0020FEF770FC2120FEF76DFC002064
:1045A800FEF76AFC2D20FEF767FC0020FEF764FC8E
:1045B8003D20FEF761FC0020FEF75EFC5D20FEF763
:1045C8005BFC0020FEF758FC5D20FEF755FC002040
:1045D800FEF752FCB120FEF72BFC8020FEF74CFCC6
:1045E8000020FEF749FC8B20FEF746FC0020FEF772
:1045F80043FC9620FEF740FC0020FEF73DFCB2206D
:10460800FEF716FC0020FEF737FC0020FEF734FC0E
:104618000220FEF731FC0020FEF72EFC0320FEF7F7
:104628002BFC0020FEF728FCB320FEF701FC00203D
:10463800FEF722FC0020FEF71FFC0020FEF71CFC02
:104648000020FEF719FC0020FEF716FC0020FEF7FC
:1046580013FC0020FEF710FC0020FEF70DFC0020E4
:10466800FEF70AFC0020FEF707FC0020FEF704FC1A
:104678000020FEF701FC0020FEF7FEFB0020FEF7FD
:10468800FBFB0020FEF7F8FB0020FEF7F5FB0020FF
:10469800FEF7F2FB0020FEF7EFFB0020FEF7ECFB35
:1046A8000020FEF7E9FB0020FEF7E6FB0020FEF7FE
:1046B800E3FB0020FEF7E0FB0020FEF7DDFBB42063
:1046C800FEF7B6FB8B20FEF7D7FB0020FEF7D4FBE6
:1046D8009620FEF7D1FB0020FEF7CEFBA120FEF7C7
:1046E800CBFB0020FEF7C8FBB520FEF7A1FB02209C
:1046F800FEF7C2FB0020FEF7BFFB0320FEF7BCFB62
:104708000020FEF7B9FB0420FEF7B6FB0020FEF7F9
:10471800B3FBB620FEF78CFB0020FEF7ADFB0020B4
:10472800FEF7AAFBB720FEF783FB0020FEF7A4FBE9
:104738000020FEF7A1FB3F20FEF79EFB0020FEF7BE
:104748009BFB5E20FEF798FB0020FEF795FB64209C
:10475800FEF792FB0020FEF78FFB8C20FEF78CFB08
:104768000020FEF789FBAC20FEF786FB0020FEF751
:1047780083FBDC20FEF780FB0020FEF77DFB70202A
:10478800FEF77AFB0020FEF777FB9020FEF774FB1C
:104798000020FEF771FBEB20FEF76EFB0020FEF712
:1047A8006BFBDC20FEF768FB0020FEF765FBB820FA
:1047B800FEF73EFB0020FEF75FFB0020FEF75CFBE8
:1047C8000020FEF759FB0020FEF756FB0020FEF7FD
:1047D80053FB0020FEF750FB0020FEF74DFB0020A6
:1047E800FEF74AFBBA20FEF723FB2420FEF744FB22
:1047F8000020FEF741FB0020FEF73EFB0020FEF7FD
:104808003BFBC120FEF714FB2020FEF735FB002000
:10481800FEF732FB5420FEF72FFB0020FEF72CFB9F
:10482800FF20FEF729FB0020FEF726FBC220FEF73B
:10483800FFFA0A20FEF720FB0020FEF71DFB0420EC
:10484800FEF71AFB0020FEF717FBC320FEF7F0FA6D
:104858003C20FEF711FB0020FEF70EFB3A20FEF786
:104868000BFB0020FEF708FB3920FEF705FB0020B4
:10487800FEF702FB3720FEF7FFFA0020FEF7FCFAEE
:104888003C20FEF7F9FA0020FEF7F6FA3620FEF78C
:10489800F3FA0020FEF7F0FA3220FEF7EDFA0020D6
:1048A800FEF7EAFA2F20FEF7E7FA0020FEF7E4FA0F
:1048B8002C20FEF7E1FA0020FEF7DEFA2920FEF7A9
:1048C800DBFA0020FEF7D8FA2620FEF7D5FA0020FA
:1048D800FEF7D2FA2420FEF7CFFA0020FEF7CCFA32
:1048E8002420FEF7C9FA0020FEF7C6FA2320FEF7B7
:1048F800C3FA0020FEF7C0FA3C20FEF7BDFA0020FC
:10490800FEF7BAFA3620FEF7B7FA0020FEF7B4FA37
:104918003220FEF7B1FA0020FEF7AEFA2F20FEF79C
:10492800ABFA0020FEF7A8FA2C20FEF7A5FA002023
:10493800FEF7A2FA2920FEF79FFA0020FEF79CFA5C
:104948002620FEF799FA0020FEF796FA2420FEF7B3
:1049580093FA0020FEF790FA2420FEF78DFA002043
:10496800FEF78AFA2320FEF787FA0020FEF784FA7A
:10497800C420FEF75DFA6220FEF77EFA0020FEF7FB
:104988007BFA0520FEF778FA0020FEF775FA8420F6
:10499800FEF772FA0020FEF76FFAF020FEF76CFAC5
:1049A8000020FEF769FA1820FEF766FA0020FEF7E5
:1049B80063FAA420FEF760FA0020FEF75DFA1820DB
:1049C800FEF75AFA0020FEF757FA5020FEF754FA7D
:1049D8000020FEF751FA0C20FEF74EFA0020FEF7F1
:1049E8004BFA1720FEF748FA0020FEF745FA952003
:1049F800FEF742FA0020FEF73FFAF320FEF73CFAF2
:104A08000020FEF739FAE620FEF736FA0020FEF716
:104A180033FAC520FEF70CFA3220FEF72DFA0020F3
:104A2800FEF72AFA4420FEF727FA0020FEF724FAB8
:104A38006520FEF721FA0020FEF71EFA7620FEF721
:104A48001BFA0020FEF718FA8820FEF715FA002056
:104A5800FEF712FAC620FEF7EBF92020FEF70CFA53
:104A68000020FEF709FA1720FEF706FA0020FEF7E5
:104A780003FA0120FEF700FA0020FEF7FDF9C7202F
:104A8800FEF7D6F90020FEF7F7F90020FEF7F4F953
:104A98000020FEF7F1F90020FEF7EEF9C820FEF736
:104AA800C7F90020FEF7E8F90020FEF7E5F9002035
:104AB800FEF7E2F90020FEF7DFF9C920FEF7B8F9A2
:104AC8000020FEF7D9F90020FEF7D6F90020FEF7FE
:104AD800D3F90020FEF7D0F90020FEF7CDF9002029
:104AE800FEF7CAF90020FEF7C7F90020FEF7C4F95F
:104AF8000020FEF7C1F90020FEF7BEF90020FEF7FE
:104B0800BBF90020FEF7B8F90020FEF7B5F9002040
:104B1800FEF7B2F90020FEF7AFF90020FEF7ACF976
:104B2800E020FEF785F91620FEF7A6F90020FEF72B
:104B3800A3F91C20FEF7A0F90020FEF79DF921201B
:104B4800FEF79AF90020FEF797F93620FEF794F958
:104B58000020FEF791F94620FEF78EF90020FEF7B7
:104B68008BF95220FEF788F90020FEF785F96420BA
:104B7800FEF782F90020FEF77FF97A20FEF77CF92C
:104B88000020FEF779F98B20FEF776F90020FEF772
:104B980073F99920FEF770F90020FEF76DF9A82047
:104BA800FEF76AF90020FEF767F9B920FEF764F905
:104BB8000020FEF761F9C420FEF75EF90020FEF739
:104BC8005BF9CA20FEF758F90020FEF755F9D22004
:104BD800FEF752F90020FEF74FF9D920FEF74CF9FD
:104BE8000020FEF749F9E020FEF746F90020FEF71D
:104BF80043F9F320FEF740F90020FEF73DF9E120E4
:104C0800FEF716F91620FEF737F90020FEF734F9FB
:104C18001C20FEF731F90020FEF72EF92220FEF7BE
:104C28002BF90020FEF728F93620FEF725F9002099
:104C3800FEF722F94520FEF71FF90020FEF71CF9C0
:104C48005220FEF719F90020FEF716F96420FEF746
:104C580013F90020FEF710F97A20FEF70DF900206D
:104C6800FEF70AF98B20FEF707F90020FEF704F992
:104C78009920FEF701F90020FEF7FEF8A820FEF7BC
:104C8800FBF80020FEF7F8F8B920FEF7F5F8002049
:104C9800FEF7F2F8C420FEF7EFF80020FEF7ECF874
:104CA800CA20FEF7E9F80020FEF7E6F8D220FEF762
:104CB800E3F80020FEF7E0F8D820FEF7DDF8002042
:104CC800FEF7DAF8E020FEF7D7F80020FEF7D4F870
:104CD800F320FEF7D1F80020FEF7CEF8E220FEF729
:104CE800A7F80520FEF7C8F80020FEF7C5F80B2046
:104CF800FEF7C2F80020FEF7BFF81B20FEF7BCF84D
:104D08000020FEF7B9F83420FEF7B6F80020FEF7C9
:104D1800B3F84420FEF7B0F80020FEF7ADF84F20B6
:104D2800FEF7AAF80020FEF7A7F86120FEF7A4F81E
:104D38000020FEF7A1F87920FEF79EF80020FEF784
:104D48009BF88820FEF798F80020FEF795F8972042
:104D5800FEF792F80020FEF78FF8A620FEF78CF8F1
:104D68000020FEF789F8B720FEF786F80020FEF746
:104D780083F8C220FEF780F80020FEF77DF8C720F0
:104D8800FEF77AF80020FEF777F8D120FEF774F8DE
:104D98000020FEF771F8D620FEF76EF80020FEF727
:104DA8006BF8DD20FEF768F80020FEF765F8F320C1
:104DB800FEF762F80020FEF75FF8E320FEF738F808
:104DC8000520FEF759F80020FEF756F80A20FEF7EE
:104DD80053F80020FEF750F81C20FEF74DF800208D
:104DE800FEF74AF83320FEF747F80020FEF744F8AC
:104DF8004420FEF741F80020FEF73EF85020FEF769
:104E08003BF80020FEF738F86220FEF735F800205E
:104E1800FEF732F87820FEF72FF80020FEF72CF87E
:104E28008820FEF729F80020FEF726F89720FEF7DD
:104E380023F80020FEF720F8A620FEF71DF8002032
:104E4800FEF71AF8B720FEF717F80020FEF714F857
:104E5800C220FEF711F80020FEF70EF8C720FEF773
:104E68000BF80020FEF708F8D120FEF705F800201F
:104E7800FEF702F8D520FDF7FFFF0020FDF7FCFF45
:104E8800DD20FDF7F9FF0020FDF7F6FFF320FDF721
:104E9800F3FF0020FDF7F0FFE420FDF7C9FF012034
:104EA800FDF7EAFF0020FDF7E7FF0120FDF7E4FF2B
:104EB8000020FDF7E1FF0220FDF7DEFF0020FDF7EF
:104EC800DBFF2A20FDF7D8FF0020FDF7D5FF3C20A7
:104ED800FDF7D2FF0020FDF7CFFF4B20FDF7CCFFF9
:104EE8000020FDF7C9FF5D20FDF7C6FF0020FDF794
:104EF800C3FF7420FDF7C0FF0020FDF7BDFF84202D
:104F0800FDF7BAFF0020FDF7B7FF9320FDF7B4FFC8
:104F18000020FDF7B1FFA220FDF7AEFF0020FDF74E
:104F2800ABFFB320FDF7A8FF0020FDF7A5FFBE20CB
:104F3800FDF7A2FF0020FDF79FFFC420FDF79CFFAF
:104F48000020FDF799FFCD20FDF796FF0020FDF723
:104F580093FFD320FDF790FF0020FDF78DFFDD20A4
:104F6800FDF78AFF0020FDF787FFF320FDF784FF98
:104F78000020FDF781FFE520FDF75AFF0020FDF72F
:104F88007BFF0020FDF778FF0020FDF775FF00206C
:104F9800FDF772FF0220FDF76FFF0020FDF76CFFA1
:104FA8002920FDF769FF0020FDF766FF3C20FDF78B
:104FB80063FF0020FDF760FF4B20FDF75DFF002039
:104FC800FDF75AFF5D20FDF757FF0020FDF754FF5E
:104FD8007420FDF751FF0020FDF74EFF8420FDF7F8
:104FE8004BFF0020FDF748FF9320FDF745FF002009
:104FF800FDF742FFA220FDF73FFF0020FDF73CFF31
:10500800B320FDF739FF0020FDF736FFBE20FDF77E
:1050180033FF0020FDF730FFC420FDF72DFF0020EF
:10502800FDF72AFFCD20FDF727FF0020FDF724FF1D
:10503800D320FDF721FF0020FDF71EFFDC20FDF740
:105048001BFF0020FDF718FFF320FDF715FF0020D8
:10505800FDF712FFE620FDF7EBFE1120FDF70CFF30
:105068000020FDF709FF3420FDF706FF0020FDF7BB
:1050780003FF5620FDF700FF0020FDF7FDFE762018
:10508800FDF7FAFE0020FDF7F7FE7720FDF7F4FEA6
:105098000020FDF7F1FE6620FDF7EEFE0020FDF78B
:1050A800EBFE8820FDF7E8FE0020FDF7E5FE9920DD
:1050B800FDF7E2FE0020FDF7DFFEBB20FDF7DCFE7A
:1050C8000020FDF7D9FE9920FDF7D6FE0020FDF758
:1050D800D3FE6620FDF7D0FE0020FDF7CDFE55205B
:1050E800FDF7CAFE0020FDF7C7FE5520FDF7C4FEF8
:1050F8000020FDF7C1FE4520FDF7BEFE0020FDF7AC
:10510800BBFE4320FDF7B8FE0020FDF7B5FE4420A6
:10511800FDF7B2FE0020FDF7AFFEE720FDF788FEA1
:105128003220FDF7A9FE0020FDF7A6FE5520FDF769
:10513800A3FE0020FDF7A0FE7620FDF79DFE0020CF
:10514800FDF79AFE6620FDF797FE0020FDF794FE16
:105158006720FDF791FE0020FDF78EFE6720FDF722
:105168008BFE0020FDF788FE8720FDF785FE0020D6
:10517800FDF782FE9920FDF77FFE0020FDF77CFEFB
:10518800BB20FDF779FE0020FDF776FE9920FDF79C
:1051980073FE0020FDF770FE7720FDF76DFE0020FE
:1051A800FDF76AFE4420FDF767FE0020FDF764FE68
:1051B8005620FDF761FE0020FDF75EFE2320FDF777
:1051C8005BFE0020FDF758FE3320FDF755FE00205A
:1051D800FDF752FE4520FDF74FFE0020FDF74CFE7F
:1051E800E820FDF725FE0020FDF746FE0020FDF72C
:1051F80043FE9920FDF740FE0020FDF73DFE872085
:10520800FDF73AFE0020FDF737FE8820FDF734FE53
:105218000020FDF731FE7720FDF72EFE0020FDF778
:105228002BFE6620FDF728FE0020FDF725FE8820CE
:10523800FDF722FE0020FDF71FFEAA20FDF71CFE49
:105248000020FDF719FEBB20FDF716FE0020FDF734
:1052580013FE9920FDF710FE0020FDF70DFE6620D5
:10526800FDF70AFE0020FDF707FE5520FDF704FEB6
:105278000020FDF701FE5520FDF7FEFD0020FDF79B
:10528800FBFD4420FDF7F8FD0020FDF7F5FD442067
:10529800FDF7F2FD0020FDF7EFFD5520FDF7ECFDD1
:1052A8000020FDF7E9FDE920FDF7C2FDAA20FDF782
:1052B800E3FD0020FDF7E0FD0020FDF7DDFD002007
:1052C800FDF7DAFD0020FDF7B3FDAA20FDF7D4FDB8
:1052D800CF20FDF7ADFD0020FDF7CEFD0020FDF746
:1052E800CBFD0020FDF7C8FD0020FDF7C5FD00201F
:1052F800FDF7C2FD0020FDF7BFFD0020FDF7BCFD56
:105308000020FDF7B9FD0020FDF7B6FD0020FDF7F0
:10531800B3FD0020FDF7B0FD0020FDF7ADFD002036
:10532800FDF7AAFD0020FDF7A7FD0020FDF7A4FD6D
:105338000020FDF7A1FD0020FDF79EFDF020FDF700
:1053480077FD0020FDF798FD5020FDF795FD002022
:10535800FDF792FD0020FDF78FFD0020FDF78CFD85
:10536800F320FDF765FD0020FDF786FDF920FDF728
:105378005FFD0620FDF780FD1020FDF77DFD29204B
:10538800FDF77AFD0020FDF777FD3A20FDF750FD87
:105398005520FDF771FD1120FDF74AFD6420FBF74C
:1053A80077FF2920FDF744FD3520FDF741FD00205A
:1053B800FDF762FD5120FDF73BFDFF20FDF75CFD89
:1053C8005320FDF735FD2C20FDF756FD5520FDF740
:1053D8002FFD8220FDF750FD2C20FDF729FD02F05E
:1053E800A1BC044B9B8845F21052934240F082873F
:1053F80002E000BF9002002055214FF47040FDF7F5
:10540800A3FDAA214FF20100FDF79EFD52214FF2A4
:105418000200FDF799FD08214FF20300FDF794FD06
:1054280001214FF20400FDF78FFD0D214FF43040AC
:10543800FDF78AFD0D214BF20100FDF785FD0D21D9
:105448004BF20200FDF780FD34214FF43640FDF7A2
:105458007BFD34214BF20160FDF776FD34214BF2E0
:105468000260FDF771FD0D214FF43140FDF76CFD31
:105478000D214BF20110FDF767FD0D214BF20210D3
:10548800FDF762FD34214FF43740FDF75DFD34210F
:105498004BF20170FDF758FD34214BF20270FDF715
:1054A80053FD00214FF43240FDF74EFD00214BF231
:1054B8000120FDF749FD00214BF20220FDF744FDD4
:1054C80024214FF43840FDF73FFD24214BF601001D
:1054D800FDF73AFD24214BF60200FDF735FD0121C9
:1054E8004FF43F40FDF730FD0F214FF43340FDF7F7
:1054F8002BFD0F214BF20130FDF726FD0F214BF25A
:105508000230FDF721FD34214FF43940FDF71CFD31
:1055180034214BF60110FDF717FD34214BF602102C
:10552800FDF712FD08214FF43540FDF70DFD082168
:105538004BF20150FDF708FD08214BF20250FDF730
:1055480003FD03214FF44240FDF7FEFC24214FF4F4
:105558003A40FDF7F9FC24214BF60120FDF7F4FC55
:1055680024214BF60220FDF7EFFC00214FF43C40CC
:10557800FDF7EAFC78214BF60140FDF7E5FC002138
:105588004BF60240FDF7E0FC00214FF43D40FDF7EB
:10559800DBFC78214BF60150FDF7D6FC00214BF6D9
:1055A8000250FDF7D1FC00214FF43E40FDF7CCFC42
:1055B80064214BF60160FDF7C7FC00214FF4514010
:1055C800FDF7C2FC33214DF20110FDF7BDFC0021AF
:1055D8004DF20210FDF7B8FC34214DF20310FDF72F
:1055E800B3FC00214DF20410FDF7AEFC3A214DF258
:1055F8000510FDF7A9FC00214DF20610FDF7A4FCEB
:105608004A214DF20710FDF79FFC00214DF20810CA
:10561800FDF79AFC5C214DF20910FDF795FC00217D
:105628004DF20A10FDF790FC81214DF20B10FDF7A9
:105638008BFC00214DF20C10FDF786FCA6214DF2E3
:105648000D10FDF781FC00214DF20E10FDF77CFCDA
:10565800E5214DF20F10FDF777FC01214DF21010F6
:10566800FDF772FC13214DF21110FDF76DFC0121BD
:105678004DF21210FDF768FC54214DF21310FDF79E
:1056880063FC01214DF21410FDF75EFC82214DF2FE
:105698001510FDF759FC01214DF21610FDF754FCC9
:1056A800CA214DF21710FDF74FFC02214DF21810D8
:1056B800FDF74AFC00214DF21910FDF745FC0221C7
:1056C8004DF21A10FDF740FC01214DF21B10FDF7B9
:1056D8003BFC02214DF21C10FDF736FC34214DF243
:1056E8001D10FDF731FC02214DF21E10FDF72CFCB8
:1056F80067214DF21F10FDF727FC02214DF2201003
:10570800FDF722FC84214DF22110FDF71DFC02213A
:105718004DF22210FDF718FCA4214DF22310FDF7DD
:1057280013FC02214DF22410FDF70EFCB7214DF2B7
:105738002510FDF709FC02214DF22610FDF704FCA7
:10574800CF214DF22710FDF7FFFB02214DF2281063
:10575800FDF7FAFBDE214DF22910FDF7F5FB0221DA
:105768004DF22A10FDF7F0FBF2214DF22B10FDF758
:10577800EBFB02214DF22C10FDF7E6FBFE214DF26A
:105788002D10FDF7E1FB03214DF22E10FDF7DCFB98
:1057980010214DF22F10FDF7D7FB03214DF23010E9
:1057A800FDF7D2FB33214DF23110FDF7CDFB03217C
:1057B8004DF23210FDF7C8FB6D214DF23310FDF7A5
:1057C800C3FB00214FF45240FDF7BEFB33214DF2DD
:1057D8000120FDF7B9FB00214DF20220FDF7B4FBD3
:1057E80034214DF20320FDF7AFFB00214DF20420D8
:1057F800FDF7AAFB3A214DF20520FDF7A5FB002194
:105808004DF20620FDF7A0FB4A214DF20720FDF7D7
:105818009BFB00214DF20820FDF796FB5C214DF221
:105828000920FDF791FB00214DF20A20FDF78CFBC2
:1058380081214DF20B20FDF787FB00214DF20C2052
:10584800FDF782FBA6214DF20D20FDF77DFB00211F
:105858004DF20E20FDF778FBE5214DF20F20FDF704
:1058680073FB01214DF21020FDF76EFB13214DF261
:105878001120FDF769FB01214DF21220FDF764FBB1
:1058880054214DF21320FDF75FFB01214DF2142046
:10589800FDF75AFB82214DF21520FDF755FB01213A
:1058A8004DF21620FDF750FBCA214DF21720FDF7E7
:1058B8004BFB02214DF21820FDF746FB00214DF26B
:1058C8001920FDF741FB02214DF21A20FDF73CFBA0
:1058D80001214DF21B20FDF737FB02214DF21C2060
:1058E800FDF732FB34214DF21D20FDF72DFB02217F
:1058F8004DF21E20FDF728FB67214DF21F20FDF712
:1059080023FB02214DF22020FDF71EFB84214DF2DE
:105918002120FDF719FB02214DF22220FDF714FB8F
:10592800A4214DF22320FDF70FFB02214DF2242084
:10593800FDF70AFBB7214DF22520FDF705FB0221F3
:105948004DF22620FDF700FBCF214DF22720FDF771
:10595800FBFA02214DF22820FDF7F6FADE214DF27E
:105968002920FDF7F1FA02214DF22A20FDF7ECFA81
:10597800F2214DF22B20FDF7E7FA02214DF22C20FF
:10598800FDF7E2FAFE214DF22D20FDF7DDFA0321A5
:105998004DF22E20FDF7D8FA10214DF22F20FDF7F9
:1059A800D3FA03214DF23020FDF7CEFA33214DF220
:1059B8003120FDF7C9FA03214DF23220FDF7C4FA70
:1059C8006D214DF23320FDF7BFFA00214FF453400B
:1059D800FDF7BAFA33214DF20130FDF7B5FA00218F
:1059E8004DF20230FDF7B0FA34214DF20330FDF7E5
:1059F800ABFA00214DF20430FDF7A6FA3A214DF238
:105A08000530FDF7A1FA00214DF20630FDF79CFAAA
:105A18004A214DF20730FDF797FA00214DF2083080
:105A2800FDF792FA5C214DF20930FDF78DFA00215D
:105A38004DF20A30FDF788FA81214DF20B30FDF75F
:105A480083FA00214DF20C30FDF77EFAA6214DF2C3
:105A58000D30FDF779FA00214DF20E30FDF774FA9A
:105A6800E5214DF20F30FDF76FFA01214DF21030AC
:105A7800FDF76AFA13214DF21130FDF765FA01219D
:105A88004DF21230FDF760FA54214DF21330FDF754
:105A98005BFA01214DF21430FDF756FA82214DF2DE
:105AA8001530FDF751FA01214DF21630FDF74CFA89
:105AB800CA214DF21730FDF747FA02214DF218308E
:105AC800FDF742FA00214DF21930FDF73DFA0221A7
