:020000040800F2
:1000000000C00020C55C0008E95B0008F55B000843
:10001000FB5B0008015C0008075C000800000000B2
:100020000000000000000000000000000D5C00085F
:10003000195C000800000000255C0008315C000825
:100040000D5D00080D5D00080D5D00080D5D0008E8
:100050000D5D00080D5D00080D5D00080D5D0008D8
:100060000D5D00080D5D00080D5D00080D5D0008C8
:100070000D5D00080D5D00080D5D00080D5D0008B8
:100080000D5D00080D5D00080D5D00080D5D0008A8
:100090000D5D00080D5D00080D5D00083D5C000869
:1000A0000D5D00080D5D00080D5D00080D5D000888
:1000B0000D5D00080D5D00080D5D00080D5D000878
:1000C0000D5D00080D5D00080D5D00080D5D000868
:1000D0000D5D00080D5D00080D5D00080D5D000858
:1000E0004B5C00080D5D00080D5D00080D5D00080B
:1000F0000D5D00080D5D00080D5D00080D5D000838
:100100000D5D00080D5D00080D5D00080D5D000827
:100110000D5D00080D5D00080D5D00080D5D000817
:100120000D5D00080D5D00080D5D00080D5D000807
:1001300000000000000000000000000000000000BF
:1001400000000000000000000000000000000000AF
:10015000000000000000000000000000000000009F
:10016000000000000000000000000000000000008F
:10017000000000000000000000000000000000007F
:10018000000000000000000000000000000000006F
:10019000000000000000000000000000000000005F
:1001A000000000000000000000000000000000004F
:1001B000000000000000000000000000000000003F
:1001C000000000000000000000000000000000002F
:1001D000000000000000000000000000000000001F
:0401E0005FF8E0F1F3
:1001E80010B5054C237833B9044B13B10448AFF369
:1001F80000800123237010BD0C00002000000000C7
:10020800A86B000808B5034B1BB103490348AFF3BB
:10021800008008BD0000000010000020A86B000846
:1002280081F0004102E000BF83F0004330B54FEA9F
:1002380041044FEA430594EA050F08BF90EA020F0C
:100248001FBF54EA000C55EA020C7FEA645C7FEA9F
:10025800655C00F0E2804FEA5454D4EB5555B8BFC2
:100268006D420CDD2C4480EA020281EA030382EA33
:10027800000083EA010180EA020281EA0303362DC5
:1002880088BF30BD11F0004F4FEA01314FF4801C98
:100298004CEA113102D0404261EB410113F0004FAA
:1002A8004FEA03334CEA133302D0524263EB430361
:1002B80094EA050F00F0A780A4F10104D5F1200EFF
:1002C8000DDB02FA0EFC22FA05F2801841F100015A
:1002D80003FA0EF2801843FA05F359410EE0A5F12E
:1002E80020050EF1200E012A03FA0EFC28BF4CF05F
:1002F800020C43FA05F3C01851EBE37101F0004515
:1003080007D54FF0000EDCF1000C7EEB00006EEB21
:100318000101B1F5801F1BD3B1F5001F0CD34908AB
:100328005FEA30004FEA3C0C04F101044FEA445202
:1003380012F5800F80F09A80BCF1004F08BF5FEA89
:10034800500C50F1000041EB045141EA050130BD69
:100358005FEA4C0C404141EB010111F4801FA4F10C
:100368000104E9D191F0000F04BF01460020B1FA61
:1003780081F308BF2033A3F10B03B3F120020CDA99
:100388000C3208DD02F1140CC2F10C0201FA0CF077
:1003980021FA02F10CE002F11402D8BFC2F1200CDC
:1003A80001FA02F120FA0CFCDCBF41EA0C01904092
:1003B800E41AA2BF01EB0451294330BD6FEA0404DB
:1003C8001F3C1CDA0C340EDC04F11404C4F12002C6
:1003D80020FA04F001FA02F340EA030021FA04F3D8
:1003E80045EA030130BDC4F10C04C4F1200220FA2F
:1003F80002F001FA04F340EA0300294630BD21FA6D
:1004080004F0294630BD94F0000F83F4801306BF32
:1004180081F480110134013D4EE77FEA645C18BF26
:100428007FEA655C29D094EA050F08BF90EA020FBD
:1004380005D054EA000C04BF1946104630BD91EAB5
:10044800030F1EBF0021002030BD5FEA545C05D1B8
:100458004000494128BF41F0004130BD14F58004F7
:100468003CBF01F5801130BD01F0004545F0FE416B
:1004780041F470014FF0000030BD7FEA645C1ABFA0
:10048800194610467FEA655C1CBF0B46024650EAD7
:10049800013406BF52EA033591EA030F41F4002103
:1004A80030BD00BF90F0000F04BF0021704730B589
:1004B8004FF4806404F132044FF000054FF000015E
:1004C80050E700BF90F0000F04BF0021704730B51F
:1004D8004FF4806404F1320410F0004548BF4042F4
:1004E8004FF000013EE700BF42004FEAE2014FEA49
:1004F80031014FEA02701FBF12F07F4393F07F4F24
:1005080081F06051704732F07F4208BF704793F026
:100518007F4F04BF41F40021704730B54FF4607439
:1005280001F0004521F000411CE700BF50EA01023C
:1005380008BF704730B54FF000050AE050EA0102E5
:1005480008BF704730B511F0004502D5404261EB55
:1005580041014FF4806404F132045FEA915C3FF496
:10056800D8AE4FF003025FEADC0C18BF03325FEA33
:10057800DC0C18BF033202EBDC02C2F1200300FAE4
:1005880003FC20FA02F001FA03FE40EA0E0021FA09
:1005980002F11444BDE600BF70B54FF0FF0C4CF4F7
:1005A800E06C1CEA11541DBF1CEA135594EA0C0FA9
:1005B80095EA0C0F00F0DEF82C4481EA030621EAE4
:1005C8004C5123EA4C5350EA013518BF52EA03351F
:1005D80041F4801143F4801338D0A0FB02CE4FF0D1
:1005E8000005E1FB02E506F00042E0FB03E54FF001
:1005F8000006E1FB03569CF0000F18BF4EF0010EF9
:10060800A4F1FF04B6F5007F64F5407404D25FEAF4
:100618004E0E6D4146EB060642EAC62141EA5551A7
:100628004FEAC52040EA5E504FEACE2EB4F1FD0CE9
:1006380088BFBCF5E06F1ED8BEF1004F08BF5FEA67
:10064800500E50F1000041EB045170BD06F0004619
:1006580046EA010140EA020081EA0301B4EB5C04C6
:10066800C2BFD4EB0C0541EA045170BD41F48011BE
:100678004FF0000E013C00F3AB8014F1360FDEBFE3
:10068800002001F0004170BDC4F10004203C35DABF
:100698000C341BDC04F11404C4F1200500FA05F342
:1006A80020FA04F001FA05F240EA020001F00042E3
:1006B80021F0004110EBD37021FA04F642EB060159
:1006C8005EEA430E08BF20EAD37070BDC4F10C0483
:1006D800C4F1200500FA04F320FA05F001FA04F247
:1006E80040EA020001F0004110EBD37041F1000133
:1006F8005EEA430E08BF20EAD37070BDC4F120053E
:1007080000FA05F24EEA020E20FA04F301FA05F2A5
:1007180043EA020321FA04F001F0004121FA04F24D
:1007280020EA020000EBD3705EEA430E08BF20EA1D
:10073800D37070BD94F0000F0FD101F00046400057
:1007480041EB010111F4801F08BF013CF7D041EAD9
:10075800060195F0000F18BF704703F000465200DD
:1007680043EB030313F4801F08BF013DF7D043EAAE
:100778000603704794EA0C0F0CEA135518BF95EA64
:100788000C0F0CD050EA410618BF52EA4306D1D1EB
:1007980081EA030101F000414FF0000070BD50EA0A
:1007A800410606BF1046194652EA430619D094EA94
:1007B8000C0F02D150EA013613D195EA0C0F05D17E
:1007C80052EA03361CBF104619460AD181EA0301D2
:1007D80001F0004141F0FE4141F470014FF000008A
:1007E80070BD41F0FE4141F4780170BD70B54FF025
:1007F800FF0C4CF4E06C1CEA11541DBF1CEA1355A5
:1008080094EA0C0F95EA0C0F00F0A7F8A4EB050486
:1008180081EA030E52EA03354FEA013100F088807D
:100828004FEA03334FF0805545EA131343EA126346
:100838004FEA022245EA111545EA10654FEA0026FB
:100848000EF000419D4208BF964244F1FD0404F5B4
:10085800407402D25B084FEA3202B61A65EB030510
:100868005B084FEA32024FF480104FF4002CB6EBCD
:10087800020E75EB030E22BFB61A754640EA0C004D
:100888005B084FEA3202B6EB020E75EB030E22BF8D
:10089800B61A754640EA5C005B084FEA3202B6EBCE
:1008A800020E75EB030E22BFB61A754640EA9C008D
:1008B8005B084FEA3202B6EB020E75EB030E22BF5D
:1008C800B61A754640EADC0055EA060E18D04FEA1B
:1008D800051545EA16754FEA06164FEAC30343EABB
:1008E80052734FEAC2025FEA1C1CC0D111F4801F88
:1008F8000BD141EA00014FF000004FF0004CB6E781
:1009080011F4801F04BF01430020B4F1FD0C88BF1F
:10091800BCF5E06F3FF6AFAEB5EB030C04BFB6EB2A
:10092800020C5FEA500C50F1000041EB045170BD1D
:100938000EF0004E4EEA113114EB5C04C2BFD4EB4A
:100948000C0541EA045170BD41F480114FF0000ECE
:10095800013C90E645EA060E8DE60CEA135594EA4A
:100968000C0F08BF95EA0C0F3FF43BAF94EA0C0F4D
:100978000AD150EA01347FF434AF95EA0C0F7FF4C2
:1009880025AF104619462CE795EA0C0F06D152EA16
:1009980003353FF4FDAE1046194622E750EA4106FA
:1009A80018BF52EA43067FF4C5AE50EA41047FF40B
:1009B8000DAF52EA43057FF4EBAE12E74A0011D2BD
:1009C80012F5001211D20DD56FF47873B3EB6252A1
:1009D8000ED44FEAC12343F0004343EA505323FAAD
:1009E80002F070474FF00000704750EA013002D122
:1009F8004FF0FF3070474FF00000704780B588B067
:100A080000AF07F1100300221A605A609A60DA609A
:100A1800324B9B69314A43F0200393612F4B9B690A
:100A280003F02003FB60FB682C4B9B692B4A43F0C7
:100A380010039361294B9B6903F01003BB60BB68EB
:100A4800264B9B69254A43F004039361234B9B691A
:100A580003F004037B607B6800224FF48071204818
:100A680005F04EFC20233B611E4B7B610123BB61DB
:100A780007F1100319461C4805F0D8FA4FF48073A3
:100A88003B6101237B610023BB610223FB6107F10A
:100A980010031946124805F0C9FA4FF400433B61A8
:100AA800104B7B610123BB6107F1100319460C4809
:100AB80005F0BCFA01220121172005F080FA172061
:100AC80005F099FA02220121282005F078FA282059
:100AD80005F091FA00BF2037BD4680BD00100240E6
:100AE80000080140000021100010014080B483B0CC
:100AF80000AF0346FB800D4B4FF480725A610B4BDD
:100B08004FF400725A610A4AFB88D360074B80226F
:100B18005A61064B80221A61044B4FF400721A6125
:100B280000BF0C37BD4680BC704700BF00100140B5
:100B3800000C014080B483B000AF0346FB800D4B2E
:100B48004FF480721A610B4B4FF400725A610A4AD3
:100B5800FB88D360074B80225A61064B80221A61BA
:100B6800044B4FF400721A6100BF0C37BD4680BCBD
:100B7800704700BF00100140000C014080B582B0F2
:100B880000AF1D4B4FF088321A601B4B4FF0883274
:100B98005A60194B0022DA60184B4FF480721A61C0
:100BA800164B4FF400725A61144B40225A61144B91
:100BB8009B8848F68912934202D1012005F006F974
:100BC8000D4B9B68FB800D4B40221A610B4B4FF479
:100BD80000721A61084B4FF033321A60064B4FF01F
:100BE80033325A60044B4FF6FF72DA60FB881846BE
:100BF8000837BD4680BD00BF000C01400010014011
:100C08002800002080B582B000AF03460A46FB806A
:100C18001346BB80FB881846FFF768FF0C4B4FF460
:100C280080721A610A4B4FF400725A61094ABB88F4
:100C3800D360074B80225A61054B80221A61044B0E
:100C48004FF400721A6100BF0837BD4680BD00BF6F
:100C580000100140000C014080B582B000AF03468F
:100C6800FB80FB881846FFF741FFFFF787FF034625
:100C780018460837BD4680BD80B500AF034B1B89B9
:100C88001846FFF733FF00BF80BD00BF28000020D3
:100C980080B582B000AF03460A46FB801346BB808E
:100CA800734B9B8849F24132934205D0704B9B8825
:100CB80045F21032934264D16D4B5B891846FFF7B9
:100CC80015FF6C4B4FF480721A616A4B4FF4007237
:100CD8005A61FB881B0A9AB2674BDA60654B80221F
:100CE8005A61644B80221A61624B4FF400721A6198
:100CF800604B4FF480721A615E4B4FF400725A6178
:100D0800FB885D4ADBB2D3605A4B80225A61594B4B
:100D180080221A61574B4FF400721A61544B9B8919
:100D28001846FFF7E3FE534B4FF480721A61514B9C
:100D38004FF400725A61BB881B0A9AB24E4BDA60B4
:100D48004C4B80225A614B4B80221A61494B4FF41D
:100D580000721A61474B4FF480721A61454B4FF489
:100D680000725A61BB88444ADBB2D360414B80228F
:100D78005A61404B80221A613E4B4FF400721A614F
:100D880048E23B4B9B8846F60402934276D1384BA7
:100D98009B79012B06D1364B1A88FB88D31A9BB254
:100DA800013BFB80324B5B891846FFF79FFE314BB6
:100DB8004FF480721A612F4B4FF400725A61FB880E
:100DC8001B0A9AB22C4BDA602A4B80225A61294BB3
:100DD80080221A61274B4FF400721A61254B4FF499
:100DE80080721A61234B4FF400725A61FB88224AC1
:100DF800DBB2D3601F4B80225A611E4B80221A61DE
:100E08001C4B4FF400721A61194B9B891846FFF767
:100E18006DFE184B4FF480721A61164B4FF4007236
:100E28005A61BB881B0A9AB2134BDA60114B8022B5
:100E38005A61104B80221A610E4B4FF400721A61EE
:100E48000C4B4FF480721A610A4B4FF400725A61CE
:100E5800BB88094ADBB2D360064B80225A61054B36
:100E680080221A61034B4FF400721A61D2E100BF6D
:100E78002800002000100140000C0140994B9B887D
:100E880041F66312934240F03381964B9B79002BD5
:100E980063D1944B1A88FB88D31A9BB2013BFB8021
:100EA800904B5B891846FFF721FE8F4B4FF48072F9
:100EB8001A618D4B4FF400725A618C4B0022DA6034
:100EC800894B80225A61884B80221A61864B4FF4E5
:100ED80000721A61844B4FF480721A61824B4FF48E
:100EE80000725A61814B0022DA607F4B80225A617E
:100EF8007D4B80221A617C4B4FF400721A617A4B49
:100F08004FF480721A61784B4FF400725A61FB8873
:100F18001B0A9AB2754BDA60734B80225A61724B86
:100F280080221A61704B4FF400721A616E4B4FF4B5
:100F380080721A616C4B4FF400725A61FB886B4ADD
:100F4800DBB2D360684B80225A61674B80221A61FA
:100F5800654B4FF400721A6161E0624B5B89184679
:100F6800FFF7C4FD604B4FF480721A615E4B4FF47B
:100F780000725A61FB881B0A9AB25C4BDA605A4BC2
:100F880080225A61584B80221A61574B4FF40072E5
:100F98001A61554B4FF480721A61534B4FF400722B
:100FA8005A61FB88514ADBB2D3604F4B80225A61A9
:100FB8004D4B80221A614C4B4FF400721A614A4B18
:100FC8004FF480721A61484B4FF400725A61454BD6
:100FD8001B88013B1A12454BDA60434B80225A6149
:100FE800414B80221A61404B4FF400721A613E4B0C
:100FF8004FF480721A613C4B4FF400725A61394BBE
:101008001B88013B394ADBB2D360374B80225A61D7
:10101800354B80221A61344B4FF400721A61314B00
:101028009B891846FFF762FD2F4B4FF480721A61B7
:101038002D4B4FF400725A61BB881B0A9AB22B4B96
:10104800DA60294B80225A61274B80221A61264B8D
:101058004FF400721A61244B4FF480721A61224BCC
:101068004FF400725A61BB88204ADBB2D3601E4B32
:1010780080225A611C4B80221A611B4B4FF400726C
:101088001A61194B4FF480721A61174B4FF40072B2
:101098005A61144B5B88013B1A12144BDA60124BED
:1010A80080225A61104B80221A610F4B4FF4007254
:1010B8001A610D4B4FF480721A610B4B4FF400729A
:1010C8005A61084B5B88013B084ADBB2D360064B88
:1010D80080225A61044B80221A61034B4FF400723C
:1010E8001A6197E02800002000100140000C014020
:1010F8004A4B9B8845F21052934272D1474B5B8909
:101108001846FFF7F3FC464B4FF480721A61444BC4
:101118004FF400725A61FB881B0A9AB2414BDA609D
:101128003F4B80225A613E4B80221A613C4B4FF460
:1011380000721A61394B5B8901339BB21846FFF77D
:10114800D5FC374B4FF480721A61354B4FF400725F
:101158005A61FB88334ADBB2D360314B80225A6133
:101168002F4B80221A612E4B4FF400721A612B4BC1
:101178009B891846FFF7BAFC294B4FF480721A6115
:10118800274B4FF400725A61BB881B0A9AB2254B51
:10119800DA60234B80225A61214B80221A61204B4E
:1011A8004FF400721A611D4B9B8901339BB218469C
:1011B800FFF79CFC1A4B4FF480721A61184B4FF4DE
:1011C80000725A61BB88174ADBB2D360144B802285
:1011D8005A61134B80221A61114B4FF400721A6145
:1011E80018E00E4B9B79012B06D10C4B1A88FB8813
:1011F800D31A9BB2013BFB80084B5B89FA881146E6
:101208001846FFF7FFFC054B9B89BA88114618461C
:10121800FFF7F8FC00BF0837BD4680BD2800002056
:1012280000100140000C014080B584B000AF0346B7
:10123800FB710023FB810023BB81784B9B79012B39
:101248000BD1764B9B8846F60402934205D0734B2C
:101258009B8841F66312934209D1704B9B79002B0E
:1012680034D16E4B9B8841F6631293422ED1FB79A1
:10127800072B2BD801A252F823F000BFA5120008B3
:10128800AB120008B1120008B7120008BD1200081E
:10129800C3120008C9120008CF1200080623FB7108
:1012A80014E00723FB7111E00423FB710EE0052312
:1012B800FB710BE00123FB7108E00023FB7105E0E3
:1012C8000323FB7102E00223FB7100BF534B9B8891
:1012D80049F24132934218D0504B9B8846F604029B
:1012E800934212D04D4B9B8845F2103293420CD05A
:1012F8004A4B9B8845F21052934206D0474B9B8835
:1013080041F66312934240F05082FB79072B36D89E
:1013180001A252F823F000BF871300084113000808
:101328004B130008551300085F13000869130008E1
:10133800731300087D130008FB8943F08003FB81C9
:101348001DE0FB8943F04003FB8118E0FB8943F073
:10135800C003FB8113E0FB8943F02003FB810EE00F
:10136800FB8943F06003FB8109E0FB8943F0A0039C
:10137800FB8104E0FB8943F0E003FB8100BF274BBE
:101388009B8845F21052934203D14FF45853BB81C6
:1013980001E03623BB81214B9B8845F210329342F2
:1013A8000FD01E4B9B8845F21052934209D01B4B1D
:1013B8009B8841F66312934203D0FB8943F00803EC
:1013C800FB81164B9B8846F60402934203D1FB89A6
:1013D80043F00203FB81FA89BB8911461846FFF7DF
:1013E80011FC0E4B9B8841F66312934228D0FB896F
:1013F80003F02003002B13D0084B1A88074B5B8897
:101408009A421DD2054B1B887B81044B5A88034B9B
:101418001A80024A7B89538012E000BF280000200E
:101428007F4B1A887E4B5B889A4209D97C4B1B8874
:101438007B817B4B5A887A4B1A80794A7B89538007
:10144800774B9B8845F21052934240F0EF80744BE3
:101458005B891846FFF74AFB724B4FF480721A619A
:10146800704B4FF400725A616F4B0022DA606D4B7B
:1014780080225A616B4B80221A616A4B4FF40072CA
:101488001A61674B5B8901339BB21846FFF72EFB45
:10149800644B4FF480721A61624B4FF400725A61C8
:1014A800614B0022DA605F4B80225A615D4B8022DB
:1014B8001A615C4B4FF400721A61594B5B89023315
:1014C8009BB21846FFF712FB564B4FF480721A6115
:1014D800544B4FF400725A61514B1B88013B1A124E
:1014E800514BDA604F4B80225A614E4B80221A6171
:1014F8004C4B4FF400721A61494B5B8903339BB222
:101508001846FFF7F3FA474B4FF480721A61454BC0
:101518004FF400725A61424B1B88013B424ADBB2CE
:10152800D360404B80225A613E4B80221A613D4B6A
:101538004FF400721A613A4B9B891846FFF7D6FAA6
:10154800384B4FF480721A61364B4FF400725A616F
:10155800354B0022DA60334B80225A61314B8022AE
:101568001A61304B4FF400721A612D4B9B8901337D
:101578009BB21846FFF7BAFA2A4B4FF480721A61E9
:10158800284B4FF400725A61274B0022DA60254B32
:1015980080225A61234B80221A61224B4FF4007239
:1015A8001A611F4B9B8902339BB21846FFF79EFABC
:1015B8001C4B4FF480721A611A4B4FF400725A6137
:1015C800174B5B88013B1A12174BDA60154B8022C8
:1015D8005A61144B80221A61124B4FF400721A613F
:1015E8000F4B9B8903339BB21846FFF77FFA0D4BCD
:1015F8004FF480721A610B4B4FF400725A61084B1A
:101608005B88013B084ADBB2D360064B80225A61F3
:10161800044B80221A61034B4FF400721A610AE1ED
:101628002800002000100140000C0140844B5B8919
:101638001846FFF75BFA834B4FF480721A61814BAF
:101648004FF400725A61804B0022DA607D4B802291
:101658005A617C4B80221A617A4B4FF400721A61EE
:10166800784B4FF480721A61764B4FF400725A61CE
:10167800754B0022DA60734B80225A61714B8022CD
:101688001A61704B4FF400721A616E4B4FF48072FE
:101698001A616C4B4FF400725A61694B1B88013B0D
:1016A8001A12694BDA60674B80225A61654B8022B7
:1016B8001A61644B4FF400721A61624B4FF48072E6
:1016C8001A61604B4FF400725A615D4B1B88013BF5
:1016D8005D4ADBB2D3605B4B80225A61594B802252
:1016E8001A61584B4FF400721A61554B9B89184682
:1016F800FFF7FCF9534B4FF480721A61514B4FF4CA
:1017080000725A61504B0022DA604E4B80225A61B7
:101718004C4B80221A614B4B4FF400721A61494BB3
:101728004FF480721A61474B4FF400725A61464B6E
:101738000022DA60434B80225A61424B80221A61B0
:10174800404B4FF400721A613E4B4FF480721A619D
:101758003C4B4FF400725A61394B5B88013B1A12BB
:10176800394BDA60374B80225A61364B80221A6136
:10177800344B4FF400721A61324B4FF480721A6185
:10178800304B4FF400725A612D4B5B88013B2E4A57
:10179800DBB2D3602B4B80225A612A4B80221A611C
:1017A800284B4FF400721A6145E0FB79072B36D8B5
:1017B80001A252F823F000BFE1170008EB17000858
:1017C800F517000827180008FF170008091800086F
:1017D800131800081D180008FB8943F03003FB812B
:1017E8001DE0FB8943F01003FB8118E0FB8943F0FF
:1017F8002003FB8113E0FB8943F03803FB810EE0F3
:10180800FB8943F02803FB8109E0FB8943F01803B7
:10181800FB8104E0FB8943F00803FB8100BF03233D
:10182800BB81FB8943F48053FB81FA89BB8911464C
:101838001846FFF7E7F900BF1037BD4680BD00BF67
:101848002800002000100140000C014000000000AA
:1018580090B583B000AF0346FB71BE20FFF746F991
:101868004B4B4FF480721A61494B4FF400725A6126
:10187800484B0522DA60464B80225A61444B80224D
:101888001A61434B4FF400721A61414B4FF4807256
:101898001A613F4B4FF400725A61FB791846FEF704
:1018A80011FE39A3D3E90023FEF776FE03460C4662
:1018B8001A462346374C10461946FFF77FF8034669
:1018C800E360334B80225A61314B80221A61304BDE
:1018D8004FF400721A612E4B4FF480721A612C4B30
:1018E8004FF400725A612B4B0122DA60284B802298
:1018F8005A61274B80221A61254B4FF400721A61F6
:10190800234B4FF480721A61214B4FF400725A61D5
:10191800204BFF22DA601E4B80225A611C4B80222A
:101928001A611B4B4FF400721A61194B4FF4807205
:101938001A61174B4FF400725A61164B0022DA6095
:10194800134B80225A61124B80221A61104B4FF4BC
:1019580000721A610E4B4FF480721A610C4B4FF4EF
:1019680000725A610B4B0022DA60094B80225A61DF
:10197800074B80221A61064B4FF400721A6100BFB0
:101988000C37BD4690BD00BF666666666666044055
:1019980000100140000C014080B582B000AF034642
:1019A800FB71FB79002B77D1804B00229A717F4B1A
:1019B800F0221A807D4B4FF4A0725A807B4B9B8893
:1019C80049F2413293420BD0784B9B8846F6040289
:1019D800934205D0754B9B8845F2103293421ED135
:1019E800724B2C221A81714B2A225A816F4B2B225F
:1019F8009A816E4B9B8846F60402934206D06B4B45
:101A08009B8845F21032934240F0C780674B4FF4F1
:101A1800A0721A80654B4FF4F0725A80BDE0634B98
:101A28009B8845F21052934214D1604B4FF43052C8
:101A38001A815E4B4FF428525A815C4B4FF42C525A
:101A48009A815A4B4FF4F0721A80584B4FF44872EF
:101A58005A80A3E0554B9B8841F66312934211D1FB
:101A6800524B2C221A81514B2B225A814F4B2A223E
:101A78009A814E4B4FF4F0721A804C4B4FF44872D7
:101A88005A808BE0494B22221A81484B20225A81E6
:101A9800464B21229A8181E0444B01229A71434BA3
:101AA8004FF4A0721A80414BF0225A803F4B9B881A
:101AB80049F24132934205D03C4B9B8845F21032A3
:101AC800934209D1394B2C221A81384B2A225A8148
:101AD800364B2B229A814BE0344B9B8846F6040206
:101AE800934209D1314B2C221A81304B2B225A8137
:101AF8002E4B2A229A813BE02C4B9B8845F21052B0
:101B0800934214D1294B4FF430521A81274B4FF48A
:101B180028525A81254B4FF42C529A81234B4FF46B
:101B280048721A80214B4FF4F0725A8020E01F4B04
:101B38009B8841F66312934211D11C4B2C221A81C7
:101B48001A4B2A225A81194B2B229A81174B4FF490
:101B580048721A80154B4FF4F0725A8008E0134B04
:101B680022221A81114B21225A81104B20229A815C
:101B78000E4B9B8846F60402934205D00B4B9B887C
:101B880045F21032934209D1084B4FF4F0721A8093
:101B9800064B4FF4A0725A8000E000BF0020FFF708
:101BA80043FB00BF0837BD4680BD00BF28000020AA
:101BB80080B586B000AF904B9B698F4A43F008030D
:101BC80093618D4B9B6903F008037B607B688A4BAC
:101BD8009B69894A43F010039361874B9B6903F023
:101BE80010033B603B684FF4F863BB600123FB6064
:101BF80001233B6103237B6107F1080319467F48F2
:101C080004F014FA4FF6FF73BB6007F10803194696
:101C18007B4804F00BFA322004F0D8F801210020A8
:101C2800FEF7F0FF322004F0D1F80020FFF714F897
:101C380003461A46734B9A80724B9B88FE2B0BD92E
:101C4800704B9B884FF6FF72934205D06D4B9B8873
:101C5800B3F5134F40F0C880D320FEF747FFFEF7D7
:101C68008DFFFEF78BFFFEF789FF03461A46654B8B
:101C78009A80644B9B881B029AB2624B9A80FEF74B
:101C88007DFF03461A465F4B9B8813439AB25D4B10
:101C98009A805C4B9B8849F24132934200F0A480C1
:101CA800BF20FEF723FFFEF769FFFEF767FFFEF789
:101CB80065FFFEF763FF03461A46524B9A80514B65
:101CC8009B881B029AB24F4B9A80FEF757FF034638
:101CD8001A464C4B9B8813439AB24A4B9A80494BFD
:101CE8009B8846F6040293427ED0D420FEF7FEFE7F
:101CF800FEF744FFFEF742FFFEF740FF03461A4691
:101D0800404B9A803F4B9B881B029AB23D4B9A806E
:101D1800FEF734FF03461A463A4B9B8813439AB2A0
:101D2800384B9A80374B9B8845F2103293425BD0F0
:101D38004FF45A40FEF7DAFEFEF720FF4FF45B40FF
:101D4800FEF7D4FEFEF71AFF03461A462D4B9A807B
:101D58002C4B9B881B029AB22A4B9A804FF45C400A
:101D6800FEF7C4FEFEF70AFF03461A46254B9B887A
:101D780013439AB2234B9A80224B9B88B3F5004FAA
:101D880003D1204B45F210529A801E4B9B8845F296
:101D98001052934228D0A120FEF7A8FEFEF7EEFECF
:101DA80003461A46174B9A80FEF7E8FE03461A4682
:101DB800144B9A80134B9B881B029AB2114B9A8042
:101DC800FEF7DCFE03461A460E4B9B8813439AB275
:101DD8000C4B9A800B4B9B8845F26172934203D15E
:101DE800084B41F663129A80064B9B8849F24132B0
:101DF800934240F01F8107E00010024000100140AC
:101E0800000C014028000020CF20FEF76FFE0020C4
:101E1800FEF790FEC120FEF78DFE3020FEF78AFE09
:101E2800ED20FEF763FE6420FEF784FE0320FEF734
:101E380081FE1220FEF77EFE8120FEF77BFEE82061
:101E4800FEF754FE8520FEF775FE1020FEF772FEA1
:101E58007A20FEF76FFECB20FEF748FE3920FEF70A
:101E680069FE2C20FEF766FE0020FEF763FE342094
:101E7800FEF760FE0220FEF75DFEF720FEF736FE55
:101E88002020FEF757FEEA20FEF730FE0020FEF77E
:101E980051FE0020FEF74EFEC020FEF727FE1B2055
:101EA800FEF748FEC120FEF721FE0120FEF742FEA4
:101EB800C520FEF71BFE3020FEF73CFE3020FEF763
:101EC80039FEC720FEF712FEB720FEF733FE362094
:101ED800FEF70CFE4820FEF72DFE3A20FEF706FE20
:101EE8005520FEF727FEB120FEF700FE0020FEF782
:101EF80021FE1A20FEF71EFEB620FEF7F7FD0A2087
:101F0800FEF718FEA220FEF715FEF220FEF7EEFD02
:101F18000020FEF70FFE2620FEF7E8FD0120FEF761
:101F280009FEE020FEF7E2FD0F20FEF703FE2A205F
:101F3800FEF700FE2820FEF7FDFD0820FEF7FAFD5B
:101F48000E20FEF7F7FD0820FEF7F4FD5420FEF7FB
:101F5800F1FDA920FEF7EEFD4320FEF7EBFD0A2078
:101F6800FEF7E8FD0F20FEF7E5FD0020FEF7E2FD95
:101F78000020FEF7DFFD0020FEF7DCFD0020FEF765
:101F8800D9FDE120FEF7B2FD0020FEF7D3FD1520B4
:101F9800FEF7D0FD1720FEF7CDFD0720FEF7CAFD9E
:101FA8001120FEF7C7FD0620FEF7C4FD2B20FEF723
:101FB800C1FD5620FEF7BEFD3C20FEF7BBFD052007
:101FC800FEF7B8FD1020FEF7B5FD0F20FEF7B2FDB5
:101FD8003F20FEF7AFFD3F20FEF7ACFD0F20FEF7D8
:101FE800A9FD2B20FEF782FD0020FEF7A3FD0020AF
:101FF800FEF7A0FD0120FEF79DFD3F20FEF79AFDAC
:102008002A20FEF773FD0020FEF794FD0020FEF75E
:1020180091FD0020FEF78EFDEF20FEF78BFD1120CD
:10202800FEF764FD782003F0D1FE2920FEF75EFD5F
:1020380003F0D8BC584B9B8846F60402934240F004
:10204800AD801120FEF752FD142003F0BFFED02012
:10205800FEF74CFD0720FEF76DFD4220FEF76AFDF6
:102068001D20FEF767FDD120FEF740FD0020FEF79A
:1020780061FD1A20FEF75EFD0920FEF75BFDD22008
:10208800FEF734FD0120FEF755FD2220FEF752FD34
:10209800C020FEF72BFD1020FEF74CFD3B20FEF77D
:1020A80049FD0020FEF746FD0220FEF743FD112002
:1020B800FEF740FDC520FEF719FD0320FEF73AFDA7
:1020C800C820FEF713FD0020FEF734FD2520FEF79B
:1020D80031FD2120FEF72EFD0520FEF72BFD002007
:1020E800FEF728FD0A20FEF725FD6520FEF722FDF4
:1020F8002520FEF71FFD7720FEF71CFD5020FEF778
:1021080019FD0F20FEF716FD0020FEF713FDF8203D
:10211800FEF7ECFC0120FEF70DFDFE20FEF7E6FCC5
:102128000020FEF707FD0220FEF704FD2020FEF741
:10213800DDFC3620FEF7DAFC0820FEF7FBFC3A202F
:10214800FEF7D4FC5520FEF7F5FC2B20FEF7CEFC5D
:102158000020FEF7EFFC0020FEF7ECFC0120FEF764
:10216800E9FC3F20FEF7E6FC2A20FEF7BFFC002032
:10217800FEF7E0FC0020FEF7DDFC0120FEF7DAFCAC
:10218800DF20FEF7D7FC782003F020FE2920FEF799
:10219800ADFC03F027BC00BF28000020034B9B8840
:1021A80045F21032934240F07C8701E0280000207D
:1021B800ED20FEF79BFC0120FEF7BCFCFE20FEF79D
:1021C800B9FCEE20FEF792FCDE20FEF7B3FC2120DE
:1021D800FEF7B0FCF120FEF789FC0120FEF7AAFC0F
:1021E800DF20FEF783FC1020FEF7A4FCC420FEF7D6
:1021F8007DFC8F20FEF79EFCC620FEF777FC0020B2
:10220800FEF798FCE220FEF795FCE220FEF792FC30
:10221800E220FEF78FFCBF20FEF768FCAA20FEF73D
:1022280089FCB020FEF762FC0D20FEF783FC00203D
:10223800FEF780FC0D20FEF77DFC0020FEF77AFCFF
:102248001120FEF777FC0020FEF774FC1920FEF73A
:1022580071FC0020FEF76EFC2120FEF76BFC0020CD
:10226800FEF768FC2D20FEF765FC0020FEF762FCF7
:102278003D20FEF75FFC0020FEF75CFC5D20FEF7CA
:1022880059FC0020FEF756FC5D20FEF753FC0020A9
:10229800FEF750FCB120FEF729FC8020FEF74AFC2F
:1022A8000020FEF747FC8B20FEF744FC0020FEF7D9
:1022B80041FC9620FEF73EFC0020FEF73BFCB220D6
:1022C800FEF714FC0020FEF735FC0020FEF732FC78
:1022D8000220FEF72FFC0020FEF72CFC0320FEF75F
:1022E80029FC0020FEF726FCB320FEF7FFFB0020A8
:1022F800FEF720FC0020FEF71DFC0020FEF71AFC6C
:102308000020FEF717FC0020FEF714FC0020FEF763
:1023180011FC0020FEF70EFC0020FEF70BFC00204D
:10232800FEF708FC0020FEF705FC0020FEF702FC83
:102338000020FEF7FFFB0020FEF7FCFB0020FEF765
:10234800F9FB0020FEF7F6FB0020FEF7F3FB002068
:10235800FEF7F0FB0020FEF7EDFB0020FEF7EAFB9E
:102368000020FEF7E7FB0020FEF7E4FB0020FEF765
:10237800E1FB0020FEF7DEFB0020FEF7DBFBB420CC
:10238800FEF7B4FB8B20FEF7D5FB0020FEF7D2FB4F
:102398009620FEF7CFFB0020FEF7CCFBA120FEF72E
:1023A800C9FB0020FEF7C6FBB520FEF79FFB022005
:1023B800FEF7C0FB0020FEF7BDFB0320FEF7BAFBCB
:1023C8000020FEF7B7FB0420FEF7B4FB0020FEF761
:1023D800B1FBB620FEF78AFB0020FEF7ABFB00201E
:1023E800FEF7A8FBB720FEF781FB0020FEF7A2FB53
:1023F8000020FEF79FFB3F20FEF79CFB0020FEF726
:1024080099FB5E20FEF796FB0020FEF793FB642005
:10241800FEF790FB0020FEF78DFB8C20FEF78AFB71
:102428000020FEF787FBAC20FEF784FB0020FEF7B8
:1024380081FBDC20FEF77EFB0020FEF77BFB702093
:10244800FEF778FB0020FEF775FB9020FEF772FB85
:102458000020FEF76FFBEB20FEF76CFB0020FEF779
:1024680069FBDC20FEF766FB0020FEF763FBB82063
:10247800FEF73CFB0020FEF75DFB0020FEF75AFB51
:102488000020FEF757FB0020FEF754FB0020FEF764
:1024980051FB0020FEF74EFB0020FEF74BFB00200F
:1024A800FEF748FBBA20FEF721FB2420FEF742FB8B
:1024B8000020FEF73FFB0020FEF73CFB0020FEF764
:1024C80039FBC120FEF712FB2020FEF733FB00206A
:1024D800FEF730FB5420FEF72DFB0020FEF72AFB09
:1024E800FF20FEF727FB0020FEF724FBC220FEF7A3
:1024F800FDFA0A20FEF71EFB0020FEF71BFB042056
:10250800FEF718FB0020FEF715FBC320FEF7EEFAD6
:102518003C20FEF70FFB0020FEF70CFB3A20FEF7ED
:1025280009FB0020FEF706FB3920FEF703FB00201D
:10253800FEF700FB3720FEF7FDFA0020FEF7FAFA57
:102548003C20FEF7F7FA0020FEF7F4FA3620FEF7F3
:10255800F1FA0020FEF7EEFA3220FEF7EBFA00203F
:10256800FEF7E8FA2F20FEF7E5FA0020FEF7E2FA78
:102578002C20FEF7DFFA0020FEF7DCFA2920FEF710
:10258800D9FA0020FEF7D6FA2620FEF7D3FA002063
:10259800FEF7D0FA2420FEF7CDFA0020FEF7CAFA9B
:1025A8002420FEF7C7FA0020FEF7C4FA2320FEF71E
:1025B800C1FA0020FEF7BEFA3C20FEF7BBFA002065
:1025C800FEF7B8FA3620FEF7B5FA0020FEF7B2FAA1
:1025D8003220FEF7AFFA0020FEF7ACFA2F20FEF704
:1025E800A9FA0020FEF7A6FA2C20FEF7A3FA00208D
:1025F800FEF7A0FA2920FEF79DFA0020FEF79AFAC6
:102608002620FEF797FA0020FEF794FA2420FEF71A
:1026180091FA0020FEF78EFA2420FEF78BFA0020AC
:10262800FEF788FA2320FEF785FA0020FEF782FAE3
:10263800C420FEF75BFA6220FEF77CFA0020FEF762
:1026480079FA0520FEF776FA0020FEF773FA84205F
:10265800FEF770FA0020FEF76DFAF020FEF76AFA2E
:102668000020FEF767FA1820FEF764FA0020FEF74C
:1026780061FAA420FEF75EFA0020FEF75BFA182044
:10268800FEF758FA0020FEF755FA5020FEF752FAE6
:102698000020FEF74FFA0C20FEF74CFA0020FEF758
:1026A80049FA1720FEF746FA0020FEF743FA95206C
:1026B800FEF740FA0020FEF73DFAF320FEF73AFA5B
:1026C8000020FEF737FAE620FEF734FA0020FEF77E
:1026D80031FAC520FEF70AFA3220FEF72BFA00205D
:1026E800FEF728FA4420FEF725FA0020FEF722FA22
:1026F8006520FEF71FFA0020FEF71CFA7620FEF789
:1027080019FA0020FEF716FA8820FEF713FA0020BF
:10271800FEF710FAC620FEF7E9F92020FEF70AFABC
:102728000020FEF707FA1720FEF704FA0020FEF74C
:1027380001FA0120FEF7FEF90020FEF7FBF9C72099
:10274800FEF7D4F90020FEF7F5F90020FEF7F2F9BC
:102758000020FEF7EFF90020FEF7ECF9C820FEF79D
:10276800C5F90020FEF7E6F90020FEF7E3F900209E
:10277800FEF7E0F90020FEF7DDF9C920FEF7B6F90B
:102788000020FEF7D7F90020FEF7D4F90020FEF765
:10279800D1F90020FEF7CEF90020FEF7CBF9002092
:1027A800FEF7C8F90020FEF7C5F90020FEF7C2F9C8
:1027B8000020FEF7BFF90020FEF7BCF90020FEF765
:1027C800B9F90020FEF7B6F90020FEF7B3F90020AA
:1027D800FEF7B0F90020FEF7ADF90020FEF7AAF9E0
:1027E800E020FEF783F91620FEF7A4F90020FEF793
:1027F800A1F91C20FEF79EF90020FEF79BF9212085
:10280800FEF798F90020FEF795F93620FEF792F9C1
:102818000020FEF78FF94620FEF78CF90020FEF71E
:1028280089F95220FEF786F90020FEF783F9642023
:10283800FEF780F90020FEF77DF97A20FEF77AF995
:102848000020FEF777F98B20FEF774F90020FEF7D9
:1028580071F99920FEF76EF90020FEF76BF9A820B0
:10286800FEF768F90020FEF765F9B920FEF762F96E
:102878000020FEF75FF9C420FEF75CF90020FEF7A0
:1028880059F9CA20FEF756F90020FEF753F9D2206D
:10289800FEF750F90020FEF74DF9D920FEF74AF966
:1028A8000020FEF747F9E020FEF744F90020FEF784
:1028B80041F9F320FEF73EF90020FEF73BF9E1204D
:1028C800FEF714F91620FEF735F90020FEF732F965
:1028D8001C20FEF72FF90020FEF72CF92220FEF726
:1028E80029F90020FEF726F93620FEF723F9002003
:1028F800FEF720F94520FEF71DF90020FEF71AF92A
:102908005220FEF717F90020FEF714F96420FEF7AD
:1029180011F90020FEF70EF97A20FEF70BF90020D6
:10292800FEF708F98B20FEF705F90020FEF702F9FB
:102938009920FEF7FFF80020FEF7FCF8A820FEF724
:10294800F9F80020FEF7F6F8B920FEF7F3F80020B2
:10295800FEF7F0F8C420FEF7EDF80020FEF7EAF8DD
:10296800CA20FEF7E7F80020FEF7E4F8D220FEF7C9
:10297800E1F80020FEF7DEF8D820FEF7DBF80020AB
:10298800FEF7D8F8E020FEF7D5F80020FEF7D2F8D9
:10299800F320FEF7CFF80020FEF7CCF8E220FEF790
:1029A800A5F80520FEF7C6F80020FEF7C3F80B20AF
:1029B800FEF7C0F80020FEF7BDF81B20FEF7BAF8B6
:1029C8000020FEF7B7F83420FEF7B4F80020FEF731
:1029D800B1F84420FEF7AEF80020FEF7ABF84F2020
:1029E800FEF7A8F80020FEF7A5F86120FEF7A2F888
:1029F8000020FEF79FF87920FEF79CF80020FEF7EC
:102A080099F88820FEF796F80020FEF793F89720AB
:102A1800FEF790F80020FEF78DF8A620FEF78AF85A
:102A28000020FEF787F8B720FEF784F80020FEF7AD
:102A380081F8C220FEF77EF80020FEF77BF8C72059
:102A4800FEF778F80020FEF775F8D120FEF772F847
:102A58000020FEF76FF8D620FEF76CF80020FEF78E
:102A680069F8DD20FEF766F80020FEF763F8F3202A
:102A7800FEF760F80020FEF75DF8E320FEF736F871
:102A88000520FEF757F80020FEF754F80A20FEF755
:102A980051F80020FEF74EF81C20FEF74BF80020F6
:102AA800FEF748F83320FEF745F80020FEF742F815
:102AB8004420FEF73FF80020FEF73CF85020FEF7D0
:102AC80039F80020FEF736F86220FEF733F80020C8
:102AD800FEF730F87820FEF72DF80020FEF72AF8E8
:102AE8008820FEF727F80020FEF724F89720FEF745
:102AF80021F80020FEF71EF8A620FEF71BF800209C
:102B0800FEF718F8B720FEF715F80020FEF712F8C0
:102B1800C220FEF70FF80020FEF70CF8C720FEF7DA
:102B280009F80020FEF706F8D120FEF703F8002088
:102B3800FEF700F8D520FDF7FDFF0020FDF7FAFFAE
:102B4800DD20FDF7F7FF0020FDF7F4FFF320FDF788
:102B5800F1FF0020FDF7EEFFE420FDF7C7FF01209D
:102B6800FDF7E8FF0020FDF7E5FF0120FDF7E2FF94
:102B78000020FDF7DFFF0220FDF7DCFF0020FDF756
:102B8800D9FF2A20FDF7D6FF0020FDF7D3FF3C2010
:102B9800FDF7D0FF0020FDF7CDFF4B20FDF7CAFF62
:102BA8000020FDF7C7FF5D20FDF7C4FF0020FDF7FB
:102BB800C1FF7420FDF7BEFF0020FDF7BBFF842096
:102BC800FDF7B8FF0020FDF7B5FF9320FDF7B2FF32
:102BD8000020FDF7AFFFA220FDF7ACFF0020FDF7B6
:102BE800A9FFB320FDF7A6FF0020FDF7A3FFBE2035
:102BF800FDF7A0FF0020FDF79DFFC420FDF79AFF19
:102C08000020FDF797FFCD20FDF794FF0020FDF78A
:102C180091FFD320FDF78EFF0020FDF78BFFDD200D
:102C2800FDF788FF0020FDF785FFF320FDF782FF01
:102C38000020FDF77FFFE520FDF758FF0020FDF796
:102C480079FF0020FDF776FF0020FDF773FF0020D5
:102C5800FDF770FF0220FDF76DFF0020FDF76AFF0A
:102C68002920FDF767FF0020FDF764FF3C20FDF7F2
:102C780061FF0020FDF75EFF4B20FDF75BFF0020A2
:102C8800FDF758FF5D20FDF755FF0020FDF752FFC7
:102C98007420FDF74FFF0020FDF74CFF8420FDF75F
:102CA80049FF0020FDF746FF9320FDF743FF002072
:102CB800FDF740FFA220FDF73DFF0020FDF73AFF9A
:102CC800B320FDF737FF0020FDF734FFBE20FDF7E6
:102CD80031FF0020FDF72EFFC420FDF72BFF002059
:102CE800FDF728FFCD20FDF725FF0020FDF722FF87
:102CF800D320FDF71FFF0020FDF71CFFDC20FDF7A8
:102D080019FF0020FDF716FFF320FDF713FF002041
:102D1800FDF710FFE620FDF7E9FE1120FDF70AFF99
:102D28000020FDF707FF3420FDF704FF0020FDF722
:102D380001FF5620FDF7FEFE0020FDF7FBFE762082
:102D4800FDF7F8FE0020FDF7F5FE7720FDF7F2FE0F
:102D58000020FDF7EFFE6620FDF7ECFE0020FDF7F2
:102D6800E9FE8820FDF7E6FE0020FDF7E3FE992046
:102D7800FDF7E0FE0020FDF7DDFEBB20FDF7DAFEE3
:102D88000020FDF7D7FE9920FDF7D4FE0020FDF7BF
:102D9800D1FE6620FDF7CEFE0020FDF7CBFE5520C4
:102DA800FDF7C8FE0020FDF7C5FE5520FDF7C2FE61
:102DB8000020FDF7BFFE4520FDF7BCFE0020FDF713
:102DC800B9FE4320FDF7B6FE0020FDF7B3FE442010
:102DD800FDF7B0FE0020FDF7ADFEE720FDF786FE0B
:102DE8003220FDF7A7FE0020FDF7A4FE5520FDF7D1
:102DF800A1FE0020FDF79EFE7620FDF79BFE002039
:102E0800FDF798FE6620FDF795FE0020FDF792FE7F
:102E18006720FDF78FFE0020FDF78CFE6720FDF789
:102E280089FE0020FDF786FE8720FDF783FE00203F
:102E3800FDF780FE9920FDF77DFE0020FDF77AFE64
:102E4800BB20FDF777FE0020FDF774FE9920FDF703
:102E580071FE0020FDF76EFE7720FDF76BFE002067
:102E6800FDF768FE4420FDF765FE0020FDF762FED1
:102E78005620FDF75FFE0020FDF75CFE2320FDF7DE
:102E880059FE0020FDF756FE3320FDF753FE0020C3
:102E9800FDF750FE4520FDF74DFE0020FDF74AFEE8
:102EA800E820FDF723FE0020FDF744FE0020FDF793
:102EB80041FE9920FDF73EFE0020FDF73BFE8720EE
:102EC800FDF738FE0020FDF735FE8820FDF732FEBD
:102ED8000020FDF72FFE7720FDF72CFE0020FDF7E0
:102EE80029FE6620FDF726FE0020FDF723FE882038
:102EF800FDF720FE0020FDF71DFEAA20FDF71AFEB3
:102F08000020FDF717FEBB20FDF714FE0020FDF79B
:102F180011FE9920FDF70EFE0020FDF70BFE66203E
:102F2800FDF708FE0020FDF705FE5520FDF702FE1F
:102F38000020FDF7FFFD5520FDF7FCFD0020FDF703
:102F4800F9FD4420FDF7F6FD0020FDF7F3FD4420D0
:102F5800FDF7F0FD0020FDF7EDFD5520FDF7EAFD3A
:102F68000020FDF7E7FDE920FDF7C0FDAA20FDF7E9
:102F7800E1FD0020FDF7DEFD0020FDF7DBFD002070
:102F8800FDF7D8FD0020FDF7B1FDAA20FDF7D2FD21
:102F9800CF20FDF7ABFD0020FDF7CCFD0020FDF7AD
:102FA800C9FD0020FDF7C6FD0020FDF7C3FD002088
:102FB800FDF7C0FD0020FDF7BDFD0020FDF7BAFDBF
:102FC8000020FDF7B7FD0020FDF7B4FD0020FDF758
:102FD800B1FD0020FDF7AEFD0020FDF7ABFD0020A0
:102FE800FDF7A8FD0020FDF7A5FD0020FDF7A2FDD7
:102FF8000020FDF79FFD0020FDF79CFDF020FDF768
:1030080075FD0020FDF796FD5020FDF793FD00208B
:10301800FDF790FD0020FDF78DFD0020FDF78AFDEE
:10302800F320FDF763FD0020FDF784FDF920FDF78F
:103038005DFD0620FDF77EFD1020FDF77BFD2920B4
:10304800FDF778FD0020FDF775FD3A20FDF74EFDF0
:103058005520FDF76FFD1120FDF748FD642002F0B3
:10306800B5FE2920FDF742FD3520FDF73FFD002084
:10307800FDF760FD5120FDF739FDFF20FDF75AFDF2
:103088005320FDF733FD2C20FDF754FD5520FDF7A7
:103098002DFD8220FDF74EFD2C20FDF727FD02F0C7
:1030A800A1BC044B9B8845F21052934240F08287A2
:1030B80002E000BF2800002055214FF47040FDF7C2
:1030C800A1FDAA214FF20100FDF79CFD52214FF20C
:1030D8000200FDF797FD08214FF20300FDF792FD6E
:1030E80001214FF20400FDF78DFD0D214FF4304012
:1030F800FDF788FD0D214BF20100FDF783FD0D2141
:103108004BF20200FDF77EFD34214FF43640FDF707
:1031180079FD34214BF20160FDF774FD34214BF247
:103128000260FDF76FFD0D214FF43140FDF76AFD98
:103138000D214BF20110FDF765FD0D214BF2021038
:10314800FDF760FD34214FF43740FDF75BFD342176
:103158004BF20170FDF756FD34214BF20270FDF77A
:1031680051FD00214FF43240FDF74CFD00214BF298
:103178000120FDF747FD00214BF20220FDF742FD3B
:1031880024214FF43840FDF73DFD24214BF6010082
:10319800FDF738FD24214BF60200FDF733FD012130
:1031A8004FF43F40FDF72EFD0F214FF43340FDF75C
:1031B80029FD0F214BF20130FDF724FD0F214BF2C1
:1031C8000230FDF71FFD34214FF43940FDF71AFD99
:1031D80034214BF60110FDF715FD34214BF6021092
:1031E800FDF710FD08214FF43540FDF70BFD0821D0
:1031F8004BF20150FDF706FD08214BF20250FDF796
:1032080001FD03214FF44240FDF7FCFC24214FF45B
:103218003A40FDF7F7FC24214BF60120FDF7F2FCBC
:1032280024214BF60220FDF7EDFC00214FF43C4031
:10323800FDF7E8FC78214BF60140FDF7E3FC00219F
:103248004BF60240FDF7DEFC00214FF43D40FDF750
:10325800D9FC78214BF60150FDF7D4FC00214BF640
:103268000250FDF7CFFC00214FF43E40FDF7CAFCA9
:1032780064214BF60160FDF7C5FC00214FF4514075
:10328800FDF7C0FC33214DF20110FDF7BBFC002116
:103298004DF20210FDF7B6FC34214DF20310FDF794
:1032A800B1FC00214DF20410FDF7ACFC3A214DF2BF
:1032B8000510FDF7A7FC00214DF20610FDF7A2FC52
:1032C8004A214DF20710FDF79DFC00214DF2081030
:1032D800FDF798FC5C214DF20910FDF793FC0021E5
:1032E8004DF20A10FDF78EFC81214DF20B10FDF70F
:1032F80089FC00214DF20C10FDF784FCA6214DF24B
:103308000D10FDF77FFC00214DF20E10FDF77AFC41
:10331800E5214DF20F10FDF775FC01214DF210105B
:10332800FDF770FC13214DF21110FDF76BFC012124
:103338004DF21210FDF766FC54214DF21310FDF703
:1033480061FC01214DF21410FDF75CFC82214DF265
:103358001510FDF757FC01214DF21610FDF752FC30
:10336800CA214DF21710FDF74DFC02214DF218103D
:10337800FDF748FC00214DF21910FDF743FC02212E
:103388004DF21A10FDF73EFC01214DF21B10FDF71E
:1033980039FC02214DF21C10FDF734FC34214DF2AA
:1033A8001D10FDF72FFC02214DF21E10FDF72AFC1F
:1033B80067214DF21F10FDF725FC02214DF2201068
:1033C800FDF720FC84214DF22110FDF71BFC0221A2
:1033D8004DF22210FDF716FCA4214DF22310FDF743
:1033E80011FC02214DF22410FDF70CFCB7214DF21F
:1033F8002510FDF707FC02214DF22610FDF702FC0F
:10340800CF214DF22710FDF7FDFB02214DF22810C8
:10341800FDF7F8FBDE214DF22910FDF7F3FB022141
:103428004DF22A10FDF7EEFBF2214DF22B10FDF7BD
:10343800E9FB02214DF22C10FDF7E4FBFE214DF2D1
:103448002D10FDF7DFFB03214DF22E10FDF7DAFBFF
:1034580010214DF22F10FDF7D5FB03214DF230104E
:10346800FDF7D0FB33214DF23110FDF7CBFB0321E3
:103478004DF23210FDF7C6FB6D214DF23310FDF70A
:10348800C1FB00214FF45240FDF7BCFB33214DF244
:103498000120FDF7B7FB00214DF20220FDF7B2FB3A
:1034A80034214DF20320FDF7ADFB00214DF204203D
:1034B800FDF7A8FB3A214DF20520FDF7A3FB0021FB
:1034C8004DF20620FDF79EFB4A214DF20720FDF73D
:1034D80099FB00214DF20820FDF794FB5C214DF289
:1034E8000920FDF78FFB00214DF20A20FDF78AFB2A
:1034F80081214DF20B20FDF785FB00214DF20C20B8
:10350800FDF780FBA6214DF20D20FDF77BFB002186
:103518004DF20E20FDF776FBE5214DF20F20FDF769
:1035280071FB01214DF21020FDF76CFB13214DF2C8
:103538001120FDF767FB01214DF21220FDF762FB18
:1035480054214DF21320FDF75DFB01214DF21420AB
:10355800FDF758FB82214DF21520FDF753FB0121A1
:103568004DF21620FDF74EFBCA214DF21720FDF74C
:1035780049FB02214DF21820FDF744FB00214DF2D2
:103588001920FDF73FFB02214DF21A20FDF73AFB07
:1035980001214DF21B20FDF735FB02214DF21C20C5
:1035A800FDF730FB34214DF21D20FDF72BFB0221E6
:1035B8004DF21E20FDF726FB67214DF21F20FDF777
:1035C80021FB02214DF22020FDF71CFB84214DF246
:1035D8002120FDF717FB02214DF22220FDF712FBF7
:1035E800A4214DF22320FDF70DFB02214DF22420EA
:1035F800FDF708FBB7214DF22520FDF703FB02215B
:103608004DF22620FDF7FEFACF214DF22720FDF7D7
:10361800F9FA02214DF22820FDF7F4FADE214DF2E5
:103628002920FDF7EFFA02214DF22A20FDF7EAFAE8
:10363800F2214DF22B20FDF7E5FA02214DF22C2064
:10364800FDF7E0FAFE214DF22D20FDF7DBFA03210C
:103658004DF22E20FDF7D6FA10214DF22F20FDF75E
:10366800D1FA03214DF23020FDF7CCFA33214DF287
:103678003120FDF7C7FA03214DF23220FDF7C2FAD7
:103688006D214DF23320FDF7BDFA00214FF4534070
:10369800FDF7B8FA33214DF20130FDF7B3FA0021F6
:1036A8004DF20230FDF7AEFA34214DF20330FDF74A
:1036B800A9FA00214DF20430FDF7A4FA3A214DF29F
:1036C8000530FDF79FFA00214DF20630FDF79AFA12
:1036D8004A214DF20730FDF795FA00214DF20830E6
:1036E800FDF790FA5C214DF20930FDF78BFA0021C5
:1036F8004DF20A30FDF786FA81214DF20B30FDF7C5
:1037080081FA00214DF20C30FDF77CFAA6214DF22A
:103718000D30FDF777FA00214DF20E30FDF772FA01
:10372800E5214DF20F30FDF76DFA01214DF2103011
:10373800FDF768FA13214DF21130FDF763FA012104
:103748004DF21230FDF75EFA54214DF21330FDF7B9
:1037580059FA01214DF21430FDF754FA82214DF245
:103768001530FDF74FFA01214DF21630FDF74AFAF0
:10377800CA214DF21730FDF745FA02214DF21830F3
:10378800FDF740FA00214DF21930FDF73BFA02210E
:103798004DF21A30FDF736FA01214DF21B30FDF7D4
:1037A80031FA02214DF21C30FDF72CFA34214DF28A
:1037B8001D30FDF727FA02214DF21E30FDF722FADF
:1037C80067214DF21F30FDF71DFA02214DF220301E
:1037D800FDF718FA84214DF22130FDF713FA022182
:1037E8004DF22230FDF70EFAA4214DF22330FDF7F9
:1037F80009FA02214DF22430FDF704FAB7214DF2FF
:103808002530FDF7FFF902214DF22630FDF7FAF9D0
:10381800CF214DF22730FDF7F5F902214DF228307E
:10382800FDF7F0F9DE214DF22930FDF7EBF9022121
:103838004DF22A30FDF7E6F9F2214DF22B30FDF773
:10384800E1F902214DF22C30FDF7DCF9FE214DF2B1
:103858002D30FDF7D7F903214DF22E30FDF7D2F9BF
:1038680010214DF22F30FDF7CDF903214DF2303004
:10387800FDF7C8F933214DF23130FDF7C3F90321C3
:103888004DF23230FDF7BEF96D214DF23330FDF7C0
:10389800B9F900214FF45440FDF7B4F933214DF242
:1038A8000140FDF7AFF900214DF20240FDF7AAF9FA
:1038B80034214DF20340FDF7A5F900214DF20440F3
:1038C800FDF7A0F93A214DF20540FDF79BF90021DB
:1038D8004DF20640FDF796F94A214DF20740FDF7F3
:1038E80091F900214DF20840FDF78CF95C214DF269
:1038F8000940FDF787F900214DF20A40FDF782F9EA
:1039080081214DF20B40FDF77DF900214DF20C406D
:10391800FDF778F9A6214DF20D40FDF773F9002166
:103928004DF20E40FDF76EF9E5214DF20F40FDF71F
:1039380069F901214DF21040FDF764F913214DF2A8
:103948001140FDF75FF901214DF21240FDF75AF9D8
:1039580054214DF21340FDF755F901214DF2144061
:10396800FDF750F982214DF21540FDF74BF9012181
:103978004DF21640FDF746F9CA214DF21740FDF702
:1039880041F902214DF21840FDF73CF900214DF2B2
:103998001940FDF737F902214DF21A40FDF732F9C7
:1039A80001214DF21B40FDF72DF902214DF21C407B
:1039B800FDF728F934214DF21D40FDF723F90221C6
:1039C8004DF21E40FDF71EF967214DF21F40FDF72D
:1039D80019F902214DF22040FDF714F984214DF226
:1039E8002140FDF70FF902214DF22240FDF70AF9B7
:1039F800A4214DF22340FDF705F902214DF22440A0
:103A0800FDF700F9B7214DF22540FDF7FBF802213B
:103A18004DF22640FDF7F6F8CF214DF22740FDF78D
:103A2800F1F802214DF22840FDF7ECF8DE214DF2C5
:103A38002940FDF7E7F802214DF22A40FDF7E2F8A8
:103A4800F2214DF22B40FDF7DDF802214DF22C401A
:103A5800FDF7D8F8FE214DF22D40FDF7D3F80321EC
:103A68004DF22E40FDF7CEF810214DF22F40FDF714
:103A7800C9F803214DF23040FDF7C4F833214DF267
:103A88003140FDF7BFF803214DF23240FDF7BAF897
:103A98006D214DF23340FDF7B5F800214FF4554044
:103AA800FDF7B0F833214DF20150FDF7ABF80021D6
:103AB8004DF20250FDF7A6F834214DF20350FDF700
:103AC800A1F800214DF20450FDF79CF83A214DF27F
:103AD8000550FDF797F800214DF20650FDF792F8D2
:103AE8004A214DF20750FDF78DF800214DF208509C
:103AF800FDF788F85C214DF20950FDF783F80021A5
:103B08004DF20A50FDF77EF881214DF20B50FDF77A
:103B180079F800214DF20C50FDF774F8A6214DF20A
:103B28000D50FDF76FF800214DF20E50FDF76AF8C1
:103B3800E5214DF20F50FDF765F801214DF21050C7
:103B4800FDF760F813214DF21150FDF75BF80121E4
:103B58004DF21250FDF756F854214DF21350FDF76F
:103B680051F801214DF21450FDF74CF882214DF225
:103B78001550FDF747F801214DF21650FDF742F8B0
:103B8800CA214DF21750FDF73DF802214DF21850A9
:103B9800FDF738F800214DF21950FDF733F80221EE
:103BA8004DF21A50FDF72EF801214DF21B50FDF78A
:103BB80029F802214DF21C50FDF724F834214DF26A
:103BC8001D50FDF71FF802214DF21E50FDF71AF89F
:103BD80067214DF21F50FDF715F802214DF22050D4
:103BE800FDF710F884214DF22150FDF70BF8022162
:103BF8004DF22250FDF706F8A4214DF22350FDF7AF
:103C080001F802214DF22450FCF7FCFFB7214DF2D8
:103C18002550FCF7F7FF02214DF22650FCF7F2FF82
:103C2800CF214DF22750FCF7EDFF02214DF228502D
:103C3800FCF7E8FFDE214DF22950FCF7E3FF0221F3
:103C48004DF22A50FCF7DEFFF2214DF22B50FCF723
:103C5800D9FF02214DF22C50FCF7D4FFFE214DF282
:103C68002D50FCF7CFFF03214DF22E50FCF7CAFF71
:103C780010214DF22F50FCF7C5FF03214DF23050B3
:103C8800FCF7C0FF33214DF23150FCF7BBFF032195
:103C98004DF23250FCF7B6FF6D214DF23350FCF770
:103CA800B1FF00214FF45640FCF7ACFF33214DF231
:103CB8000160FCF7A7FF00214DF20260FCF7A2FFAC
:103CC80034214DF20360FCF79DFF00214DF20460A2
:103CD800FCF798FF3A214DF20560FCF793FF0021AD
:103CE8004DF20660FCF78EFF4A214DF20760FCF7A3
:103CF80089FF00214DF20860FCF784FF5C214DF23A
:103D08000960FCF77FFF00214DF20A60FCF77AFF9B
:103D180081214DF20B60FCF775FF00214DF20C601C
:103D2800FCF770FFA6214DF20D60FCF76BFF002138
:103D38004DF20E60FCF766FFE5214DF20F60FCF7CF
:103D480061FF01214DF21060FCF75CFF13214DF279
:103D58001160FCF757FF01214DF21260FCF752FF8A
:103D680054214DF21360FCF74DFF01214DF2146010
:103D7800FCF748FF82214DF21560FCF743FF012153
:103D88004DF21660FCF73EFFCA214DF21760FCF7B2
:103D980039FF02214DF21860FCF734FF00214DF283
:103DA8001960FCF72FFF02214DF21A60FCF72AFF79
:103DB80001214DF21B60FCF725FF02214DF21C602A
:103DC800FCF720FF34214DF21D60FCF71BFF022198
:103DD8004DF21E60FCF716FF67214DF21F60FCF7DD
:103DE80011FF02214DF22060FCF70CFF84214DF2F7
:103DF8002160FCF707FF02214DF22260FCF702FF69
:103E0800A4214DF22360FCF7FDFE02214DF224604F
:103E1800FCF7F8FEB7214DF22560FCF7F3FE02210E
:103E28004DF22660FCF7EEFECF214DF22760FCF73D
:103E3800E9FE02214DF22860FCF7E4FEDE214DF296
:103E48002960FCF7DFFE02214DF22A60FCF7DAFE5A
:103E5800F2214DF22B60FCF7D5FE02214DF22C60C9
:103E6800FCF7D0FEFE214DF22D60FCF7CBFE0321BE
:103E78004DF22E60FCF7C6FE10214DF22F60FCF7C4
:103E8800C1FE03214DF23060FCF7BCFE33214DF238
:103E98003160FCF7B7FE03214DF23260FCF7B2FE49
:103EA8006D214DF23360FCF7ADFE55214FF47040A3
:103EB800FCF7A8FEAA214FF20100FCF7A3FE52214D
:103EC8004FF20200FCF79EFE08214FF20300FCF7B8
:103ED80099FE00214FF20400FCF794FECC214FF428
:103EE8003140FCF78FFE00214BF20110FCF78AFEEF
:103EF80005214FF43640FCF785FE70214FF437401A
:103F0800FCF780FE70214BF20170FCF77BFE01216B
:103F18004FF43840FCF776FE03214BF60100FCF71E
:103F280071FE03214BF60200FCF76CFE03214BF6F1
:103F38000300FCF767FE02214FF43C40FCF762FEE9
:103F480000214BF60140FCF75DFE00214BF60240D4
:103F5800FCF758FED0214FF44940FCF753FE0221EC
:103F68004CF60110FCF74EFE50214CF60210FCF7FF
:103F780049FE50214CF60310FCF744FE50214CF644
:103F88000410FCF73FFE00214FF45450FCF73AFEB2
:103F980055214FF46850FCF735FE4FF48850FCF774
:103FA800A5FD012001F012FF4FF42450FCF79EFDFF
:103FB80001F018BDEC4B9B8849F22532934240F042
:103FC800D78047F6F001E520FCF71CFE4FF480711E
:103FD8000120FCF717FE4FF4E0610220FCF712FE07
:103FE80041F230010320FCF70DFE00210420FCF70C
:103FF80009FE40F202210820FCF704FE00210920F6
:10400800FCF700FE00210A20FCF7FCFD00210C2033
:10401800FCF7F8FD00210D20FCF7F4FD00210F202E
:10402800FCF7F0FD00211020FCF7ECFD0721112022
:10403800FCF7E8FD00211220FCF7E4FD0021132025
:10404800FCF7E0FD00210720FCF7DCFD41F2906160
:104058001020FCF7D7FD40F227211120FCF7D2FDF4
:104068009D211220FCF7CEFD4FF4C8511320FCF718
:10407800C9FD25212920FCF7C5FD0D212B20FCF7C2
:10408800C1FD07213020FCF7BDFD40F2033131208E
:10409800FCF7B8FD03213220FCF7B4FD40F20621FD
:1040A8003520FCF7AFFD08213620FCF7ABFD40F2C8
:1040B80006413720FCF7A6FD4FF441713820FCF784
:1040C800A1FD07213920FCF79DFD40F202613C204B
:1040D800FCF798FD08213D20FCF794FD00215020B5
:1040E800FCF790FDEF215120FCF78CFD00215220B8
:1040F800FCF788FD40F23F115320FCF783FD4FF495
:1041080027416020FCF77EFD01216120FCF77AFD44
:1041180000216A20FCF776FD00218020FCF772FD63
:1041280000218120FCF76EFD00218220FCF76AFD4A
:1041380000218320FCF766FD00218420FCF762FD46
:1041480000218520FCF75EFD10219020FCF75AFD28
:104158004FF4C0619220FCF755FD40F2331107205F
:10416800FCF750FD22210020FCF74CFD01F03ABC81
:104178007D4B9B8849F22832934240F0F78041F208
:104188008F01EC20FCF73EFD41F23421EF20FCF7D3
:1041980039FD4FF480710120FCF734FD4FF4E061E4
:1041A8000220FCF72FFD41F230010320FCF72AFD25
:1041B80000210420FCF726FD40F202210820FCF72C
:1041C80021FD00210920FCF71DFD00210A20FCF734
:1041D80019FD01210C20FCF715FD00210D20FCF72D
:1041E80011FD00210F20FCF70DFD00211020FCF728
:1041F80009FD07211120FCF705FD00211220FCF71D
:1042080001FD00211320FCF7FDFC01210720FCF72C
:10421800F9FC322001F0DAFD41F290411020FCF760
:10422800F1FC40F227211120FCF7ECFC322001F0D0
:10423800CDFD8A211220FCF7E5FC322001F0C6FDF5
:104248004FF4D0511320FCF7DDFC06212920FCF7A0
:10425800D9FC0D212B20FCF7D5FC322001F0B6FD4E
:1042680000212020FCF7CEFC00212120FCF7CAFC0D
:10427800322001F0ABFD00213020FCF7C3FC40F2F6
:1042880004613120FCF7BEFC40F205313220FCF716
:10429800B9FC00213520FCF7B5FC40F60941362071
:1042A800FCF7B0FC4FF401713720FCF7ABFC40F28F
:1042B80001313820FCF7A6FC40F207713920FCF7E1
:1042C800A1FC00213C20FCF79DFC40F60A213D2082
:1042D800FCF798FC322001F079FD00215020FCF712
:1042E80091FCEF215120FCF78DFC00215220FCF7B6
:1042F80089FC40F23F115320FCF784FC4FF427411E
:104308006020FCF77FFC01216120FCF77BFC002189
:104318006A20FCF777FC00218020FCF773FC002161
:104328008120FCF76FFC00218220FCF76BFC002148
:104338008320FCF767FC00218420FCF763FC002144
:104348008520FCF75FFC10219020FCF75BFC4FF404
:10435800C0619220FCF756FC40F233110720FCF7AD
:1043680051FC01F03FBB00BF28000020CE4B9B88CA
:1043780049F22032934240F0AD8000210020FCF742
:1043880041FC4FF480710120FCF73CFC4FF4E061E4
:104398000220FCF737FC41F230010320FCF732FC25
:1043A80000210420FCF72EFC40F202210820FCF733
:1043B80029FC00210920FCF725FC00210A20FCF734
:1043C80021FC01210C20FCF71DFC00210D20FCF72D
:1043D80019FC00210F20FCF715FC322001F0F6FC37
:1043E80040F201110720FCF70DFC322001F0EEFC31
:1043F8004FF486511020FCF705FC07211120FCF72B
:1044080001FC4FF488711220FCF7FCFB4FF430617B
:104418001320FCF7F7FB00212920FCF7F3FB44F2FB
:1044280010012B20FCF7EEFB00215020FCF7EAFBE3
:10443800EF215120FCF7E6FB00215220FCF7E2FBBC
:1044480040F23F115320FCF7DDFB4FF41C51602074
:10445800FCF7D8FB01216120FCF7D4FB00216A207E
:10446800FCF7D0FB00218020FCF7CCFB0021812049
:10447800FCF7C8FB00218220FCF7C4FB0021832045
:10448800FCF7C0FB00218420FCF7BCFB0021852041
:10449800FCF7B8FB10219020FCF7B4FB0021922018
:1044A800FCF7B0FB01219320FCF7ACFB4FF48871BB
:1044B8009520FCF7A7FB00219720FCF7A3FB002120
:1044C8009820FCF79FFB40F273110720FCF79AFB3A
:1044D80001F088BA744B9B8849F23132934240F01C
:1044E800E58041F21401E720FCF78CFB4FF4807162
:1044F8000120FCF787FB4FF400710220FCF782FBD8
:1045080041F238010320FCF77DFB40F2022108202C
:10451800FCF778FB00210920FCF774FB00210A2036
:10452800FCF770FB00210C20FCF76CFB00210D2030
:10453800FCF768FB00210F20FCF764FB002110202A
:10454800FCF760FB07211120FCF75CFB002112201F
:10455800FCF758FB00211320FCF754FBC82001F09E
:1045680035FC41F290611020FCF74CFB40F227210A
:104578001120FCF747FB322001F028FC0C21122007
:10458800FCF740FB322001F021FC4FF400611320BE
:10459800FCF738FB11212920FCF734FB0B212B20D9
:1045A800FCF730FB322001F011FC00212020FCF741
:1045B80029FB40F23F112120FCF724FB0021302089
:1045C800FCF720FB4FF483713120FCF71BFB002123
:1045D8003220FCF717FB4FF401713520FCF712FB72
:1045E80041F20A613620FCF70DFB40F207713720D3
:1045F800FCF708FB4FF483713820FCF703FB40F20B
:1046080007713920FCF7FEFA40F202413C20FCF722
:10461800F9FA40F60F413D20FCF7F4FA002150204A
:10462800FCF7F0FAEF215120FCF7ECFA00215220B8
:10463800FCF7E8FA40F23F115320FCF7E3FA4FF495
:104648001C516020FCF7DEFA01216120FCF7DAFA40
:1046580000216A20FCF7D6FA00218020FCF7D2FA64
:1046680000218120FCF7CEFA00218220FCF7CAFA4B
:1046780000218320FCF7C6FA00218420FCF7C2FA47
:1046880000218520FCF7BEFA10219020FCF7BAFA29
:104698004FF4C0619220FCF7B5FA40F233110720BD
:1046A800FCF7B0FA01F09EB928000020E24B9B8885
:1046B80045F20842934240F0A3804FF480710120F4
:1046C800FCF7A0FA4FF4E0610220FCF79BFA41F2F4
:1046D80030010320FCF796FA00210420FCF792FA37
:1046E80040F207210820FCF78DFA00210920FCF789
:1046F80089FA00210A20FCF785FA00210C20FCF732
:1047080081FA00210D20FCF77DFA00210F20FCF72B
:1047180079FA142001F05AFB41F2B0611020FCF73D
:1047280071FA01211120FCF76DFA01211720FCF71D
:1047380069FA4FF49C711220FCF764FA4FF4006197
:104748001320FCF75FFA09212920FCF75BFA0921FD
:104758002A20FCF757FA0021A420FCF753FA00217D
:104768005020FCF74FFAEF215120FCF74BFA0021BB
:104778005220FCF747FA40F23F115320FCF742FA67
:104788004FF41C516020FCF73DFA01216120FCF731
:1047980039FA00216A20FCF735FA00218020FCF75D
:1047A80031FA00218120FCF72DFA00218220FCF744
:1047B80029FA00218320FCF725FA00218420FCF740
:1047C80021FA00218520FCF71DFA13219020FCF71F
:1047D80019FA00219220FCF715FA03219320FCF71F
:1047E80011FA4FF488719520FCF70CFA40F2731116
:1047F8000720FCF707FA322001F0E8FA01F0F2B8D6
:104808008D4B9B8841F20552934240F0178100215D
:104818000720FCF7F7F9322001F0D8FA4FF48E712F
:104828001220FCF7EFF90121A420FCF7EBF90F2186
:104838000820FCF7E7F908210A20FCF7E3F908212A
:104848000D20FCF7DFF940F207713020FCF7DAF9A8
:1048580007213120FCF7D6F940F203613220FCF73A
:10486800D1F94FF4E0613320FCF7CCF940F2022192
:104878003420FCF7C7F902213520FCF7C3F941F6CB
:104888000F713620FCF7BEF940F207713720FCF7AC
:10489800B9F900213820FCF7B5F900213920FCF7D7
:1048A800B1F940F207713A20FCF7ACF900213B203E
:1048B800FCF7A8F907213C20FCF7A4F900213D20CA
:1048C800FCF7A0F9322001F081FA01210720FCF75A
:1048D80099F901211720FCF795F9322001F076FAB1
:1048E8004FF4BD511020FCF78DF940F2172111202B
:1048F800FCF788F94FF48F711220FCF783F94FF415
:1049080070611320FCF77EF900212A20FCF77AF960
:104918000A212920FCF776F94FF49F711220FCF741
:1049280071F900215020FCF76DF9EF215120FCF7B7
:1049380069F900215220FCF765F940F23F11532034
:10494800FCF760F94FF41C516020FCF75BF901217A
:104958006120FCF757F900216A20FCF753F9002180
:104968008020FCF74FF900218120FCF74BF900214A
:104978008220FCF747F900218320FCF743F9002146
:104988008420FCF73FF900218520FCF73BF913212F
:104998009020FCF737F94FF440719220FCF732F978
:1049A80005219320FCF72EF900219520FCF72AF920
:1049B80000219720FCF726F900219820FCF722F91E
:1049C8004FF480710120FCF71DF94FF4E0610220DB
:1049D800FCF718F941F238010320FCF713F900211C
:1049E8000420FCF70FF900210C20FCF70BF900213B
:1049F8000F20FCF707F900212020FCF703F900211C
:104A08002120FCF7FFF821210720FCF7FBF81420F0
:104A180001F0DCF961210720FCF7F4F8142001F01B
:104A2800D5F940F273110720FCF7ECF8142001F0D7
:104A3800CDF900F0D7BF00BF28000020F04B9B88BD
:104A48004BF20552934240F0038100210020FCF70D
:104A5800D9F800210020FCF7D5F800210020FCF748
:104A6800D1F800210020FCF7CDF80121A420FCF7A3
:104A7800C9F8142001F0AAF94FF41C516020FCF782
:104A8800C1F840F202210820FCF7BCF84FF4057188
:104A98003020FCF7B7F843F215713120FCF7B2F873
:104AA80040F204613220FCF7ADF840F6166133207D
:104AB800FCF7A8F842F211213420FCF7A3F84FF4D0
:104AC800A8513520FCF79EF848F207513620FCF72C
:104AD80099F841F207413720FCF794F841F2034175
:104AE8003820FCF78FF820213920FCF78BF81A21A1
:104AF8009020FCF787F800211020FCF783F80721A5
:104B08001120FCF77FF800211220FCF77BF8002128
:104B18001320FCF777F8142001F058F94FF4E661F8
:104B28001020FCF76FF840F237111120FCF76AF8F3
:104B3800142001F04BF94FF4DC711220FCF762F8F5
:104B4800142001F043F94FF470611320FCF75AF870
:104B580080212A20FCF756F848212920FCF752F832
:104B6800142001F033F94FF480710120FCF74AF862
:104B78004FF4E0610220FCF745F841F238010320C8
:104B8800FCF740F840F202210820FCF73BF800212E
:104B98000A20FCF737F800210C20FCF733F8002135
:104BA8000D20FCF72FF830210E20FCF72BF8002100
:104BB8005020FCF727F8EF215120FCF723F80021BB
:104BC8005220FCF71FF840F23F115320FCF71AF867
:104BD8004FF41C516020FCF715F801216120FCF707
:104BE80011F800216A20FCF70DF811219020FCF73C
:104BF80009F84FF4C0619220FCF704F840F2024132
:104C08009320FBF7FFFF02219420FBF7FBFF142002
:104C180001F0DCF801210720FBF7F4FF142001F074
:104C2800D5F861210720FBF7EDFF40F2731107204B
:104C3800FBF7E8FF00212020FBF7E4FF00212120FB
:104C4800FBF7E0FF22210020FBF7DCFF00F0CABEE3
:104C58006B4B9B884CF20552934240F0D380002165
:104C68000020FBF7CFFF00210020FBF7CBFF14202B
:104C780001F0ACF800210020FBF7C4FF0021002060
:104C8800FBF7C0FF00210020FBF7BCFF002100203C
:104C9800FBF7B8FF0121A420FBF7B4FF142001F0B3
:104CA80095F84FF41C516020FBF7ACFF40F6060165
:104CB8000820FBF7A7FF40F203713020FBF7A2FFA3
:104CC80001213120FBF79EFF04213220FBF79AFFD8
:104CD8004FF481713320FBF795FF4FF44071342076
:104CE800FBF790FF40F203113520FBF78BFF1F21E4
:104CF8003620FBF787FF40F203713720FBF782FF6E
:104D080001213820FBF77EFF04213920FBF77AFFC9
:104D180015219020FBF776FF4FF482611020FBF7F6
:104D280071FF40F247211120FBF76CFF4FF4DE7151
:104D38001220FBF767FF4FF460611320FBF762FF57
:104D4800782001F043F84FF480710120FBF75AFFF7
:104D58004FF400710220FBF755FF41F230010320A8
:104D6800FBF750FF08210A20FBF74CFF00210C201D
:104D7800FBF748FF20210E20FBF744FF00210F20FE
:104D8800FBF740FF00212020FBF73CFF00212120FA
:104D9800FBF738FF3D212A20FBF734FF142001F0F0
:104DA80015F82D212920FBF72DFF00215020FBF7B6
:104DB80029FF4DF2EF015120FBF724FF002152207B
:104DC800FBF720FF40F23F115320FBF71BFF0021A8
:104DD8006120FBF717FF00216A20FBF713FF4FF450
:104DE80040719220FBF70EFF05219320FBF70AFF85
:104DF8004FF480710720FBF705FF00F0F3BD00BFFB
:104E080028000020C24B9B8848F68912934240F044
:104E1800BC8001210020FBF7F5FE4AF6A40103201F
:104E2800FBF7F0FE00210C20FBF7ECFE40F60C012E
:104E38000D20FBF7E7FE4FF42C510E20FBF7E2FEA6
:104E4800B0211E20FBF7DEFE42F63F310120FBF7C2
:104E5800D9FE4FF4C0610220FBF7D4FE00211020D8
:104E6800FBF7D0FE46F278011120FBF7CBFE0021BC
:104E78000520FBF7C7FE00210620FBF7C3FE4EF610
:104E88001C711620FBF7BEFE03211720FBF7BAFEA4
:104E980040F233210720FBF7B5FE00210B20FBF77A
:104EA800B1FE00210F20FBF7ADFE00214120FBF7EA
:104EB800A9FE00214220FBF7A5FE00214820FBF7B0
:104EC800A1FE40F23F114920FBF79CFE00214A2039
:104ED800FBF798FE00214B20FBF794FE4FF46F413F
:104EE8004420FBF78FFE00214520FBF78BFE40F2A4
:104EF8003F114620FBF786FE40F207713020FBF792
:104F080081FE4FF401713120FBF77CFE4FF40171F3
:104F18003220FBF777FE40F202513320FBF772FE96
:104F280040F207513420FBF76DFE4FF40171352034
:104F3800FBF768FE4FF401713620FBF763FE40F281
:104F480002513720FBF75EFE40F202313A20FBF7B0
:104F580059FE40F202313B20FBF754FE002123208A
:104F6800FBF750FE00212420FBF74CFE4FF40041D4
:104F78002520FBF747FE00214F20FBF743FE0021C9
:104F88004E20FBF73FFE00F02DBD614B9B8844F29D
:104F98003152934240F0BE8001210020FBF732FEDF
:104FA8000A2000F013FF41F228611020FBF72AFEC7
:104FB8000E211220FBF726FE40F639211320FBF7BD
:104FC80021FE0A2000F002FF40211120FBF71AFE03
:104FD80050211520FBF716FE0A2000F0F7FE1E21CF
:104FE8001220FBF70FFE0A2000F0F0FE4FF4B1513B
:104FF8001020FBF707FE42F639211320FBF702FECB
:105008000A2000F0E3FE4FF480710120FBF7FAFD5F
:105018004FF440710220FBF7F5FD41F238010320FF
:10502800FBF7F0FD40F202210820FBF7EBFD082119
:105038000A20FBF7E7FD00213020FBF7E3FD40F2F3
:1050480002413120FBF7DEFD4FF483713220FBF77C
:10505800D9FD40F203513320FBF7D4FD4FF48271A0
:105068003420FBF7CFFD40F201313520FBF7CAFDB4
:1050780040F207713620FBF7C5FD40F205313720B5
:10508800FBF7C0FD4FF402713820FBF7BBFD40F67B
:105098000B713920FBF7B6FD02214120FBF7B2FD69
:1050A8004FF41C516020FBF7ADFD01216120FBF797
:1050B800A9FD4FF404719020FBF7A4FD4FF485710E
:1050C8009220FBF79FFD04219320FBF79BFD4FF4F3
:1050D8008071A020FBF796FD01210720FBF792FDC8
:1050E80021210720FBF78EFD23210720FBF78AFDEE
:1050F80033210720FBF786FD40F233110720FBF729
:1051080081FD0021A020FBF77DFD00F06BBC00BFF6
:10511800280000205B4B9B8844F23552934240F0B4
:10512800B38030211520FBF76DFD10219A20FBF785
:1051380069FD20211120FBF765FD43F2284110206D
:10514800FBF760FD02211220FBF75CFD41F23801FC
:105158001320FBF757FD282000F038FE12211220FB
:10516800FBF750FD282000F031FE43F220411020CB
:10517800FBF748FD43F238011320FBF743FD4620B7
:1051880000F024FE00213020FBF73CFD40F20241F4
:105198003120FBF737FD40F207313220FBF732FDB3
:1051A8004FF441713320FBF72DFD04213420FBF728
:1051B80029FD40F201413520FBF724FD40F207713B
:1051C8003620FBF71FFD40F205313720FBF71AFDAB
:1051D8004FF4C2613820FBF715FD4FF4C261392046
:1051E800FBF710FD4FF480710120FBF70BFD4FF426
:1051F80040710220FBF706FD41F230010320FBF766
:1052080001FD40F608010820FBF7FCFC08210A20F4
:10521800FBF7F8FC4FF41C516020FBF7F3FC01216D
:105228006120FBF7EFFC4FF49F719020FBF7EAFC3D
:105238004FF480719220FBF7E5FC4FF480719320C6
:10524800FBF7E0FC4FF44051A020FBF7DBFC1021FA
:10525800A320FBF7D7FC01210720FBF7D3FC212172
:105268000720FBF7CFFC23210720FBF7CBFC3321DA
:105278000720FBF7C7FC40F233110720FBF7C2FCFD
:10528800B0E300BF28000020A84B9B8841F66312BA
:10529800934240F0A783E220FBF728FCA44B4FF48D
:1052A80080721A61A24B4FF400725A61A14B1D2201
:1052B800DA609F4B80225A619D4B80221A619C4B79
:1052C8004FF400721A619A4B4FF480721A61984B2E
:1052D8004FF400725A61974B0222DA60944B802295
:1052E8005A61934B80221A61914B4FF400721A61F4
:1052F8008F4B4FF480721A618D4B4FF400725A61D4
:105308008C4B0422DA608A4B80225A61884B8022B7
:105318001A61874B4FF400721A61012000F056FDA4
:10532800E020FBF7E3FB824B4FF480721A61804B5D
:105338004FF400725A617F4B0122DA607C4B802265
:105348005A617B4B80221A61794B4FF400721A61C3
:105358000A2000F03BFDE020FBF7C8FB744B4FF43C
:1053680080721A61724B4FF400725A61714B0322BA
:10537800DA606F4B80225A616D4B80221A616C4B48
:105388004FF400721A610C2000F020FD0120FBF799
:10539800ADFB0A2000F01AFDE620FBF7A7FB644BE3
:1053A8004FF480721A61624B4FF400725A61614B7C
:1053B8002F22DA605E4B80225A615D4B80221A618F
:1053C8005B4B4FF400721A61594B4FF480721A61AB
:1053D800574B4FF400725A61564BFF22DA60544B18
:1053E80080225A61524B80221A61514B4FF400724D
:1053F8001A614F4B4FF480721A614D4B4FF4007293
:105408005A614C4BFF22DA60494B80225A61484B63
:1054180080221A61464B4FF400721A61B020FBF7E4
:1054280065FB434B4FF480721A61414B4FF4007295
:105438005A61404B2022DA603D4B80225A613C4B36
:1054480080221A613A4B4FF400721A61384B4FF4BC
:1054580080721A61364B4FF400725A61354B002244
:10546800DA60334B80225A61314B80221A61304B0B
:105478004FF400721A612E4B4FF480721A612C4B54
:105488004FF400725A612B4B0322DA60284B8022BA
:105498005A61274B80221A61254B4FF400721A611A
:1054A800234B4FF480721A61214B4FF400725A61FA
:1054B800204B40F21F32DA601D4B80225A611C4B90
:1054C80080221A611A4B4FF400721A61184B4FF47C
:1054D80080721A61164B4FF400725A61154B012203
:1054E800DA60134B80225A61114B80221A61104BEB
:1054F8004FF400721A610E4B4FF480721A610C4B14
:105508004FF400725A610B4B40F2DF12DA60084B1D
:1055180080225A61064B80221A61054B4FF40072B3
:105528001A61034B4FF4807206E000BF2800002088
:1055380000100140000C01401A61A34B4FF40072A7
:105548005A61A24B0022DA609F4B80225A619E4B1F
:1055580080221A619C4B4FF400721A61B420FBF749
:10556800C5FA994B4FF480721A61974B4FF4007249
:105578005A61964B0422DA60934B80225A61924B0F
:1055880080221A61904B4FF400721A618E4B4FF4CF
:1055980080721A618C4B4FF400725A618B4B40F247
:1055A8001F42DA60884B80225A61874B80221A6139
:1055B800854B4FF400721A61834B4FF480721A6165
:1055C800814B4FF400725A61804B0022DA607E4BA7
:1055D80080225A617C4B80221A617B4B4FF4007207
:1055E8001A61794B4FF480721A61774B4FF400724D
:1055F8005A61764B2E22DA60734B80225A61724BC5
:1056080080221A61704B4FF400721A616E4B4FF48E
:1056180080721A616C4B4FF400725A616B4B002216
:10562800DA60694B80225A61674B80221A61664BA7
:105638004FF400721A61644B4FF480721A61624B26
:105648004FF400725A61614B0022DA605E4B80228F
:105658005A615D4B80221A615B4B4FF400721A61EC
:10566800594B4FF480721A61574B4FF400725A61CC
:10567800564B0022DA60544B80225A61524B8022EA
:105688001A61514B4FF400721A614F4B4FF48072FC
:105698001A614D4B4FF400725A614C4B0022DA608C
:1056A800494B80225A61484B80221A61464B4FF47D
:1056B80000721A61B620FBF719FA434B4FF4807257
:1056C8001A61414B4FF400725A61404B0222DA6072
:1056D8003D4B80225A613C4B80221A613A4B4FF471
:1056E80000721A61384B4FF480721A61364B4FF4CE
:1056F80000725A61354B4FF40372DA60324B8022E4
:105708005A61314B80221A612F4B4FF400721A6193
:105718002D4B4FF480721A612B4B4FF400725A6173
:105728002A4B0022DA60284B80225A61264B8022BD
:105738001A61254B4FF400721A61234B4FF48072A3
:105748001A61214B4FF400725A61204B1722DA601C
:105758001D4B80225A611C4B80221A611A4B4FF450
:1057680000721A61184B4FF480721A61164B4FF48D
:1057780000725A61154B1522DA60134B80225A6168
:10578800114B80221A61104B4FF400721A610E4BB4
:105798004FF480721A610C4B4FF400725A610B4B34
:1057A8000022DA60084B80225A61074B80221A6176
:1057B800054B4FF400721A61034B4FF480721A6163
:1057C800014B4FF4007203E000100140000C01404F
:1057D8005A618B4B0022DA608A4B80225A61894BCE
:1057E80080221A61874B4FF400721A61F020FBF790
:1057F8007DF9844B4FF480721A61824B4FF400722A
:105808005A617F4B0322DA607E4B80225A617D4BBE
:1058180080221A617B4B4FF400721A612920FBF732
:1058280065F9D020FBF762F9764B4FF480721A6164
:10583800744B4FF400725A61714B0022DA60714B5D
:1058480080225A616F4B80221A616E4B4FF40072AE
:105858001A61BE20FBF74AF96A4B4FF480721A614D
:10586800684B4FF400725A61654B0522DA60654B4C
:1058780080225A61634B80221A61624B4FF4007296
:105888001A61604B4FF480721A615E4B4FF40072DC
:105898005A615B4BFE22DA605A4B80225A61594B9F
:1058A80080221A61574B4FF400721A61554B4FF41E
:1058B80080721A61534B4FF400725A61504B0122A7
:1058C800DA60504B80225A614E4B80221A614D4B50
:1058D8004FF400721A614B4B4FF480721A61494BB6
:1058E8004FF400725A61464B0022DA60454B802221
:1058F8005A61444B80221A61424B4FF400721A617C
:10590800404B4FF480721A613E4B4FF400725A615B
:105918003B4B0022DA603B4B80225A61394B802294
:105928001A61384B4FF400721A61364B4FF480728B
:105938001A61344B4FF400725A61314B0022DA601D
:10594800304B80225A612F4B80221A612D4B4FF425
:1059580000721A61B820FBF7C9F82A4B4FF480721D
:105968001A61284B4FF400725A61254B0322DA6002
:10597800244B80225A61234B80221A61214B4FF419
:1059880000721A611F4B4FF480721A611D4B4FF45D
:1059980000725A611A4B0122DA601A4B80225A614E
:1059A800184B80221A61174B4FF400721A61BA2003
:1059B800FBF79CF8134B4FF480721A61114B4FF4AC
:1059C80000725A610E4B0122DA600E4B80225A6136
:1059D8000C4B80221A610B4B4FF400721A61642041
:1059E800FBF736FF0020FBF7D7FF074B01221A60B1
:1059F8004FF6FF7000F00AF800BF1837BD4680BDAB
:105A0800000C014000100140A801224280B584B07A
:105A180000AF0346FB800023FB602A4B1B88BB605A
:105A2800284B5B881A46BB6802FB03F3BB60254B17
:105A38009B8846F6040293421AD1224B9B79012B8C
:105A480016D1204B00229A711E4B2A225A811D4BD7
:105A58002B229A8100210020FBF71AF9194B012209
:105A68009A71184B2B225A81164B2A229A8103E0ED
:105A780000210020FBF70CF9FBF7FEF80023FB6080
:105A880017E0114B4FF480721A610F4B4FF40072FC
:105A98005A610E4AFB88D3600B4B80225A610A4B2D
:105AA80080221A61084B4FF400721A61FB680133B7
:105AB800FB60FA68BB689A42E3D300BF1037BD4663
:105AC80080BD00BF2800002000100140000C0140EC
