:020000040800F2
:1000000000C00020F99E00083D8A0008498A0008C7
:100010004F8A0008558A00085B8A0008000000002B
:10002000000000000000000000000000618A0008DD
:100030006D8A000800000000798A0008858A00089F
:10004000419F0008419F0008419F0008419F000810
:10005000419F0008419F0008918A0008419F0008C5
:10006000419F0008419F0008419F0008419F0008F0
:10007000419F0008419F0008419F0008419F0008E0
:10008000419F0008419F0008419F0008419F0008D0
:10009000419F0008419F0008419F00089F8A000877
:1000A000419F0008419F0008419F0008419F0008B0
:1000B000419F0008419F0008419F0008419F0008A0
:1000C000419F0008419F0008419F0008419F000890
:1000D000419F0008419F0008419F0008419F000880
:1000E000AD8A0008419F0008419F0008419F000819
:1000F000419F0008419F0008419F0008419F000860
:10010000419F0008419F0008419F0008419F00084F
:10011000419F0008419F0008419F0008419F00083F
:10012000419F0008419F0008419F0008419F00082F
:1001300000000000000000000000000000000000BF
:1001400000000000000000000000000000000000AF
:10015000000000000000000000000000000000009F
:10016000000000000000000000000000000000008F
:10017000000000000000000000000000000000007F
:10018000000000000000000000000000000000006F
:10019000000000000000000000000000000000005F
:1001A000000000000000000000000000000000004F
:1001B000000000000000000000000000000000003F
:1001C000000000000000000000000000000000002F
:1001D000000000000000000000000000000000001F
:0401E0005FF8E0F1F3
:1001E80010B5054C237833B9044B13B10448AFF369
:1001F80000800123237010BDFC02002000000000D5
:10020800BCC1000808B5034B1BB103490348AFF351
:10021800008008BD0000000000030020BCC10008E9
:10022800034613F8012B002AFBD1181A013870472E
:1002380081F0004102E000BF83F0004330B54FEA8F
:1002480041044FEA430594EA050F08BF90EA020FFC
:100258001FBF54EA000C55EA020C7FEA645C7FEA8F
:10026800655C00F0E2804FEA5454D4EB5555B8BFB2
:100278006D420CDD2C4480EA020281EA030382EA23
:10028800000083EA010180EA020281EA0303362DB5
:1002980088BF30BD11F0004F4FEA01314FF4801C88
:1002A8004CEA113102D0404261EB410113F0004F9A
:1002B8004FEA03334CEA133302D0524263EB430351
:1002C80094EA050F00F0A780A4F10104D5F1200EEF
:1002D8000DDB02FA0EFC22FA05F2801841F100014A
:1002E80003FA0EF2801843FA05F359410EE0A5F11E
:1002F80020050EF1200E012A03FA0EFC28BF4CF04F
:10030800020C43FA05F3C01851EBE37101F0004504
:1003180007D54FF0000EDCF1000C7EEB00006EEB11
:100328000101B1F5801F1BD3B1F5001F0CD349089B
:100338005FEA30004FEA3C0C04F101044FEA4452F2
:1003480012F5800F80F09A80BCF1004F08BF5FEA79
:10035800500C50F1000041EB045141EA050130BD59
:100368005FEA4C0C404141EB010111F4801FA4F1FC
:100378000104E9D191F0000F04BF01460020B1FA51
:1003880081F308BF2033A3F10B03B3F120020CDA89
:100398000C3208DD02F1140CC2F10C0201FA0CF067
:1003A80021FA02F10CE002F11402D8BFC2F1200CCC
:1003B80001FA02F120FA0CFCDCBF41EA0C01904082
:1003C800E41AA2BF01EB0451294330BD6FEA0404CB
:1003D8001F3C1CDA0C340EDC04F11404C4F12002B6
:1003E80020FA04F001FA02F340EA030021FA04F3C8
:1003F80045EA030130BDC4F10C04C4F1200220FA1F
:1004080002F001FA04F340EA0300294630BD21FA5C
:1004180004F0294630BD94F0000F83F4801306BF22
:1004280081F480110134013D4EE77FEA645C18BF16
:100438007FEA655C29D094EA050F08BF90EA020FAD
:1004480005D054EA000C04BF1946104630BD91EAA5
:10045800030F1EBF0021002030BD5FEA545C05D1A8
:100468004000494128BF41F0004130BD14F58004E7
:100478003CBF01F5801130BD01F0004545F0FE415B
:1004880041F470014FF0000030BD7FEA645C1ABF90
:10049800194610467FEA655C1CBF0B46024650EAC7
:1004A800013406BF52EA033591EA030F41F40021F3
:1004B80030BD00BF90F0000F04BF0021704730B579
:1004C8004FF4806404F132044FF000054FF000014E
:1004D80050E700BF90F0000F04BF0021704730B50F
:1004E8004FF4806404F1320410F0004548BF4042E4
:1004F8004FF000013EE700BF42004FEAE2014FEA39
:1005080031014FEA02701FBF12F07F4393F07F4F13
:1005180081F06051704732F07F4208BF704793F016
:100528007F4F04BF41F40021704730B54FF4607429
:1005380001F0004521F000411CE700BF50EA01022C
:1005480008BF704730B54FF000050AE050EA0102D5
:1005580008BF704730B511F0004502D5404261EB45
:1005680041014FF4806404F132045FEA915C3FF486
:10057800D8AE4FF003025FEADC0C18BF03325FEA23
:10058800DC0C18BF033202EBDC02C2F1200300FAD4
:1005980003FC20FA02F001FA03FE40EA0E0021FAF9
:1005A80002F11444BDE600BF70B54FF0FF0C4CF4E7
:1005B800E06C1CEA11541DBF1CEA135594EA0C0F99
:1005C80095EA0C0F00F0DEF82C4481EA030621EAD4
:1005D8004C5123EA4C5350EA013518BF52EA03350F
:1005E80041F4801143F4801338D0A0FB02CE4FF0C1
:1005F8000005E1FB02E506F00042E0FB03E54FF0F1
:100608000006E1FB03569CF0000F18BF4EF0010EE8
:10061800A4F1FF04B6F5007F64F5407404D25FEAE4
:100628004E0E6D4146EB060642EAC62141EA555197
:100638004FEAC52040EA5E504FEACE2EB4F1FD0CD9
:1006480088BFBCF5E06F1ED8BEF1004F08BF5FEA57
:10065800500E50F1000041EB045170BD06F0004609
:1006680046EA010140EA020081EA0301B4EB5C04B6
:10067800C2BFD4EB0C0541EA045170BD41F48011AE
:100688004FF0000E013C00F3AB8014F1360FDEBFD3
:10069800002001F0004170BDC4F10004203C35DAAF
:1006A8000C341BDC04F11404C4F1200500FA05F332
:1006B80020FA04F001FA05F240EA020001F00042D3
:1006C80021F0004110EBD37021FA04F642EB060149
:1006D8005EEA430E08BF20EAD37070BDC4F10C0473
:1006E800C4F1200500FA04F320FA05F001FA04F237
:1006F80040EA020001F0004110EBD37041F1000123
:100708005EEA430E08BF20EAD37070BDC4F120052D
:1007180000FA05F24EEA020E20FA04F301FA05F295
:1007280043EA020321FA04F001F0004121FA04F23D
:1007380020EA020000EBD3705EEA430E08BF20EA0D
:10074800D37070BD94F0000F0FD101F00046400047
:1007580041EB010111F4801F08BF013CF7D041EAC9
:10076800060195F0000F18BF704703F000465200CD
:1007780043EB030313F4801F08BF013DF7D043EA9E
:100788000603704794EA0C0F0CEA135518BF95EA54
:100798000C0F0CD050EA410618BF52EA4306D1D1DB
:1007A80081EA030101F000414FF0000070BD50EAFA
:1007B800410606BF1046194652EA430619D094EA84
:1007C8000C0F02D150EA013613D195EA0C0F05D16E
:1007D80052EA03361CBF104619460AD181EA0301C2
:1007E80001F0004141F0FE4141F470014FF000007A
:1007F80070BD41F0FE4141F4780170BD70B54FF015
:10080800FF0C4CF4E06C1CEA11541DBF1CEA135594
:1008180094EA0C0F95EA0C0F00F0A7F8A4EB050476
:1008280081EA030E52EA03354FEA013100F088806D
:100838004FEA03334FF0805545EA131343EA126336
:100848004FEA022245EA111545EA10654FEA0026EB
:100858000EF000419D4208BF964244F1FD0404F5A4
:10086800407402D25B084FEA3202B61A65EB030500
:100878005B084FEA32024FF480104FF4002CB6EBBD
:10088800020E75EB030E22BFB61A754640EA0C003D
:100898005B084FEA3202B6EB020E75EB030E22BF7D
:1008A800B61A754640EA5C005B084FEA3202B6EBBE
:1008B800020E75EB030E22BFB61A754640EA9C007D
:1008C8005B084FEA3202B6EB020E75EB030E22BF4D
:1008D800B61A754640EADC0055EA060E18D04FEA0B
:1008E800051545EA16754FEA06164FEAC30343EAAB
:1008F80052734FEAC2025FEA1C1CC0D111F4801F78
:100908000BD141EA00014FF000004FF0004CB6E770
:1009180011F4801F04BF01430020B4F1FD0C88BF0F
:10092800BCF5E06F3FF6AFAEB5EB030C04BFB6EB1A
:10093800020C5FEA500C50F1000041EB045170BD0D
:100948000EF0004E4EEA113114EB5C04C2BFD4EB3A
:100958000C0541EA045170BD41F480114FF0000EBE
:10096800013C90E645EA060E8DE60CEA135594EA3A
:100978000C0F08BF95EA0C0F3FF43BAF94EA0C0F3D
:100988000AD150EA01347FF434AF95EA0C0F7FF4B2
:1009980025AF104619462CE795EA0C0F06D152EA06
:1009A80003353FF4FDAE1046194622E750EA4106EA
:1009B80018BF52EA43067FF4C5AE50EA41047FF4FB
:1009C8000DAF52EA43057FF4EBAE12E74FF0FF3C60
:1009D80006E000BF4FF0010C02E000BF4FF0010C31
:1009E8004DF804CD4FEA410C7FEA6C5C4FEA430CAA
:1009F80018BF7FEA6C5C1BD001B050EA410C0CBFF9
:100A080052EA430C91EA030F02BF90EA020F00205A
:100A1800704710F1000F91EA030F58BF994208BFC1
:100A280090422CBFD8176FEAE37040F0010070477E
:100A38004FEA410C7FEA6C5C02D150EA013C07D1D5
:100A48004FEA430C7FEA6C5CD6D152EA033CD3D020
:100A58005DF8040B704700BF8446104662468C461A
:100A68001946634600E000BF01B5FFF7B7FF00284D
:100A780048BF10F1000F01BD4DF808EDFFF7F4FF76
:100A88000CBF012000205DF808FB00BF4DF808ED01
:100A9800FFF7EAFF34BF012000205DF808FB00BF24
:100AA8004DF808EDFFF7E0FF94BF012000205DF846
:100AB80008FB00BF4DF808EDFFF7CEFF94BF0120FB
:100AC80000205DF808FB00BF4DF808EDFFF7C4FFF4
:100AD80034BF012000205DF808FB00BF4FEA410C3D
:100AE8007FEA6C5C02D150EA013C0AD14FEA430C20
:100AF8007FEA6C5C02D152EA033C02D14FF000005D
:100B080070474FF0010070474FEA410212F500129A
:100B180015D211D56FF47873B3EB625212D94FEA3C
:100B2800C12343F0004343EA505311F0004F23FA26
:100B380002F018BF404270474FF00000704750EA7B
:100B4800013005D111F0004008BF6FF00040704738
:100B58004FF00000704700BF4A0011D212F5001292
:100B680011D20DD56FF47873B3EB62520ED44FEAFD
:100B7800C12343F0004343EA505323FA02F070477D
:100B88004FF00000704750EA013002D14FF0FF30BB
:100B980070474FF00000704780F0004002E000BF4F
:100BA80081F0004142001FBF5FEA410392EA030F50
:100BB8007FEA226C7FEA236C6AD04FEA1262D2EB9A
:100BC8001363C1BFD218414048404140B8BF5B429F
:100BD800192B88BF704710F0004F40F4000020F038
:100BE8007F4018BF404211F0004F41F4000121F04E
:100BF8007F4118BF494292EA030F3FD0A2F1010298
:100C080041FA03FC10EB0C00C3F1200301FA03F1D5
:100C180000F0004302D5494260EB4000B0F5000FF8
:100C280013D3B0F1807F06D340084FEA310102F1B7
:100C38000102FE2A51D2B1F1004F40EBC25008BF69
:100C480020F0010040EA03007047490040EB000033
:100C580010F4000FA2F10102EDD1B0FA80FCACF162
:100C6800080CB2EB0C0200FA0CF0AABF00EBC25061
:100C780052421843BCBFD0401843704792F0000F4F
:100C880081F4000106BF80F400000132013BB5E7A2
:100C98004FEA41037FEA226C18BF7FEA236C21D018
:100CA80092EA030F04D092F0000F08BF084670477D
:100CB80090EA010F1CBF0020704712F07F4F04D14B
:100CC800400028BF40F00040704712F100723CBF5E
:100CD80000F50000704700F0004343F0FE4040F488
:100CE800000070477FEA226216BF08467FEA236346
:100CF8000146420206BF5FEA412390EA010F40F431
:100D0800800070474FF0000304E000BF10F000437C
:100D180048BF40425FEA000C08BF704743F0964363
:100D280001464FF000001CE050EA010208BF70477E
:100D38004FF000030AE000BF50EA010208BF704705
:100D480011F0004302D5404261EB41015FEA010C1A
:100D580002BF84460146002043F0B64308BFA3F112
:100D68008053A3F50003BCFA8CF2083AA3EBC253F4
:100D780010DB01FA02FC634400FA02FCC2F1200213
:100D8800BCF1004F20FA02F243EB020008BF20F04A
:100D98000100704702F1200201FA02FCC2F12002B0
:100DA80050EA4C0021FA02F243EB020008BF20EAA5
:100DB800DC7070474FF0FF0C1CEAD0521EBF1CEAD3
:100DC800D15392EA0C0F93EA0C0F6FD01A4480EAC1
:100DD800010C400218BF5FEA41211ED04FF00063AA
:100DE80043EA501043EA5111A0FB01310CF00040D6
:100DF800B1F5000F3EBF490041EAD3715B0040EAFC
:100E0800010062F17F02FD2A1DD8B3F1004F40EBCB
:100E1800C25008BF20F00100704790F0000F0CF09E
:100E2800004C08BF49024CEA502040EA51207F3A62
:100E3800C2BFD2F1FF0340EAC250704740F400003D
:100E48004FF00003013A5DDC12F1190FDCBF00F02E
:100E580000407047C2F10002410021FA02F1C2F1DC
:100E6800200200FA02FC5FEA310040F1000053EA78
:100E78004C0308BF20EADC70704792F0000F00F0C6
:100E8800004C02BF400010F4000F013AF9D040EACC
:100E98000C0093F0000F01F0004C02BF490011F460
:100EA800000F013BF9D041EA0C018FE70CEAD1535E
:100EB80092EA0C0F18BF93EA0C0F0AD030F0004CDE
:100EC80018BF31F0004CD8D180EA010000F0004092
:100ED800704790F0000F17BF90F0004F084691F050
:100EE800000F91F0004F14D092EA0C0F01D142028A
:100EF8000FD193EA0C0F03D14B0218BF084608D153
:100F080080EA010000F0004040F0FE4040F400009C
:100F1800704740F0FE4040F4400070474FF0FF0C2F
:100F28001CEAD0521EBF1CEAD15392EA0C0F93EA76
:100F38000C0F69D0A2EB030280EA010C49024FEAC8
:100F4800402037D04FF0805343EA111143EA101381
:100F58000CF000408B4238BF5B0042F17D024FF439
:100F6800000C8B4224BF5B1A40EA0C00B3EB510F14
:100F780024BFA3EB510340EA5C00B3EB910F24BFFD
:100F8800A3EB910340EA9C00B3EBD10F24BFA3EB82
:100F9800D10340EADC001B0118BF5FEA1C1CE0D14A
:100FA800FD2A3FF650AF8B4240EBC25008BF20F0FD
:100FB800010070470CF0004C4CEA50207F32C2BF51
:100FC800D2F1FF0340EAC250704740F400004FF0EE
:100FD8000003013A37E792F0000F00F0004C02BF1F
:100FE800400010F4000F013AF9D040EA0C0093F0E9
:100FF800000F01F0004C02BF490011F4000F013B43
:10100800F9D041EA0C0195E70CEAD15392EA0C0FAA
:1010180008D142027FF47DAF93EA0C0F7FF470AFE2
:10102800084676E793EA0C0F04D14B023FF44CAF25
:1010380008466EE730F0004C18BF31F0004CCAD1BA
:1010480030F000427FF45CAF31F000437FF43CAFF6
:101058005FE700BF4FF0FF3C06E000BF4FF0010C18
:1010680002E000BF4FF0010C4DF804CD4FEA4002FA
:101078004FEA41037FEA226C18BF7FEA236C11D044
:1010880001B052EA530C18BF90EA010F58BFB2EBF7
:10109800030088BFC81738BF6FEAE17018BF40F077
:1010A800010070477FEA226C02D15FEA402C05D12B
:1010B8007FEA236CE4D15FEA412CE1D05DF8040BB0
:1010C800704700BF844608466146FFE70FB5FFF743
:1010D800C9FF002848BF10F1000F0FBD4DF808EDFB
:1010E800FFF7F4FF0CBF012000205DF808FB00BFEC
:1010F8004DF808EDFFF7EAFF34BF012000205DF846
:1011080008FB00BF4DF808EDFFF7E0FF94BF012092
:1011180000205DF808FB00BF4DF808EDFFF7D2FF8F
:1011280094BF012000205DF808FB00BF4DF808EDD2
:10113800FFF7C8FF34BF012000205DF808FB00BF9F
:101148004FEA4002B2F1FE4F0FD34FF09E03B3EBCC
:1011580012620DD94FEA002343F0004310F0004F0C
:1011680023FA02F018BF404270474FF00000704762
:1011780012F1610F01D1420205D110F0004008BF01
:101188006FF0004070474FF00000704742000ED2E9
:10119800B2F1FE4F0BD34FF09E03B3EB126209D4AA
:1011A8004FEA002343F0004323FA02F070474FF060
:1011B8000000704712F1610F01D1420202D14FF0D5
:1011C800FF3070474FF00000704700BF80B500AF98
:1011D800084B1B68074A43F010031360032000F014
:1011E80045F9002000F008F807F0F0FB0023184646
:1011F80080BD00BF0020024080B582B000AF78609B
:10120800124B1A68124B1B7819464FF47A73B3FBCA
:10121800F1F3B2FBF3F3184600F05DF90346002B37
:1012280001D001230EE07B680F2B0AD800227968D1
:101238004FF0FF3000F025F9064A7B681360002361
:1012480000E0012318460837BD4680BD080000208D
:10125800040000200000002080B400AF054B1B787C
:101268001A46054B1B681344034A136000BFBD466A
:1012780080BC704704000020AC03002080B400AF9D
:10128800024B1B681846BD4680BC7047AC03002063
:1012980080B584B000AF7860FFF7F0FFB8607B6876
:1012A800FB60FB68B3F1FF3F05D0094B1B781A467A
:1012B800FB681344FB6000BFFFF7E0FF0246BB6812
:1012C800D31AFA689A42F7D800BF1037BD4680BDD6
:1012D8000400002080B485B000AF78607B6803F01C
:1012E8000703FB600C4BDB68BB60BA684FF6FF0373
:1012F8001340BB60FB681A02BB68134343F0BF632B
:1013080043F40033BB60044ABB68D36000BF1437A2
:10131800BD4680BC704700BF00ED00E080B400AF60
:10132800044BDB681B0A03F007031846BD4680BC64
:10133800704700BF00ED00E080B483B000AF034603
:10134800FB7197F90730002B0BDBFB7903F01F02C9
:10135800064997F907305B09012000FA02F241F8C3
:10136800232000BF0C37BD4680BC704700E100E079
:1013780080B483B000AF03463960FB7197F907303A
:10138800002B0ADB3B68DAB20C4997F907301201E7
:10139800D2B20B4483F800230AE03B68DAB208496A
:1013A800FB7903F00F03043B1201D2B20B441A7607
:1013B80000BF0C37BD4680BC704700BF00E100E0AD
:1013C80000ED00E080B489B000AFF860B9607A60E1
:1013D800FB6803F00703FB61FB69C3F10703042BF8
:1013E80028BF0423BB61FB690433062B02D9FB69C0
:1013F800033B00E000237B614FF0FF32BB6902FA38
:1014080003F3DA43BB681A407B699A404FF0FF3117
:101418007B6901FA03F3D9437B680B4013431846F1
:101428002437BD4680BC704780B582B000AF786075
:101438007B68013BB3F1807F01D301230FE00A4AA7
:101448007B68013B53600F214FF0FF30FFF790FF9F
:10145800054B00229A60044B07221A6000231846A5
:101468000837BD4680BD00BF10E000E080B582B0FF
:1014780000AF78607868FFF72DFF00BF0837BD46DA
:1014880080BD80B586B000AF0346B9607A60FB7353
:1014980000237B61FFF742FF78617A68B968786951
:1014A800FFF790FF024697F90F3011461846FFF7ED
:1014B8005FFF00BF1837BD4680BD80B582B000AF62
:1014C8000346FB7197F907301846FFF735FF00BF51
:1014D8000837BD4680BD80B582B000AF78607868B7
:1014E800FFF7A2FF034618460837BD4680BD000037
:1014F80080B48BB000AF7860396000237B62002332
:101508003B6233E101227B6A02FA03F3FB613B6829
:101518001B68FA691340BB61BA69FB699A4240F0DB
:1015280022813B685B68122B34D0122B0DD8022B1A
:101538002BD0022B04D8002B31D0012B1CD048E033
:10154800032B43D0112B1BD043E08F4A934226D064
:101558008D4A934206D88D4A934220D08C4A9342B2
:101568001DD036E08B4A934219D08B4A934216D04D
:101578008A4A934213D02CE03B68DB683B6228E040
:101588003B68DB6804333B6223E03B68DB68083375
:101598003B621EE03B68DB680C333B6219E03B684A
:1015A8009B68002B02D104233B6212E03B689B68D6
:1015B800012B05D108233B627B68FA691A6108E0B0
:1015C80008233B627B68FA695A6102E000233B62A8
:1015D80000BFBB69FF2B01D87B6801E07B6804333F
:1015E8007B61BB69FF2B02D87B6A9B0002E07B6AA8
:1015F800083B9B003B617B691A680F213B6901FA34
:1016080003F3DB431A40396A3B6901FA03F31A43CF
:101618007B691A603B685B6803F08053002B00F01D
:10162800A2805F4B9B695E4A43F0010393615C4B68
:101638009B6903F00103BB60BB685A4A7B6A9B083D
:10164800023352F82330FB607B6A03F003039B00EC
:101658000F2202FA03F3DB43FA681340FB607B684E
:10166800514A93421FD07B68504A934219D07B68F5
:101678004F4A934213D07B684E4A93420DD07B6801
:101688004D4A934207D07B684C4A934201D10523C7
:101698000AE0062308E0042306E0032304E002230B
:1016A80002E0012300E000237A6A02F003029200BC
:1016B8009340FA681343FB603A497B6A9B080233FC
:1016C800FA6841F823203B685B6803F48033002BF9
:1016D80006D03B4B1A683A49BB6913430B6006E0D6
:1016E800374B1A68BB69DB43354913400B603B68CD
:1016F8005B6803F40033002B06D0314B5A6830493D
:10170800BB6913434B6006E02D4B5A68BB69DB434A
:101718002B4913404B603B685B6803F48013002B34
:1017280006D0274B9A682649BB6913438B6006E0AD
:10173800234B9A68BB69DB43214913408B603B68A4
:101748005B6803F40013002B06D01D4BDA681C49B4
:10175800BB691343CB6006E0194BDA68BB69DB430E
:1017680017491340CB607B6A01337B623B681A6878
:101778007B6A22FA03F3002B7FF4C4AE00BF2C3738
:10178800BD4680BC704700BF00002110000011104A
:10179800000012100000311000003210000022106A
:1017A800001002400000014000080140000C014008
:1017B800001001400014014000180140001C0140C5
:1017C8000004014080B485B000AF78600B467B8090
:1017D8007B689A687B881340002B02D00123FB7337
:1017E80001E00023FB73FB7B18461437BD4680BC21
:1017F800704780B483B000AF78600B467B80134697
:101808007B707B78002B03D07A887B681A6103E0B1
:101818007B881A047B681A6100BF0C37BD4680BC00
:10182800704780B483B000AF78600B467B807B68DC
:10183800DA687B881340002B03D07A887B685A616A
:1018480002E07A887B681A6100BF0C37BD4680BC0D
:101858007047000080B582B000AF0346FB80084B9C
:101868005A69FB881340002B06D0054AFB88536150
:10187800FB88184607F022F800BF0837BD4680BD30
:101888000004014080B586B000AF78607B68002B0B
:1018980001D101236CE27B681B6803F00103002B74
:1018A80000F08780924B5B6803F00C03042B0CD08C
:1018B8008F4B5B6803F00C03082B12D18C4B5B68D1
:1018C80003F48033B3F5803F0BD1894B1B6803F4D5
:1018D8000033002B6CD07B685B68002B68D1012338
:1018E80046E27B685B68B3F5803F06D1804B1B6896
:1018F8007F4A43F4803313602EE07B685B68002BDB
:101908000CD17B4B1B687A4A23F480331360784BE5
:101918001B68774A23F4802313601DE07B685B68AB
:10192800B3F5A02F0CD1724B1B68714A43F4802386
:1019380013606F4B1B686E4A43F4803313600BE0EF
:101948006B4B1B686A4A23F480331360684B1B682F
:10195800674A23F4802313607B685B68002B13D0ED
:10196800FFF78CFC386108E0FFF788FC02463B690A
:10197800D31A642B01D90323FAE15D4B1B6803F4E6
:101988000033002BF0D014E0FFF778FC386108E052
:10199800FFF774FC02463B69D31A642B01D9032371
:1019A800E6E1534B1B6803F40033002BF0D100E051
:1019B80000BF7B681B6803F00203002B63D04C4B0D
:1019C8005B6803F00C03002B0BD0494B5B6803F0FA
:1019D8000C03082B1CD1464B5B6803F48033002BA7
:1019E80016D1434B1B6803F00203002B05D07B681C
:1019F8001B69012B01D00123BAE13D4B1B6823F081
:101A0800F8027B685B69DB00394913430B603AE0F5
:101A18007B681B69002B20D0364B01221A60FFF728
:101A28002DFC386108E0FFF729FC02463B69D31A10
:101A3800022B01D903239BE12D4B1B6803F0020302
:101A4800002BF0D02A4B1B6823F0F8027B685B69F7
:101A5800DB00274913430B6015E0264B00221A6070
:101A6800FFF70CFC386108E0FFF708FC02463B6909
:101A7800D31A022B01D903237AE11D4B1B6803F00B
:101A88000203002BF0D17B681B6803F00803002BCE
:101A98003AD07B689B69002B19D0174B01221A603A
:101AA800FFF7ECFB386108E0FFF7E8FB02463B690B
:101AB800D31A022B01D903235AE10D4B5B6A03F0B9
:101AC8000203002BF0D0012000F0DAFA1CE00A4BE8
:101AD80000221A60FFF7D2FB38610FE0FFF7CEFB58
:101AE80002463B69D31A022B08D9032340E100BF01
:101AF8000010024000004242800442429E4B5B6A52
:101B080003F00203002BE9D17B681B6803F0040390
:101B1800002B00F0A6800023FB75974BDB6903F0D0
:101B28008053002B0DD1944BDB69934A43F08053CB
:101B3800D361914BDB6903F08053BB60BB68012321
:101B4800FB758E4B1B6803F48073002B18D18B4BED
:101B58001B688A4A43F480731360FFF78FFB386170
:101B680008E0FFF78BFB02463B69D31A642B01D9C7
:101B78000323FDE0814B1B6803F48073002BF0D036
:101B88007B68DB68012B06D17B4B1B6A7A4A43F0E2
:101B9800010313622DE07B68DB68002B0CD1764BC8
:101BA8001B6A754A23F001031362734B1B6A724A5E
:101BB80023F0040313621CE07B68DB68052B0CD15F
:101BC8006D4B1B6A6C4A43F0040313626A4B1B6A31
:101BD800694A43F0010313620BE0674B1B6A664ACC
:101BE80023F001031362644B1B6A634A23F0040366
:101BF80013627B68DB68002B15D0FFF73FFB386169
:101C08000AE0FFF73BFB02463B69D31A41F28832F0
:101C1800934201D90323ABE0574B1B6A03F002033D
:101C2800002BEED014E0FFF729FB38610AE0FFF73C
:101C380025FB02463B69D31A41F28832934201D907
:101C4800032395E04C4B1B6A03F00203002BEED1F3
:101C5800FB7D012B05D1484BDB69474A23F08053B4
:101C6800D3617B68DB69002B00F08180424B5B68A5
:101C780003F00C03082B61D07B68DB69022B46D18B
:101C88003F4B00221A60FFF7F9FA386108E0FFF7C6
:101C9800F5FA02463B69D31A022B01D9032367E000
:101CA800354B1B6803F00073002BF0D17B681B6A6F
:101CB800B3F5803F08D1304B5B6823F400327B6872
:101CC8009B682D4913434B602B4B5B6823F47412BC
:101CD8007B68196A7B685B6A0B43274913434B602F
:101CE800274B01221A60FFF7C9FA386108E0FFF7AD
:101CF800C5FA02463B69D31A022B01D9032337E000
:101D08001D4B1B6803F00073002BF0D02FE01C4B19
:101D180000221A60FFF7B2FA386108E0FFF7AEFA5E
:101D280002463B69D31A022B01D9032320E0124B48
:101D38001B6803F00073002BF0D118E07B68DB69A7
:101D4800012B01D1012313E00B4B5B68FB60FB689F
:101D580003F480327B681B6A9A4206D1FB6803F45D
:101D680070127B685B6A9A4201D0012300E000236D
:101D780018461837BD4680BD00100240007000406C
:101D88006000424280B584B000AF786039607B68FB
:101D9800002B01D10123D0E06A4B1B6803F0070335
:101DA8003A689A4210D9674B1B6823F007026549C5
:101DB8003B6813430B60634B1B6803F007033A68E7
:101DC8009A4201D00123B8E07B681B6803F0020344
:101DD800002B20D07B681B6803F00403002B05D080
:101DE800594B5B68584A43F4E06353607B681B684F
:101DF80003F00803002B05D0534B5B68524A43F4A9
:101E080060535360504B5B6823F0F0027B689B681B
:101E18004D4913434B607B681B6803F00103002B9B
:101E280040D07B685B68012B07D1474B1B6803F4E4
:101E38000033002B15D101237FE07B685B68022B00
:101E480007D1414B1B6803F00073002B09D1012314
:101E580073E03D4B1B6803F00203002B01D1012303
:101E68006BE0394B5B6823F003027B685B6836499B
:101E780013434B60FFF702FAF8600AE0FFF7FEF938
:101E88000246FB68D31A41F28832934201D90323F0
:101E980053E02D4B5B6803F00C027B685B689B008A
:101EA8009A42EBD1274B1B6803F007033A689A4222
:101EB80010D2244B1B6823F0070222493B681343C6
:101EC8000B60204B1B6803F007033A689A4201D065
:101ED800012332E07B681B6803F00403002B08D061
:101EE800194B5B6823F4E0627B68DB68164913438F
:101EF8004B607B681B6803F00803002B09D0124B6A
:101F08005B6823F460527B681B69DB000E4913434E
:101F18004B6000F021F801460B4B5B681B0903F08E
:101F28000F030A4AD35C21FA03F3094A1360094BE9
:101F38001B681846FFF760F9002318461037BD469E
:101F480080BD00BF002002400010024060DA000897
:101F5800080000200000002090B48AB000AF2A4B8F
:101F68003C1D0FCB84E80F00284B1B883B800023C7
:101F7800FB610023BB6100237B6200237B6100239C
:101F88003B62234B5B68FB61FB6903F00C03042B8A
:101F980002D0082B03D02DE01E4B3B622DE0FB69DD
:101FA8009B0C03F00F0307F12802134413F8243C99
:101FB8007B61FB6903F48033002B13D0144B5B68FF
:101FC8005B0C03F0010307F12802134413F8283CC3
:101FD800BB617B690F4A02FB03F2BB69B2FBF3F3F7
:101FE8007B6204E07B690C4A02FB03F37B627B6A39
:101FF8003B6202E0074B3B6200BF3B6A184628374A
:10200800BD4690BC704700BFD8C10008E8C10008B1
:102018000010024000127A0000093D0080B400AFB1
:10202800024B1B681846BD4680BC7047080000205C
:1020380080B500AFFFF7F2FF0146054B5B681B0A4E
:1020480003F00703034AD35C21FA03F3184680BD63
:102058000010024070DA000880B500AFFFF7DEFF1D
:102068000146054B5B68DB0A03F00703034AD35CB0
:1020780021FA03F3184680BD0010024070DA000808
:1020880080B485B000AF78600A4B1B680A4AA2FB8F
:1020980003235B0A7A6802FB03F3FB6000BFFB685B
:1020A8005A1EFA60002BF9D100BF1437BD4680BC18
:1020B800704700BF08000020D34D621080B582B081
:1020C80000AF78607B68002B01D101233FE07B687B
:1020D80093F83930DBB2002B06D17B68002283F8F5
:1020E8003820786806F070FD7B68242283F8392050
:1020F8007B681B68DA687B681B6822F40052DA6028
:10210800786800F00BF97B681B681A697B681B68A4
:1021180022F490421A617B681B685A697B681B68C5
:1021280022F02A025A617B681B68DA687B681B68A0
:1021380042F40052DA607B680022DA637B6820226E
:1021480083F839207B68202283F83A200023184638
:102158000837BD4680BD80B588B002AFF860B96069
:102168003B601346FB8000237B61FB6893F83930A2
:10217800DBB2202B40F08380BB68002B02D0FB88A9
:10218800002B01D101237BE0FB6893F83830012B49
:1021980001D1022374E0FB68012283F83820FB6830
:1021A8000022DA63FB68212283F83920FFF766F8FA
:1021B8007861FB68FA889A84FB68FA88DA8442E0D6
:1021C800FB68DB8C9BB2013B9AB2FB68DA84FB6844
:1021D8009B68B3F5805F22D13B6800937B6900223E
:1021E8008021F86800F050F80346002B01D0032343
:1021F80046E0BB683B613B691B881A46FB681B6865
:10220800C2F308025A60FB681B69002B03D1BB6844
:102218000233BB6017E0BB680133BB6013E03B6867
:1022280000937B6900228021F86800F02DF80346AE
:10223800002B01D0032323E0BB685A1CBA601A782C
:10224800FB681B685A60FB68DB8C9BB2002BB7D11C
:102258003B6800937B6900224021F86800F014F87D
:102268000346002B01D003230AE0FB68202283F8F1
:102278003920FB68002283F83820002300E002237D
:1022880018461837BD4680BD80B584B000AFF860E9
:10229800B9603B601346FB712CE0BB69B3F1FF3FAB
:1022A80028D0BB69002B07D0FEF7E8FF02463B6841
:1022B800D31ABA699A421DD2FB681B68DA68FB68B0
:1022C8001B6822F4D072DA60FB681B685A69FB68E5
:1022D8001B6822F001025A61FB68202283F839202A
:1022E800FB68202283F83A20FB68002283F8382014
:1022F80003230FE0FB681B681A68BB681340BA68C1
:102308009A420CBF01230023DBB21A46FB799A429A
:10231800C3D0002318461037BD4680BD80B584B0B1
:1023280000AF78607B681B681B6923F440517B68A9
:10233800DA687B681B680A431A617B689A687B685D
:102348001B691A437B685B691343FB607B681B68E6
:10235800DB6823F4B05323F00C037A681268F96839
:102368000B43D3607B681B685B6923F440717B680F
:102378009A697B681B680A435A617B681B68524AE2
:1023880093424ED1FFF768FEB860BA6813469B00C7
:1023980013449A001A447B685B689B00B2FBF3F312
:1023A8004A4AA2FB03235B091901BA6813469B003A
:1023B80013449A001A447B685B689B00B2FBF3F2F3
:1023C800424BA3FB02035B09642000FB03F3D31A0F
:1023D8001B0132333D4AA2FB03235B0903F0F003E0
:1023E8001944BA6813469B0013449A001A447B6840
:1023F8005B689B00B2FBF3F2344BA3FB02035B095F
:10240800642000FB03F3D31A1B0132332F4AA2FBCB
:1024180003235B0903F00F027B681B680A449A6078
:102428004DE0FFF705FEB860BA6813469B001344F9
:102438009A001A447B685B689B00B2FBF3F3234A5B
:10244800A2FB03235B091901BA6813469B001344D6
:102458009A001A447B685B689B00B2FBF3F21B4B43
:10246800A3FB02035B09642000FB03F3D31A1B01DF
:102478003233164AA2FB03235B0903F0F003194425
:10248800BA6813469B0013449A001A447B685B6839
:102498009B00B2FBF3F20D4BA3FB02035B09642024
:1024A80000FB03F3D31A1B013233084AA2FB0323B0
:1024B8005B0903F00F027B681B680A449A6000BF3F
:1024C8001037BD4680BD00BF003801401F85EB5165
:1024D80080B584B000AF786039607B681B8A1A4683
:1024E8003B681B8A13441846FEF710FC0346BB6082
:1024F8000023FB730023BB737B689A683B689B6867
:1025080019461046FEF712FE0346002B12D07B68D0
:102518009A683B689B6819461046FEF741FB0346DC
:102528001946B868FEF702FE0346002B14D00123B3
:10253800FB7311E03B689A687B689B6819461046F4
:10254800FEF72EFB03461946B868FEF7EFFD034673
:10255800002B01D00123FB737B68DA683B68DB68DA
:1025680019461046FEF7E2FD0346002B12D07B68A1
:10257800DA683B68DB6819461046FEF711FB03462C
:102588001946B868FEF7D2FD0346002B14D0012384
:10259800BB7311E03B68DA687B68DB681946104654
:1025A800FEF7FEFA03461946B868FEF7BFFD034674
:1025B800002B01D00123BB73FB7B002B04D0BB7B1A
:1025C800002B01D0012300E0002303F00103DBB25C
:1025D80018461037BD4680BD80B588B000AF78601A
:1025E8000B46FB700023FB617B681B689B68BB6123
:1025F800A1E0BB691B683B613B691B68FB60FB682A
:102608001B7F83F00103DBB2002B03D03B695B68BF
:10261800F86898473B699B68F8689847FB78002BEF
:1026280067D0FB6893F82630002B26D0464B1B68F2
:102638001B681946F868FFF74BFF0346002B58D074
:10264800FB6801225A77404B1B681B681A6AFB68B3
:102658001B6A9A420BD93C4B1B681B68196AFB68BA
:102668001A6A394B1B681B688A1A1A6241E0364B92
:102678001B681B6800221A623BE0344B1B689B688E
:102688007B6133E07B691B681B681946F868FFF7B4
:102698001FFF0346002B26D0FB6801225A777B696F
:1026A8001B681B681A6AFB681B6A9A420BD97B690C
:1026B8001B681B68196AFB681A6A7B691B681B68B8
:1026C8008A1A1A620FE07B691B681B681B6A002B59
:1026D80009D07B691B681B6800221A621C4B1B68A7
:1026E80001331B4A13607B699B687B617B69002B04
:1026F800C8D1FB685B7F002B10D03B69DB68F868AA
:102708009847386907F06EFCBB695B68BB61BB69B9
:102718009B681946786807F01DFA09E03B691B6950
:102728000C4A12681146F8689847FB690133FB6147
:10273800BB699B68BB61BB69002B7FF45AAFFB691F
:1027480018462037BD4680BDC8030020D0030020AE
:10275800B0030020C403002080B500AF214B032242
:102768001A60214B00221A60204B00221A60204B6D
:1027780000221A601F4B00221A601F4B00221A7099
:102788001E4B00221A600C2007F024FC03461A4650
:102798001B4B1A601A4B1B6800229A60184B1B6867
:1027A800174A53600C2007F015FC03461A46154BD0
:1027B8001A60144B1B6800229A60124B1B68114A5E
:1027C80053600C2007F006FC03461A460E4B1A60AD
:1027D8000D4B1B6800229A600B4B1B680A4A53601A
:1027E80000BF80BDB8030020B0030020CC03002048
:1027F800E0030020D8030020E4030020B4030020F5
:10280800D0030020E8030020BC03002080B586B078
:1028180000AF786007F036FB8FE000233B610023B0
:10282800FB60514B1B68184607F074FA02464E4B82
:102838001A6007F033FB7B6898474C4B1B68002BEA
:102848003CD04A4B1B681B68BB60BB681B7F83F08E
:102858000103DBB2002B04D0444B1B685B68B868EB
:102868009847424B1B689B68B8689847BB685B7F72
:10287800002B17D03D4B1B68DB68B86898473C4B6A
:102888001B68002B08D1394B1B68184607F0AAFBB8
:10289800364B00221A6014E0354B1B68013B344A62
:1028A80013600EE0314B1B681B692F4A12681146F2
:1028B800B86898473B6901333B6102E000F068F86B
:1028C80045E000212B48FFF787FE02463B69134489
:1028D8003B6101212848FFF77FFE02463B6913440C
:1028E8003B61264B1B689B687B6105E0FB680133F5
:1028F800FB607B699B687B617B69002BF6D107F0E5
:10290800B5FA034603F00703002B02D11C4B002243
:102918001A60154B1B68184607F03EFA0246124B20
:102928001A60184B1B78002B10D107F09FFA01464C
:10293800FB683A69144806F031F8124B1B7883F0AB
:102948000103DBB2002B7FF468AF00E000BF0F4B40
:102958001B6801330D4A13600A4B00221A7000BF2E
:102968001837BD4680BD00BFC4030020C80300203F
:10297800B8030020D0030020E8030020BC03002097
:10298800B4030020E4030020ECC10008D8030020B1
:1029980080B588B002AF48F2304005F0FBFC1D4B13
:1029A80048F230421A801C4B0193182300931823D5
:1029B800C82250211E2005F0E9FE00230093702351
:1029C800DC226E21142005F0D3FD144A07F1100310
:1029D80092E8030083E80300114B1B6818463B1D6F
:1029E8000A22194607F0F4FA3A1D07F110031146B6
:1029F800184608F06FF807F1100301930E230093AF
:102A080018238C2282211E2005F0C0FE00BF183733
:102A1800BD4680BD0600002018C2000828C2000874
:102A2800CC03002080B586B000AFF860B9607A604A
:102A38003B60142007F0CEFA03467B617B69FA6895
:102A48001A607B69BA685A607B697A689A607B69A0
:102A58003A68DA607B693A6A1A617B6918461837FE
:102A6800BD4680BD80B584B000AFF8600846114609
:102A78001A4603467B810B463B811346FB80FB6865
:102A88004FF000021A60FB684FF000025A607B8921
:102A98001846FEF737F90246FB689A603B891846E4
:102AA800FEF730F90246FB68DA60FB68FA881A829A
:102AB800FB683A8B5A82FB68BA8B9A82FB683A6A3F
:102AC8009A61FB6800221A77FB6800225A7700BFD8
:102AD8001037BD4680BD80B483B000AF78607B6896
:102AE80001221A7700BF0C37BD4680BC7047000032
:102AF800B0B582B000AF78607B689C687B681D6861
:102B0800164B1B681846FEF701F903461946284676
:102B1800FEF750F9034619462046FEF743F80346E8
:102B28001A467B689A607B68DC687B685D680B4B3B
:102B38001B681846FEF7EAF8034619462846FEF7CA
:102B480039F9034619462046FEF72CF803461A467B
:102B58007B68DA6000BF0837BD46B0BDDC030020E3
:102B680080B582B000AF786039603968786807F05E
:102B7800B7F800BF0837BD4680BD90B589B004AF2F
:102B8800F8607A601A460B467B8113463B81F868E9
:102B9800BC8D3A8C3989BB6B0293BB8E01933B8EFB
:102BA80000932346FFF75EFFFB687A899A84FB68E7
:102BB8007A681A62FB687A6A1A60FB68BA6A5A60AD
:102BC800FB6897F83C2083F8262000BF1437BD46E1
:102BD80090BD80B582B000AF78607B681846FFF77B
:102BE8007AFF00BF0837BD4680BD80B582B000AF10
:102BF80078607B689B8C002B03D17B6801225A7715
:102C080005E07B689B8C013B9AB27B689A847B6861
:102C18001846FFF76DFF00BF0837BD4680BD80B579
:102C280082B000AF786039607B6839681846FFF772
:102C380097FF00BF0837BD4680BD90B589B004AF87
:102C4800F860B96011461A460B46FB801346BB80F4
:102C5800F8683C8CBA88F988FB6A02933B8D01932B
:102C6800BB8C00932346FFF7FDFEFB68BA681A6227
:102C780000BF1437BD4690BD80B582B000AF786004
:102C88007B681846FFF727FF00BF0837BD4680BDA1
:102C980080B582B000AF78607B681B6A002B02D1D8
:102CA8007B6801225A777B681846FFF721FF00BF2F
:102CB8000837BD4680BD80B582B000AF7860396006
:102CC8007B6839681846FFF74BFF00BF0837BD46D9
:102CD80080BD90B589B004AFF860B96011461A4656
:102CE8000B46FB801346BB80FB68BA681A62F8681B
:102CF8003C8CBA88F988FB6A02933B8D0193BB8CA4
:102D080000932346FFF7AEFE00BF1437BD4690BDC3
:102D180080B582B000AF78607B681846FFF7DBFEAD
:102D280000BF0837BD4680BDB0B582B000AF78603F
:102D3800284B1B68002B03DD7B68274A1A600BE0D1
:102D4800244B1B68002B03DA7B68244A1A6003E0D3
:102D58007B684FF000021A607B689C687B681D687E
:102D68001F4B1B681846FDF7D1FF03461946284636
:102D7800FEF720F8034619462046FDF713FF0346E1
:102D88001A467B689A607B689B684FF0000118467A
:102D9800FEF7AEF90346002B04D07B684FF0000223
:102DA8009A600BE07B689B680E491846FEF7B4F9F9
:102DB8000346002B02D07B680B4A9A607B681B6A2B
:102DC800002B02D17B6801225A7700BF0837BD4625
:102DD800B0BD00BFB4030020333333BF3333333FB8
:102DE800DC030020000064420000604280B582B02D
:102DF80000AF786039607B6839681846FFF7B0FE25
:102E080000BF0837BD4680BD80B588B000AF07F168
:102E1800100300221A605A609A60DA60464B9B6978
:102E2800454A43F020039361434B9B6903F0200319
:102E3800FB60FB68404B9B693F4A43F00403936186
:102E48003D4B9B6903F00403BB60BB683A4B9B692D
:102E5800394A43F010039361374B9B6903F0100321
:102E68007B607B6800224FF480713448FEF7C1FC18
:102E7800002204213248FEF7BCFC01233B61314BA0
:102E88007B610123BB6107F1100319462B48FEF74C
:102E98002FFB20233B612B4B7B610123BB6107F197
:102EA800100319462848FEF723FB4FF480733B6153
:102EB80001237B610023BB610223FB6107F110033F
:102EC80019461E48FEF714FB4FF400433B611D4BA7
:102ED8007B610123BB6107F1100319461748FEF710
:102EE80007FB04233B6101237B610023BB610223B1
:102EF800FB6107F1100319461148FEF7F9FA0022A1
:102F080001210620FEF7BDFA0620FEF7D6FA0122B7
:102F180001211720FEF7B5FA1720FEF7CEFA022294
:102F280001212820FEF7ADFA2820FEF7C6FA00BFD7
:102F38002037BD4680BD00BF001002400008014098
:102F480000140140000021100010014080B483B03B
:102F580000AF0346FB800D4B4FF480725A610B4B58
:102F68004FF400725A610A4AFB88D360074B8022EB
:102F78005A61064B80221A61044B4FF400721A61A1
:102F880000BF0C37BD4680BC704700BF0010014031
:102F9800000C014080B483B000AF0346FB800D4BAA
:102FA8004FF480721A610B4B4FF400725A610A4A4F
:102FB800FB88D360074B80225A61064B80221A6136
:102FC800044B4FF400721A6100BF0C37BD4680BC39
:102FD800704700BF00100140000C014080B582B06E
:102FE80000AF1D4B4FF088321A601B4B4FF08832F0
:102FF8005A60194B0022DA60184B4FF480721A613C
:10300800164B4FF400725A61144B40225A61144B0C
:103018009B8848F68912934202D10120FEF738F9BD
:103028000D4B9B68FB800D4B40221A610B4B4FF4F4
:1030380000721A61084B4FF033321A60064B4FF09A
:1030480033325A60044B4FF6FF72DA60FB88184639
:103058000837BD4680BD00BF000C0140001001408C
:10306800F003002080B582B000AF03460A46FB801B
:103078001346BB80FB881846FFF768FF0C4B4FF4DC
:1030880080721A610A4B4FF400725A61094ABB8870
:10309800D360074B80225A61054B80221A61044B8A
:1030A8004FF400721A6100BF0837BD4680BD00BFEB
:1030B80000100140000C014080B582B000AF03460B
:1030C800FB80FB881846FFF741FFFFF787FF0346A1
:1030D80018460837BD4680BD80B500AF034B1B8935
:1030E8001846FFF733FF00BF80BD00BFF003002084
:1030F80080B582B000AF03460A46FB801346BB800A
:10310800734B9B8849F24132934205D0704B9B88A0
:1031180045F21032934264D16D4B5B891846FFF734
:1031280015FF6C4B4FF480721A616A4B4FF40072B2
:103138005A61FB881B0A9AB2674BDA60654B80229A
:103148005A61644B80221A61624B4FF400721A6113
:10315800604B4FF480721A615E4B4FF400725A61F3
:10316800FB885D4ADBB2D3605A4B80225A61594BC7
:1031780080221A61574B4FF400721A61544B9B8995
:103188001846FFF7E3FE534B4FF480721A61514B18
:103198004FF400725A61BB881B0A9AB24E4BDA6030
:1031A8004C4B80225A614B4B80221A61494B4FF499
:1031B80000721A61474B4FF480721A61454B4FF405
:1031C80000725A61BB88444ADBB2D360414B80220B
:1031D8005A61404B80221A613E4B4FF400721A61CB
:1031E80048E23B4B9B8846F60402934276D1384B23
:1031F8009B79012B06D1364B1A88FB88D31A9BB2D0
:10320800013BFB80324B5B891846FFF79FFE314B31
:103218004FF480721A612F4B4FF400725A61FB8889
:103228001B0A9AB22C4BDA602A4B80225A61294B2E
:1032380080221A61274B4FF400721A61254B4FF414
:1032480080721A61234B4FF400725A61FB88224A3C
:10325800DBB2D3601F4B80225A611E4B80221A6159
:103268001C4B4FF400721A61194B9B891846FFF7E3
:103278006DFE184B4FF480721A61164B4FF40072B2
:103288005A61BB881B0A9AB2134BDA60114B802231
:103298005A61104B80221A610E4B4FF400721A616A
:1032A8000C4B4FF480721A610A4B4FF400725A614A
:1032B800BB88094ADBB2D360064B80225A61054BB2
:1032C80080221A61034B4FF400721A61D2E100BFE9
:1032D800F003002000100140000C0140994B9B882E
:1032E80041F66312934240F03381964B9B79002B51
:1032F80063D1944B1A88FB88D31A9BB2013BFB809D
:10330800904B5B891846FFF721FE8F4B4FF4807274
:103318001A618D4B4FF400725A618C4B0022DA60AF
:10332800894B80225A61884B80221A61864B4FF460
:1033380000721A61844B4FF480721A61824B4FF409
:1033480000725A61814B0022DA607F4B80225A61F9
:103358007D4B80221A617C4B4FF400721A617A4BC4
:103368004FF480721A61784B4FF400725A61FB88EF
:103378001B0A9AB2754BDA60734B80225A61724B02
:1033880080221A61704B4FF400721A616E4B4FF431
:1033980080721A616C4B4FF400725A61FB886B4A59
:1033A800DBB2D360684B80225A61674B80221A6176
:1033B800654B4FF400721A6161E0624B5B891846F5
:1033C800FFF7C4FD604B4FF480721A615E4B4FF4F7
:1033D80000725A61FB881B0A9AB25C4BDA605A4B3E
:1033E80080225A61584B80221A61574B4FF4007261
:1033F8001A61554B4FF480721A61534B4FF40072A7
:103408005A61FB88514ADBB2D3604F4B80225A6124
:103418004D4B80221A614C4B4FF400721A614A4B93
:103428004FF480721A61484B4FF400725A61454B51
:103438001B88013B1A12454BDA60434B80225A61C4
:10344800414B80221A61404B4FF400721A613E4B87
:103458004FF480721A613C4B4FF400725A61394B39
:103468001B88013B394ADBB2D360374B80225A6153
:10347800354B80221A61344B4FF400721A61314B7C
:103488009B891846FFF762FD2F4B4FF480721A6133
:103498002D4B4FF400725A61BB881B0A9AB22B4B12
:1034A800DA60294B80225A61274B80221A61264B09
:1034B8004FF400721A61244B4FF480721A61224B48
:1034C8004FF400725A61BB88204ADBB2D3601E4BAE
:1034D80080225A611C4B80221A611B4B4FF40072E8
:1034E8001A61194B4FF480721A61174B4FF400722E
:1034F8005A61144B5B88013B1A12144BDA60124B69
:1035080080225A61104B80221A610F4B4FF40072CF
:103518001A610D4B4FF480721A610B4B4FF4007215
:103528005A61084B5B88013B084ADBB2D360064B03
:1035380080225A61044B80221A61034B4FF40072B7
:103548001A6197E0F003002000100140000C0140D0
:103558004A4B9B8845F21052934272D1474B5B8984
:103568001846FFF7F3FC464B4FF480721A61444B40
:103578004FF400725A61FB881B0A9AB2414BDA6019
:103588003F4B80225A613E4B80221A613C4B4FF4DC
:1035980000721A61394B5B8901339BB21846FFF7F9
:1035A800D5FC374B4FF480721A61354B4FF40072DB
:1035B8005A61FB88334ADBB2D360314B80225A61AF
:1035C8002F4B80221A612E4B4FF400721A612B4B3D
:1035D8009B891846FFF7BAFC294B4FF480721A6191
:1035E800274B4FF400725A61BB881B0A9AB2254BCD
:1035F800DA60234B80225A61214B80221A61204BCA
:103608004FF400721A611D4B9B8901339BB2184617
:10361800FFF79CFC1A4B4FF480721A61184B4FF459
:1036280000725A61BB88174ADBB2D360144B802200
:103638005A61134B80221A61114B4FF400721A61C0
:1036480018E00E4B9B79012B06D10C4B1A88FB888E
:10365800D31A9BB2013BFB80084B5B89FA88114661
:103668001846FFF7FFFC054B9B89BA881146184698
:10367800FFF7F8FC00BF0837BD4680BDF003002007
:1036880000100140000C014080B584B000AF034633
:10369800FB710023FB810023BB81784B9B79012BB5
:1036A8000BD1764B9B8846F60402934205D0734BA8
:1036B8009B8841F66312934209D1704B9B79002B8A
:1036C80034D16E4B9B8841F6631293422ED1FB791D
:1036D800072B2BD801A252F823F000BF05370008AA
:1036E8000B37000811370008173700081D37000886
:1036F80023370008293700082F3700080623FB71F5
:1037080014E00723FB7111E00423FB710EE005238D
:10371800FB710BE00123FB7108E00023FB7105E05E
:103728000323FB7102E00223FB7100BF534B9B880C
:1037380049F24132934218D0504B9B8846F6040216
:10374800934212D04D4B9B8845F2103293420CD0D5
:103758004A4B9B8845F21052934206D0474B9B88B0
:1037680041F66312934240F05082FB79072B36D81A
:1037780001A252F823F000BFE7370008A13700087C
:10378800AB370008B5370008BF370008C93700084D
:10379800D3370008DD370008FB8943F08003FB813D
:1037A8001DE0FB8943F04003FB8118E0FB8943F0EF
:1037B800C003FB8113E0FB8943F02003FB810EE08B
:1037C800FB8943F06003FB8109E0FB8943F0A00318
:1037D800FB8104E0FB8943F0E003FB8100BF274B3A
:1037E8009B8845F21052934203D14FF45853BB8142
:1037F80001E03623BB81214B9B8845F2103293426E
:103808000FD01E4B9B8845F21052934209D01B4B98
:103818009B8841F66312934203D0FB8943F0080367
:10382800FB81164B9B8846F60402934203D1FB8921
:1038380043F00203FB81FA89BB8911461846FFF75A
:1038480011FC0E4B9B8841F66312934228D0FB89EA
:1038580003F02003002B13D0084B1A88074B5B8812
:103868009A421DD2054B1B887B81044B5A88034B17
:103878001A80024A7B89538012E000BFF0030020BF
:103888007F4B1A887E4B5B889A4209D97C4B1B88F0
:103898007B817B4B5A887A4B1A80794A7B89538083
:1038A800774B9B8845F21052934240F0EF80744B5F
:1038B8005B891846FFF74AFB724B4FF480721A6116
:1038C800704B4FF400725A616F4B0022DA606D4BF7
:1038D80080225A616B4B80221A616A4B4FF4007246
:1038E8001A61674B5B8901339BB21846FFF72EFBC1
:1038F800644B4FF480721A61624B4FF400725A6144
:10390800614B0022DA605F4B80225A615D4B802256
:103918001A615C4B4FF400721A61594B5B89023390
:103928009BB21846FFF712FB564B4FF480721A6190
:10393800544B4FF400725A61514B1B88013B1A12C9
:10394800514BDA604F4B80225A614E4B80221A61EC
:103958004C4B4FF400721A61494B5B8903339BB29D
:103968001846FFF7F3FA474B4FF480721A61454B3C
:103978004FF400725A61424B1B88013B424ADBB24A
:10398800D360404B80225A613E4B80221A613D4BE6
:103998004FF400721A613A4B9B891846FFF7D6FA22
:1039A800384B4FF480721A61364B4FF400725A61EB
:1039B800354B0022DA60334B80225A61314B80222A
:1039C8001A61304B4FF400721A612D4B9B890133F9
:1039D8009BB21846FFF7BAFA2A4B4FF480721A6165
:1039E800284B4FF400725A61274B0022DA60254BAE
:1039F80080225A61234B80221A61224B4FF40072B5
:103A08001A611F4B9B8902339BB21846FFF79EFA37
:103A18001C4B4FF480721A611A4B4FF400725A61B2
:103A2800174B5B88013B1A12174BDA60154B802243
:103A38005A61144B80221A61124B4FF400721A61BA
:103A48000F4B9B8903339BB21846FFF77FFA0D4B48
:103A58004FF480721A610B4B4FF400725A61084B95
:103A68005B88013B084ADBB2D360064B80225A616F
:103A7800044B80221A61034B4FF400721A610AE169
:103A8800F003002000100140000C0140844B5B89CA
:103A98001846FFF75BFA834B4FF480721A61814B2B
:103AA8004FF400725A61804B0022DA607D4B80220D
:103AB8005A617C4B80221A617A4B4FF400721A616A
:103AC800784B4FF480721A61764B4FF400725A614A
:103AD800754B0022DA60734B80225A61714B802249
:103AE8001A61704B4FF400721A616E4B4FF480727A
:103AF8001A616C4B4FF400725A61694B1B88013B89
:103B08001A12694BDA60674B80225A61654B802232
:103B18001A61644B4FF400721A61624B4FF4807261
:103B28001A61604B4FF400725A615D4B1B88013B70
:103B38005D4ADBB2D3605B4B80225A61594B8022CD
:103B48001A61584B4FF400721A61554B9B891846FD
:103B5800FFF7FCF9534B4FF480721A61514B4FF445
:103B680000725A61504B0022DA604E4B80225A6133
:103B78004C4B80221A614B4B4FF400721A61494B2F
:103B88004FF480721A61474B4FF400725A61464BEA
:103B98000022DA60434B80225A61424B80221A612C
:103BA800404B4FF400721A613E4B4FF480721A6119
:103BB8003C4B4FF400725A61394B5B88013B1A1237
:103BC800394BDA60374B80225A61364B80221A61B2
:103BD800344B4FF400721A61324B4FF480721A6101
:103BE800304B4FF400725A612D4B5B88013B2E4AD3
:103BF800DBB2D3602B4B80225A612A4B80221A6198
:103C0800284B4FF400721A6145E0FB79072B36D830
:103C180001A252F823F000BF413C00084B3C0008C9
:103C2800553C0008873C00085F3C0008693C0008D8
:103C3800733C00087D3C0008FB8943F03003FB819E
:103C48001DE0FB8943F01003FB8118E0FB8943F07A
:103C58002003FB8113E0FB8943F03803FB810EE06E
:103C6800FB8943F02803FB8109E0FB8943F0180333
:103C7800FB8104E0FB8943F00803FB8100BF0323B9
:103C8800BB81FB8943F48053FB81FA89BB891146C8
:103C98001846FFF7E7F900BF1037BD4680BD00BFE3
:103CA800F003002000100140000C014080B582B0F4
:103CB80000AF0346FB800B46BB8013467B80754BE9
:103CC8009B8849F24132934205D0724B9B8845F25A
:103CD8001032934264D16F4B5B891846FFF736F96F
:103CE8006D4B4FF480721A616B4B4FF400725A613E
:103CF800FB881B0A9AB2694BDA60674B80225A61CB
:103D0800654B80221A61644B4FF400721A61624B52
:103D18004FF480721A61604B4FF400725A61FB884D
:103D28005E4ADBB2D3605C4B80225A615A4B8022D8
:103D38001A61594B4FF400721A61564B9B89184609
:103D4800FFF704F9544B4FF480721A61524B4FF449
:103D580000725A61BB881B0A9AB2504BDA604E4B0C
:103D680080225A614C4B80221A614B4B4FF40072EF
:103D78001A61494B4FF480721A61474B4FF4007235
:103D88005A61BB88454ADBB2D360434B80225A61F3
:103D9800414B80221A61404B4FF400721A61E6E1F0
:103DA8003C4B9B8845F21052934279D1394B5B8941
:103DB8001846FFF7CBF8384B4FF480721A61364B30
:103DC8004FF400725A61FB881B0A9AB2334BDA60CF
:103DD800314B80225A61304B80221A612E4B4FF4AE
:103DE80000721A612B4B5B8901339BB21846FFF7AF
:103DF800ADF8294B4FF480721A61274B4FF40072CB
:103E08005A61FB88254ADBB2D360234B80225A6172
:103E1800214B80221A61204B4FF400721A611D4B0E
:103E28009B891846FFF792F81B4B4FF480721A6172
:103E3800194B4FF400725A61BB881B0A9AB2174B90
:103E4800DA60154B80225A61134B80221A61124B9B
:103E58004FF400721A610F4B9B8901339BB21846CD
:103E6800FFF774F80C4B4FF480721A610A4B4FF449
:103E780000725A61BB88094ADBB2D360064B8022C4
:103E88005A61054B80221A61034B4FF400721A6184
:103E98006DE100BFF003002000100140000C01405C
:103EA800684B9B8841F66312934240F0D180654B82
:103EB8009B79002B06D1634B1A88FB88D31A9BB2D7
:103EC800013BFB805F4B5B891846FFF73FF85E4B71
:103ED8004FF480721A615C4B4FF400725A61FB8890
:103EE8001B0A9AB2594BDA60574B80225A61564BDB
:103EF80080221A61544B4FF400721A61524B4FF4EE
:103F080080721A61504B4FF400725A61FB884F4A15
:103F1800DBB2D3604C4B80225A614B4B80221A6132
:103F2800494B4FF400721A61474B4FF480721A6183
:103F3800454B4FF400725A61FB881B0A9AB2434BF7
:103F4800DA60414B80225A613F4B80221A613E4B16
:103F58004FF400721A613C4B4FF480721A613A4B6D
:103F68004FF400725A61FB88384ADBB2D360364B93
:103F780080225A61344B80221A61334B4FF400720D
:103F88001A61304B9B891846FEF7E0FF2E4B4FF421
:103F980080721A612C4B4FF400725A61BB881B0A5D
:103FA8009AB22A4BDA60284B80225A61264B80222B
:103FB8001A61254B4FF400721A61234B4FF480723B
:103FC8001A61214B4FF400725A61BB881F4ADBB259
:103FD800D3601D4B80225A611B4B80221A611A4BF9
:103FE8004FF400721A61184B4FF480721A61164B25
:103FF8004FF400725A61BB881B0A9AB2134BDA60FD
:10400800114B80225A61104B80221A610E4B4FF4DB
:1040180000721A610C4B4FF480721A610A4B4FF40C
:1040280000725A61BB88094ADBB2D360064B802212
:104038005A61054B80221A61034B4FF400721A61D2
:1040480095E000BFF003002000100140000C014083
:104058005E4B9B8846F6040293426FD15B4B9B797B
:10406800012B06D1594B1A88FB88D31A9BB2013B06
:10407800FB80564B5B891846FEF768FF544B4FF49C
:1040880080721A61524B4FF400725A61FB881B0A06
:104098009AB2504BDA604E4B80225A614C4B8022C8
:1040A8001A614B4B4FF400721A61494B4FF48072FE
:1040B8001A61474B4FF400725A61FB88454ADBB2DC
:1040C800D360434B80225A61414B80221A61404B96
:1040D8004FF400721A613D4B9B891846FEF736FF74
:1040E8003B4B4FF480721A61394B4FF400725A619E
:1040F800BB881B0A9AB2374BDA60354B80225A616B
:10410800334B80221A61324B4FF400721A61304BE4
:104118004FF480721A612E4B4FF400725A61BB88BB
:104128002C4ADBB2D3602A4B80225A61284B80226A
:104138001A61274B4FF400721A6118E0234B9B79E0
:10414800012B06D1214B1A88FB88D31A9BB2013B5D
:10415800FB801E4B5B89FA8811461846FEF782FFE2
:104168001A4B9B89BA8811461846FEF77BFF184BF5
:104178004FF480725A61164B4FF400725A61134B18
:104188001A89144BDA60124B80225A61104B802234
:104198001A610F4B4FF400721A610D4B4FF4807285
:1041A8001A610B4B4FF400725A610A4A7B88D3603C
:1041B800074B80225A61064B80221A61044B4FF448
:1041C80000721A6100BF0837BD4680BDF0030020A9
:1041D80000100140000C014090B583B000AF0346C9
:1041E800FB71BE20FEF7B2FE4B4B4FF480721A6192
:1041F800494B4FF400725A61484B0522DA60464B2E
:1042080080225A61444B80221A61434B4FF400725A
:104218001A61414B4FF480721A613F4B4FF40072A0
:104228005A61FB791846FCF755F939A3D3E90023FD
:10423800FCF7BAF903460C461A462346374C104693
:104248001946FCF789FC0346E360334B80225A6128
:10425800314B80221A61304B4FF400721A612E4B99
:104268004FF480721A612C4B4FF400725A612B4B39
:104278000122DA60284B80225A61274B80221A617A
:10428800254B4FF400721A61234B4FF480721A6168
:10429800214B4FF400725A61204BFF22DA601E4B0B
:1042A80080225A611C4B80221A611B4B4FF400720A
:1042B8001A61194B4FF480721A61174B4FF4007250
:1042C8005A61164B0022DA60134B80225A61124B56
:1042D80080221A61104B4FF400721A610E4B4FF492
:1042E80080721A610C4B4FF400725A610B4B00221A
:1042F800DA60094B80225A61074B80221A61064B0B
:104308004FF400721A6100BF0C37BD4690BD00BF64
:10431800666666666666044000100140000C01404F
:1043280080B582B000AF0346FB71FB79002B77D1D3
:10433800804B00229A717F4BF0221A807D4B4FF4FC
:10434800A0725A807B4B9B8849F2413293420BD032
:10435800784B9B8846F60402934205D0754B9B88A0
:1043680045F2103293421ED1724B2C221A81714BA6
:104378002A225A816F4B2B229A816E4B9B8846F6D4
:104388000402934206D06B4B9B8845F2103293424D
:1043980040F0C780674B4FF4A0721A80654B4FF40A
:1043A800F0725A80BDE0634B9B8845F210529342ED
:1043B80014D1604B4FF430521A815E4B4FF428529F
:1043C8005A815C4B4FF42C529A815A4B4FF4F0723D
:1043D8001A80584B4FF448725A80A3E0554B9B887B
:1043E80041F66312934211D1524B2C221A81514B40
:1043F8002B225A814F4B2A229A814E4B4FF4F0724E
:104408001A804C4B4FF448725A808BE0494B222259
:104418001A81484B20225A81464B21229A8181E0F9
:10442800444B01229A71434B4FF4A0721A80414BBE
:10443800F0225A803F4B9B8849F24132934205D083
:104448003C4B9B8845F21032934209D1394B2C22C0
:104458001A81384B2A225A81364B2B229A814BE0FB
:10446800344B9B8846F60402934209D1314B2C22E7
:104478001A81304B2B225A812E4B2A229A813BE0FB
:104488002C4B9B8845F21052934214D1294B4FF480
:1044980030521A81274B4FF428525A81254B4FF43A
:1044A8002C529A81234B4FF448721A80214B4FF4B7
:1044B800F0725A8020E01F4B9B8841F663129342AA
:1044C80011D11C4B2C221A811A4B2A225A81194BC2
:1044D8002B229A81174B4FF448721A80154B4FF4D0
:1044E800F0725A8008E0134B22221A81114B2122C4
:1044F8005A81104B20229A810E4B9B8846F6040263
:10450800934205D00B4B9B8845F21032934209D158
:10451800084B4FF4F0721A80064B4FF4A0725A8081
:1045280000E000BF0020FFF7AFF800BF0837BD4626
:1045380080BD00BFF003002080B586B000AF904B6F
:104548009B698F4A43F0080393618D4B9B6903F085
:1045580008037B607B688A4B9B69894A43F0100398
:104568009361874B9B6903F010033B603B684FF4F2
:10457800F863BB600123FB6001233B6103237B617C
:1045880007F1080319467F48FCF7B2FF4FF6FF739F
:10459800BB6007F1080319467B48FCF7A9FF3220E6
:1045A800FCF776FE01210020FEF75CFD3220FCF7C7
:1045B8006FFE0020FEF780FD03461A46734B9A8073
:1045C800724B9B88FE2B0BD9704B9B884FF6FF7262
:1045D800934205D06D4B9B88B3F5134F40F0C880CC
:1045E800D320FEF7B3FCFEF7F9FCFEF7F7FCFEF765
:1045F800F5FC03461A46654B9A80644B9B881B0260
:104608009AB2624B9A80FEF7E9FC03461A465F4B62
:104618009B8813439AB25D4B9A805C4B9B8849F206
:104628004132934200F0A480BF20FEF78FFCFEF7D2
:10463800D5FCFEF7D3FCFEF7D1FCFEF7CFFC034612
:104648001A46524B9A80514B9B881B029AB24F4B89
:104658009A80FEF7C3FC03461A464C4B9B881343CB
:104668009AB24A4B9A80494B9B8846F60402934279
:104678007ED0D420FEF76AFCFEF7B0FCFEF7AEFC55
:10468800FEF7ACFC03461A46404B9A803F4B9B888A
:104698001B029AB23D4B9A80FEF7A0FC03461A46CD
:1046A8003A4B9B8813439AB2384B9A80374B9B8876
:1046B80045F2103293425BD04FF45A40FEF746FC65
:1046C800FEF78CFC4FF45B40FEF740FCFEF786FCDF
:1046D80003461A462D4B9A802C4B9B881B029AB294
:1046E8002A4B9A804FF45C40FEF730FCFEF776FCCC
:1046F80003461A46254B9B8813439AB2234B9A804C
:10470800224B9B88B3F5004F03D1204B45F2105242
:104718009A801E4B9B8845F21052934228D0A120C4
:10472800FEF714FCFEF75AFC03461A46174B9A800C
:10473800FEF754FC03461A46144B9A80134B9B8889
:104748001B029AB2114B9A80FEF748FC03461A46A0
:104758000E4B9B8813439AB20C4B9A800B4B9B8849
:1047680045F26172934203D1084B41F663129A8075
:10477800064B9B8849F24132934240F01F8107E083
:104788000010024000100140000C0140F00300201E
:10479800CF20FEF7DBFB0020FEF7FCFBC120FEF775
:1047A800F9FB3020FEF7F6FBED20FEF7CFFB642087
:1047B800FEF7F0FB0320FEF7EDFB1220FEF7EAFB05
:1047C8008120FEF7E7FBE820FEF7C0FB8520FEF717
:1047D800E1FB1020FEF7DEFB7A20FEF7DBFBCB20A7
:1047E800FEF7B4FB3920FEF7D5FB2C20FEF7D2FBF1
:1047F8000020FEF7CFFB3420FEF7CCFB0220FEF7AB
:10480800C9FBF720FEF7A2FB2020FEF7C3FBEA2036
:10481800FEF79CFB0020FEF7BDFB0020FEF7BAFB6D
:10482800C020FEF793FB1B20FEF7B4FBC120FEF768
:104838008DFB0120FEF7AEFBC520FEF787FB30207D
:10484800FEF7A8FB3020FEF7A5FBC720FEF77EFB8E
:10485800B720FEF79FFB3620FEF778FB4820FEF7CF
:1048680099FB3A20FEF772FB5520FEF793FBB12027
:10487800FEF76CFB0020FEF78DFB1A20FEF78AFB83
:10488800B620FEF763FB0A20FEF784FBA220FEF7A2
:1048980081FBF220FEF75AFB0020FEF77BFB262067
:1048A800FEF754FB0120FEF775FBE020FEF74EFBF8
:1048B8000F20FEF76FFB2A20FEF76CFB2820FEF77F
:1048C80069FB0820FEF766FB0E20FEF763FB082055
:1048D800FEF760FB5420FEF75DFBA920FEF75AFBAC
:1048E8004320FEF757FB0A20FEF754FB0F20FEF784
:1048F80051FB0020FEF74EFB0020FEF74BFB00208B
:10490800FEF748FB0020FEF745FBE120FEF71EFB03
:104918000020FEF73FFB1520FEF73CFB1720FEF7B3
:1049280039FB0720FEF736FB1120FEF733FB062084
:10493800FEF730FB2B20FEF72DFB5620FEF72AFB57
:104948003C20FEF727FB0520FEF724FB1020FEF78E
:1049580021FB0F20FEF71EFB3F20FEF71BFB3F202D
:10496800FEF718FB0F20FEF715FB2B20FEF7EEFADB
:104978000020FEF70FFB0020FEF70CFB0120FEF7DE
:1049880009FB3F20FEF706FB2A20FEF7DFFA00208E
:10499800FEF700FB0020FEF7FDFA0020FEF7FAFA0A
:1049A800EF20FEF7F7FA1120FEF7D0FA7820FCF78F
:1049B8006FFC2920FEF7CAFA03F0D8BC584B9B8835
:1049C80046F60402934240F0AD801120FEF7BEFA8D
:1049D8001420FCF75DFCD020FEF7B8FA0720FEF79C
:1049E800D9FA4220FEF7D6FA1D20FEF7D3FAD120D5
:1049F800FEF7ACFA0020FEF7CDFA1A20FEF7CAFA45
:104A08000920FEF7C7FAD220FEF7A0FA0120FEF728
:104A1800C1FA2220FEF7BEFAC020FEF797FA10204E
:104A2800FEF7B8FA3B20FEF7B5FA0020FEF7B2FA17
:104A38000220FEF7AFFA1120FEF7ACFAC520FEF708
:104A480085FA0320FEF7A6FAC820FEF77FFA0020B1
:104A5800FEF7A0FA2520FEF79DFA2120FEF79AFA24
:104A68000520FEF797FA0020FEF794FA0A20FEF7D1
:104A780091FA6520FEF78EFA2520FEF78BFA77204B
:104A8800FEF788FA5020FEF785FA0F20FEF782FA23
:104A98000020FEF77FFAF820FEF758FA0120FEF70B
:104AA80079FAFE20FEF752FA0020FEF773FA022088
:104AB800FEF770FA2020FEF749FA3620FEF746FA8C
:104AC8000820FEF767FA3A20FEF740FA5520FEF76D
:104AD80061FA2B20FEF73AFA0020FEF75BFA002075
:104AE800FEF758FA0120FEF755FA3F20FEF752FA72
:104AF8002A20FEF72BFA0020FEF74CFA0020FEF7DA
:104B080049FA0120FEF746FADF20FEF743FA78203B
:104B1800FCF7BEFB2920FEF719FA03F027BC00BFFB
:104B2800F0030020034B9B8845F21032934240F07B
:104B38007C8701E0F0030020ED20FEF707FA012052
:104B4800FEF728FAFE20FEF725FAEE20FEF7FEF91A
:104B5800DE20FEF71FFA2120FEF71CFAF120FEF7EF
:104B6800F5F90120FEF716FADF20FEF7EFF910201D
:104B7800FEF710FAC420FEF7E9F98F20FEF70AFACB
:104B8800C620FEF7E3F90020FEF704FAE220FEF75C
:104B980001FAE220FEF7FEF9E220FEF7FBF9BF205A
:104BA800FEF7D4F9AA20FEF7F5F9B020FEF7CEF902
:104BB8000D20FEF7EFF90020FEF7ECF90D20FEF7C7
:104BC800E9F90020FEF7E6F91120FEF7E3F90020E5
:104BD800FEF7E0F91920FEF7DDF90020FEF7DAF913
:104BE8002120FEF7D7F90020FEF7D4F92D20FEF793
:104BF800D1F90020FEF7CEF93D20FEF7CBF90020D1
:104C0800FEF7C8F95D20FEF7C5F90020FEF7C2F9E6
:104C18005D20FEF7BFF90020FEF7BCF9B120FEF7D2
:104C280095F98020FEF7B6F90020FEF7B3F98B203E
:104C3800FEF7B0F90020FEF7ADF99620FEF7AAF9C5
:104C48000020FEF7A7F9B220FEF780F90020FEF752
:104C5800A1F90020FEF79EF90220FEF79BF900203B
:104C6800FEF798F90320FEF795F90020FEF792F970
:104C7800B320FEF76BF90020FEF78CF90020FEF751
:104C880089F90020FEF786F90020FEF783F9002055
:104C9800FEF780F90020FEF77DF90020FEF77AF98B
:104CA8000020FEF777F90020FEF774F90020FEF7E0
:104CB80071F90020FEF76EF90020FEF76BF900206D
:104CC800FEF768F90020FEF765F90020FEF762F9A3
:104CD8000020FEF75FF90020FEF75CF90020FEF7E0
:104CE80059F90020FEF756F90020FEF753F9002085
:104CF800FEF750F90020FEF74DF90020FEF74AF9BB
:104D08000020FEF747F9B420FEF720F98B20FEF7C4
:104D180041F90020FEF73EF99620FEF73BF9002006
:104D2800FEF738F9A120FEF735F90020FEF732F931
:104D3800B520FEF70BF90220FEF72CF90020FEF74C
:104D480029F90320FEF726F90020FEF723F90420AD
:104D5800FEF720F90020FEF71DF9B620FEF7F6F859
:104D68000020FEF717F90020FEF714F9B720FEF728
:104D7800EDF80020FEF70EF90020FEF70BF93F20B2
:104D8800FEF708F90020FEF705F95E20FEF702F9A4
:104D98000020FEF7FFF86420FEF7FCF80020FEF77D
:104DA800F9F88C20FEF7F6F80020FEF7F3F8AC20AF
:104DB800FEF7F0F80020FEF7EDF8DC20FEF7EAF841
:104DC8000020FEF7E7F87020FEF7E4F80020FEF771
:104DD800E1F89020FEF7DEF80020FEF7DBF8EB2084
:104DE800FEF7D8F80020FEF7D5F8DC20FEF7D2F859
:104DF8000020FEF7CFF8B820FEF7A8F80020FEF74D
:104E0800C9F80020FEF7C6F80020FEF7C3F8002016
:104E1800FEF7C0F80020FEF7BDF80020FEF7BAF84C
:104E28000020FEF7B7F80020FEF7B4F8BA20FEF726
:104E38008DF82420FEF7AEF80020FEF7ABF800202E
:104E4800FEF7A8F80020FEF7A5F8C120FEF77EF8C7
:104E58002020FEF79FF80020FEF79CF85420FEF76C
:104E680099F80020FEF796F8FF20FEF793F8002047
:104E7800FEF790F8C220FEF769F80A20FEF78AF8D4
:104E88000020FEF787F80420FEF784F80020FEF7DC
:104E980081F8C320FEF75AF83C20FEF77BF8002083
:104EA800FEF778F83A20FEF775F80020FEF772F85A
:104EB8003920FEF76FF80020FEF76CF83720FEF770
:104EC80069F80020FEF766F83C20FEF763F800203A
:104ED800FEF760F83620FEF75DF80020FEF75AF876
:104EE8003220FEF757F80020FEF754F82F20FEF77F
:104EF80051F80020FEF74EF82C20FEF74BF8002062
:104F0800FEF748F82920FEF745F80020FEF742F89A
:104F18002620FEF73FF80020FEF73CF82420FEF795
:104F280039F80020FEF736F82420FEF733F8002081
:104F3800FEF730F82320FEF72DF80020FEF72AF8B8
:104F48003C20FEF727F80020FEF724F83620FEF76D
:104F580021F80020FEF71EF83220FEF71BF800208B
:104F6800FEF718F82F20FEF715F80020FEF712F8C4
:104F78002C20FEF70FF80020FEF70CF82920FEF78A
:104F880009F80020FEF706F82620FEF703F80020AF
:104F9800FEF700F82420FDF7FDFF0020FDF7FAFFDB
:104FA8002420FDF7F7FF0020FDF7F4FF2320FDF78D
:104FB800F1FF0020FDF7EEFFC420FDF7C7FF6220D8
:104FC800FDF7E8FF0020FDF7E5FF0520FDF7E2FF0C
:104FD8000020FDF7DFFF8420FDF7DCFF0020FDF750
:104FE800D9FFF020FDF7D6FF0020FDF7D3FF1820EA
:104FF800FDF7D0FF0020FDF7CDFFA420FDF7CAFF85
:105008000020FDF7C7FF1820FDF7C4FF0020FDF7BB
:10501800C1FF5020FDF7BEFF0020FDF7BBFF0C20AD
:10502800FDF7B8FF0020FDF7B5FF1720FDF7B2FF29
:105038000020FDF7AFFF9520FDF7ACFF0020FDF73E
:10504800A9FFF320FDF7A6FF0020FDF7A3FFE62048
:10505800FDF7A0FF0020FDF79DFFC520FDF776FFB7
:105068003220FDF797FF0020FDF794FF4420FDF75D
:1050780091FF0020FDF78EFF6520FDF78BFF0020D4
:10508800FDF788FF7620FDF785FF0020FDF782FFFA
:105098008820FDF77FFF0020FDF77CFFC620FDF785
:1050A80055FF2020FDF776FF0020FDF773FF17203E
:1050B800FDF770FF0020FDF76DFF0120FDF76AFF87
:1050C8000020FDF767FFC720FDF740FF0020FDF730
:1050D80061FF0020FDF75EFF0020FDF75BFF002069
:1050E800FDF758FFC820FDF731FF0020FDF752FFFC
:1050F8000020FDF74FFF0020FDF74CFF0020FDF7D3
:1051080049FFC920FDF722FF0020FDF743FF0020DB
:10511800FDF740FF0020FDF73DFF0020FDF73AFFB7
:105128000020FDF737FF0020FDF734FF0020FDF7D2
:1051380031FF0020FDF72EFF0020FDF72BFF002098
:10514800FDF728FF0020FDF725FF0020FDF722FFCF
:105158000020FDF71FFF0020FDF71CFF0020FDF7D2
:1051680019FF0020FDF716FFE020FDF7EFFE1620DF
:10517800FDF710FF0020FDF70DFF1C20FDF70AFFCB
:105188000020FDF707FF2120FDF704FF0020FDF7B1
:1051980001FF3620FDF7FEFE0020FDF7FBFE46204E
:1051A800FDF7F8FE0020FDF7F5FE5220FDF7F2FEB0
:1051B8000020FDF7EFFE6420FDF7ECFE0020FDF770
:1051C800E9FE7A20FDF7E6FE0020FDF7E3FE8B20DE
:1051D800FDF7E0FE0020FDF7DDFE9920FDF7DAFE81
:1051E8000020FDF7D7FEA820FDF7D4FE0020FDF72C
:1051F800D1FEB920FDF7CEFE0020FDF7CBFEC4207E
:10520800FDF7C8FE0020FDF7C5FECA20FDF7C2FE67
:105218000020FDF7BFFED220FDF7BCFE0020FDF701
:10522800B9FED920FDF7B6FE0020FDF7B3FEE02059
:10523800FDF7B0FE0020FDF7ADFEF320FDF7AAFE56
:105248000020FDF7A7FEE120FDF780FE1620FDF700
:10525800A1FE0020FDF79EFE1C20FDF79BFE00200E
:10526800FDF798FE2220FDF795FE0020FDF792FE3F
:105278003620FDF78FFE0020FDF78CFE4520FDF758
:1052880089FE0020FDF786FE5220FDF783FE0020F0
:10529800FDF780FE6420FDF77DFE0020FDF77AFE15
:1052A8007A20FDF777FE0020FDF774FE8B20FDF7CE
:1052B80071FE0020FDF76EFE9920FDF76BFE0020C1
:1052C800FDF768FEA820FDF765FE0020FDF762FEE9
:1052D800B920FDF75FFE0020FDF75CFEC420FDF756
:1052E80059FE0020FDF756FECA20FDF753FE0020A8
:1052F800FDF750FED220FDF74DFE0020FDF74AFED7
:10530800D820FDF747FE0020FDF744FEE020FDF71A
:1053180041FE0020FDF73EFEF320FDF73BFE002096
:10532800FDF738FEE220FDF711FE0520FDF732FEFD
:105338000020FDF72FFE0B20FDF72CFE0020FDF7C7
:1053480029FE1B20FDF726FE0020FDF723FE342052
:10535800FDF720FE0020FDF71DFE4420FDF71AFE94
:105368000020FDF717FE4F20FDF714FE0020FDF783
:1053780011FE6120FDF70EFE0020FDF70BFE7920DF
:10538800FDF708FE0020FDF705FE8820FDF702FE68
:105398000020FDF7FFFD9720FDF7FCFD0020FDF73D
:1053A800F9FDA620FDF7F6FD0020FDF7F3FDB72077
:1053B800FDF7F0FD0020FDF7EDFDC220FDF7EAFD49
:1053C8000020FDF7E7FDC720FDF7E4FD0020FDF70D
:1053D800E1FDD120FDF7DEFD0020FDF7DBFDD62045
:1053E800FDF7D8FD0020FDF7D5FDDD20FDF7D2FD46
:1053F8000020FDF7CFFDF320FDF7CCFD0020FDF7E1
:10540800C9FDE320FDF7A2FD0520FDF7C3FD00203F
:10541800FDF7C0FD0A20FDF7BDFD0020FDF7BAFD30
:105428001C20FDF7B7FD0020FDF7B4FD3320FDF784
:10543800B1FD0020FDF7AEFD4420FDF7ABFD0020D7
:10544800FDF7A8FD5020FDF7A5FD0020FDF7A2FD02
:105458006220FDF79FFD0020FDF79CFD7820FDF7F9
:1054680099FD0020FDF796FD8820FDF793FD0020AB
:10547800FDF790FD9720FDF78DFD0020FDF78AFDD3
:10548800A620FDF787FD0020FDF784FDB720FDF776
:1054980081FD0020FDF77EFDC220FDF77BFD002089
:1054A800FDF778FDC720FDF775FD0020FDF772FDBB
:1054B800D120FDF76FFD0020FDF76CFDD520FDF72D
:1054C80069FD0020FDF766FDDD20FDF763FD002086
:1054D800FDF760FDF320FDF75DFD0020FDF75AFDA7
:1054E800E420FDF733FD0120FDF754FD0020FDF712
:1054F80051FD0120FDF74EFD0020FDF74BFD022078
:10550800FDF748FD0020FDF745FD2A20FDF742FD87
:105518000020FDF73FFD3C20FDF73CFD0020FDF796
:1055280039FD4B20FDF736FD0020FDF733FD5D20EA
:10553800FDF730FD0020FDF72DFD7420FDF72AFD55
:105548000020FDF727FD8420FDF724FD0020FDF74E
:1055580021FD9320FDF71EFD0020FDF71BFDA22075
:10556800FDF718FD0020FDF715FDB320FDF712FD2E
:105578000020FDF70FFDBE20FDF70CFD0020FDF714
:1055880009FDC420FDF706FD0020FDF703FDCD2031
:10559800FDF700FD0020FDF7FDFCD320FDF7FAFC28
:1055A8000020FDF7F7FCDD20FDF7F4FC0020FDF7F7
:1055B800F1FCF320FDF7EEFC0020FDF7EBFCE52005
:1055C800FDF7C4FC0020FDF7E5FC0020FDF7E2FC38
:1055D8000020FDF7DFFC0020FDF7DCFC0220FDF7D2
:1055E800D9FC0020FDF7D6FC2920FDF7D3FC0020CC
:1055F800FDF7D0FC3C20FDF7CDFC0020FDF7CAFCF0
:105608004B20FDF7C7FC0020FDF7C4FC5D20FDF72B
:10561800C1FC0020FDF7BEFC7420FDF7BBFC002098
:10562800FDF7B8FC8420FDF7B5FC0020FDF7B2FCBF
:105638009320FDF7AFFC0020FDF7ACFCA220FDF79E
:10564800A9FC0020FDF7A6FCB320FDF7A3FC002071
:10565800FDF7A0FCBE20FDF79DFC0020FDF79AFC9D
:10566800C420FDF797FC0020FDF794FCCD20FDF742
:1056780091FC0020FDF78EFCD320FDF78BFC002069
:10568800FDF788FCDC20FDF785FC0020FDF782FC97
:10569800F320FDF77FFC0020FDF77CFCE620FDF7FA
:1056A80055FC1120FDF776FC0020FDF773FC342033
:1056B800FDF770FC0020FDF76DFC5620FDF76AFC35
:1056C8000020FDF767FC7620FDF764FC0020FDF75D
:1056D80061FC7720FDF75EFC0020FDF75BFC66208F
:1056E800FDF758FC0020FDF755FC8820FDF752FC1B
:1056F8000020FDF74FFC9920FDF74CFC0020FDF73A
:1057080049FCBB20FDF746FC0020FDF743FC99202F
:10571800FDF740FC0020FDF73DFC6620FDF73AFC54
:105728000020FDF737FC5520FDF734FC0020FDF77D
:1057380031FC5520FDF72EFC0020FDF72BFC452001
:10574800FDF728FC0020FDF725FC4320FDF722FC8F
:105758000020FDF71FFC4420FDF71CFC0020FDF78E
:1057680019FCE720FDF7F2FB3220FDF713FC0020BF
:10577800FDF710FC5520FDF70DFC0020FDF70AFC95
:105788007620FDF707FC0020FDF704FC6620FDF7F6
:1057980001FC0020FDF7FEFB6720FDF7FBFB002066
:1057A800FDF7F8FB6720FDF7F5FB0020FDF7F2FB9E
:1057B8008720FDF7EFFB0020FDF7ECFB9920FDF7B4
:1057C800E9FB0020FDF7E6FBBB20FDF7E3FB00202B
:1057D800FDF7E0FB9920FDF7DDFB0020FDF7DAFB84
:1057E8007720FDF7D7FB0020FDF7D4FB4420FDF719
:1057F800D1FB0020FDF7CEFB5620FDF7CBFB0020A8
:10580800FDF7C8FB2320FDF7C5FB0020FDF7C2FB11
:105818003320FDF7BFFB0020FDF7BCFB4520FDF75B
:10582800B9FB0020FDF7B6FBE820FDF78FFB002051
:10583800FDF7B0FB0020FDF7ADFB9920FDF7AAFBB3
:105848000020FDF7A7FB8720FDF7A4FB0020FDF74C
:10585800A1FB8820FDF79EFB0020FDF79BFB77202E
:10586800FDF798FB0020FDF795FB6620FDF792FBFE
:105878000020FDF78FFB8820FDF78CFB0020FDF74B
:1058880089FBAA20FDF786FB0020FDF783FBBB20E0
:10589800FDF780FB0020FDF77DFB9920FDF77AFBE3
:1058A8000020FDF777FB6620FDF774FB0020FDF76D
:1058B80071FB5520FDF76EFB0020FDF76BFB5520B3
:1058C800FDF768FB0020FDF765FB4420FDF762FB50
:1058D8000020FDF75FFB4420FDF75CFB0020FDF78F
:1058E80059FB5520FDF756FB0020FDF753FBE92037
:1058F800FDF72CFBAA20FDF74DFB0020FDF74AFB26
:105908000020FDF747FB0020FDF744FB0020FDF7D2
:105918001DFBAA20FDF73EFBCF20FDF717FB00205B
:10592800FDF738FB0020FDF735FB0020FDF732FBC3
:105938000020FDF72FFB0020FDF72CFB0020FDF7D2
:1059480029FB0020FDF726FB0020FDF723FB0020A4
:10595800FDF720FB0020FDF71DFB0020FDF71AFBDB
:105968000020FDF717FB0020FDF714FB0020FDF7D2
:1059780011FB0020FDF70EFB0020FDF70BFB0020BC
:10598800FDF708FBF020FDF7E1FA0020FDF702FB28
:105998005020FDF7FFFA0020FDF7FCFA0020FDF784
:1059A800F9FA0020FDF7F6FAF320FDF7CFFA002008
:1059B800FDF7F0FAF920FDF7C9FA0620FDF7EAFA33
:1059C8001020FDF7E7FA2920FDF7E4FA0020FDF79B
:1059D800E1FA3A20FDF7BAFA5520FDF7DBFA112073
:1059E800FDF7B4FA6420FBF753FC2920FDF7AEFA63
:1059F8003520FDF7ABFA0020FDF7CCFA5120FDF772
:105A0800A5FAFF20FDF7C6FA5320FDF79FFA2C20D0
:105A1800FDF7C0FA5520FDF799FA8220FDF7BAFA8A
:105A28002C20FDF793FA02F0A1BC044B9B8845F2A9
:105A38001052934240F0828702E000BFF00300203A
:105A480055214FF47040FDF70DFBAA214FF20100DC
:105A5800FDF708FB52214FF20200FDF703FB082176
:105A68004FF20300FDF7FEFA01214FF20400FDF7A3
:105A7800F9FA0D214FF43040FDF7F4FA0D214BF2FD
:105A88000100FDF7EFFA0D214BF20200FDF7EAFAEB
:105A980034214FF43640FDF7E5FA34214BF201602A
:105AA800FDF7E0FA34214BF20260FDF7DBFA0D2135
:105AB8004FF43140FDF7D6FA0D214BF20110FDF7F6
:105AC800D1FA0D214BF20210FDF7CCFA34214FF434
