:020000040800F2
:1000000000C00020AD8100087579000881790008E2
:10001000877900088D7900089379000800000000B6
:1000200000000000000000000000000099790008B6
:10003000A579000800000000B1790008BD7900082A
:10004000F5810008F5810008F5810008F5810008B8
:10005000F5810008F5810008C9790008F5810008DC
:10006000F5810008F5810008F5810008F581000898
:10007000F5810008F5810008F5810008F581000888
:10008000F5810008F5810008F5810008F581000878
:10009000F5810008F5810008F5810008D77900088E
:1000A000F5810008F5810008F5810008F581000858
:1000B000F5810008F5810008F5810008F581000848
:1000C000F5810008F5810008F5810008F581000838
:1000D000F5810008F5810008F5810008F581000828
:1000E000E5790008F5810008F5810008F581000830
:1000F000F5810008F5810008F5810008F581000808
:10010000F5810008F5810008F5810008F5810008F7
:10011000F5810008F5810008F5810008F5810008E7
:10012000F5810008F5810008F5810008F5810008D7
:1001300000000000000000000000000000000000BF
:1001400000000000000000000000000000000000AF
:10015000000000000000000000000000000000009F
:10016000000000000000000000000000000000008F
:10017000000000000000000000000000000000007F
:10018000000000000000000000000000000000006F
:10019000000000000000000000000000000000005F
:1001A000000000000000000000000000000000004F
:1001B000000000000000000000000000000000003F
:1001C000000000000000000000000000000000002F
:1001D000000000000000000000000000000000001F
:0401E0005FF8E0F1F3
:1001E80010B5054C237833B9044B13B10448AFF369
:1001F80000800123237010BDA4020020000000002D
:1002080034A3000808B5034B1BB103490348AFF3F7
:10021800008008BD00000000A802002034A30008E8
:10022800034613F8012B002AFBD1181A013870472E
:1002380081F0004102E000BF83F0004330B54FEA8F
:1002480041044FEA430594EA050F08BF90EA020FFC
:100258001FBF54EA000C55EA020C7FEA645C7FEA8F
:10026800655C00F0E2804FEA5454D4EB5555B8BFB2
:100278006D420CDD2C4480EA020281EA030382EA23
:10028800000083EA010180EA020281EA0303362DB5
:1002980088BF30BD11F0004F4FEA01314FF4801C88
:1002A8004CEA113102D0404261EB410113F0004F9A
:1002B8004FEA03334CEA133302D0524263EB430351
:1002C80094EA050F00F0A780A4F10104D5F1200EEF
:1002D8000DDB02FA0EFC22FA05F2801841F100014A
:1002E80003FA0EF2801843FA05F359410EE0A5F11E
:1002F80020050EF1200E012A03FA0EFC28BF4CF04F
:10030800020C43FA05F3C01851EBE37101F0004504
:1003180007D54FF0000EDCF1000C7EEB00006EEB11
:100328000101B1F5801F1BD3B1F5001F0CD349089B
:100338005FEA30004FEA3C0C04F101044FEA4452F2
:1003480012F5800F80F09A80BCF1004F08BF5FEA79
:10035800500C50F1000041EB045141EA050130BD59
:100368005FEA4C0C404141EB010111F4801FA4F1FC
:100378000104E9D191F0000F04BF01460020B1FA51
:1003880081F308BF2033A3F10B03B3F120020CDA89
:100398000C3208DD02F1140CC2F10C0201FA0CF067
:1003A80021FA02F10CE002F11402D8BFC2F1200CCC
:1003B80001FA02F120FA0CFCDCBF41EA0C01904082
:1003C800E41AA2BF01EB0451294330BD6FEA0404CB
:1003D8001F3C1CDA0C340EDC04F11404C4F12002B6
:1003E80020FA04F001FA02F340EA030021FA04F3C8
:1003F80045EA030130BDC4F10C04C4F1200220FA1F
:1004080002F001FA04F340EA0300294630BD21FA5C
:1004180004F0294630BD94F0000F83F4801306BF22
:1004280081F480110134013D4EE77FEA645C18BF16
:100438007FEA655C29D094EA050F08BF90EA020FAD
:1004480005D054EA000C04BF1946104630BD91EAA5
:10045800030F1EBF0021002030BD5FEA545C05D1A8
:100468004000494128BF41F0004130BD14F58004E7
:100478003CBF01F5801130BD01F0004545F0FE415B
:1004880041F470014FF0000030BD7FEA645C1ABF90
:10049800194610467FEA655C1CBF0B46024650EAC7
:1004A800013406BF52EA033591EA030F41F40021F3
:1004B80030BD00BF90F0000F04BF0021704730B579
:1004C8004FF4806404F132044FF000054FF000014E
:1004D80050E700BF90F0000F04BF0021704730B50F
:1004E8004FF4806404F1320410F0004548BF4042E4
:1004F8004FF000013EE700BF42004FEAE2014FEA39
:1005080031014FEA02701FBF12F07F4393F07F4F13
:1005180081F06051704732F07F4208BF704793F016
:100528007F4F04BF41F40021704730B54FF4607429
:1005380001F0004521F000411CE700BF50EA01022C
:1005480008BF704730B54FF000050AE050EA0102D5
:1005580008BF704730B511F0004502D5404261EB45
:1005680041014FF4806404F132045FEA915C3FF486
:10057800D8AE4FF003025FEADC0C18BF03325FEA23
:10058800DC0C18BF033202EBDC02C2F1200300FAD4
:1005980003FC20FA02F001FA03FE40EA0E0021FAF9
:1005A80002F11444BDE600BF70B54FF0FF0C4CF4E7
:1005B800E06C1CEA11541DBF1CEA135594EA0C0F99
:1005C80095EA0C0F00F0DEF82C4481EA030621EAD4
:1005D8004C5123EA4C5350EA013518BF52EA03350F
:1005E80041F4801143F4801338D0A0FB02CE4FF0C1
:1005F8000005E1FB02E506F00042E0FB03E54FF0F1
:100608000006E1FB03569CF0000F18BF4EF0010EE8
:10061800A4F1FF04B6F5007F64F5407404D25FEAE4
:100628004E0E6D4146EB060642EAC62141EA555197
:100638004FEAC52040EA5E504FEACE2EB4F1FD0CD9
:1006480088BFBCF5E06F1ED8BEF1004F08BF5FEA57
:10065800500E50F1000041EB045170BD06F0004609
:1006680046EA010140EA020081EA0301B4EB5C04B6
:10067800C2BFD4EB0C0541EA045170BD41F48011AE
:100688004FF0000E013C00F3AB8014F1360FDEBFD3
:10069800002001F0004170BDC4F10004203C35DAAF
:1006A8000C341BDC04F11404C4F1200500FA05F332
:1006B80020FA04F001FA05F240EA020001F00042D3
:1006C80021F0004110EBD37021FA04F642EB060149
:1006D8005EEA430E08BF20EAD37070BDC4F10C0473
:1006E800C4F1200500FA04F320FA05F001FA04F237
:1006F80040EA020001F0004110EBD37041F1000123
:100708005EEA430E08BF20EAD37070BDC4F120052D
:1007180000FA05F24EEA020E20FA04F301FA05F295
:1007280043EA020321FA04F001F0004121FA04F23D
:1007380020EA020000EBD3705EEA430E08BF20EA0D
:10074800D37070BD94F0000F0FD101F00046400047
:1007580041EB010111F4801F08BF013CF7D041EAC9
:10076800060195F0000F18BF704703F000465200CD
:1007780043EB030313F4801F08BF013DF7D043EA9E
:100788000603704794EA0C0F0CEA135518BF95EA54
:100798000C0F0CD050EA410618BF52EA4306D1D1DB
:1007A80081EA030101F000414FF0000070BD50EAFA
:1007B800410606BF1046194652EA430619D094EA84
:1007C8000C0F02D150EA013613D195EA0C0F05D16E
:1007D80052EA03361CBF104619460AD181EA0301C2
:1007E80001F0004141F0FE4141F470014FF000007A
:1007F80070BD41F0FE4141F4780170BD70B54FF015
:10080800FF0C4CF4E06C1CEA11541DBF1CEA135594
:1008180094EA0C0F95EA0C0F00F0A7F8A4EB050476
:1008280081EA030E52EA03354FEA013100F088806D
:100838004FEA03334FF0805545EA131343EA126336
:100848004FEA022245EA111545EA10654FEA0026EB
:100858000EF000419D4208BF964244F1FD0404F5A4
:10086800407402D25B084FEA3202B61A65EB030500
:100878005B084FEA32024FF480104FF4002CB6EBBD
:10088800020E75EB030E22BFB61A754640EA0C003D
:100898005B084FEA3202B6EB020E75EB030E22BF7D
:1008A800B61A754640EA5C005B084FEA3202B6EBBE
:1008B800020E75EB030E22BFB61A754640EA9C007D
:1008C8005B084FEA3202B6EB020E75EB030E22BF4D
:1008D800B61A754640EADC0055EA060E18D04FEA0B
:1008E800051545EA16754FEA06164FEAC30343EAAB
:1008F80052734FEAC2025FEA1C1CC0D111F4801F78
:100908000BD141EA00014FF000004FF0004CB6E770
:1009180011F4801F04BF01430020B4F1FD0C88BF0F
:10092800BCF5E06F3FF6AFAEB5EB030C04BFB6EB1A
:10093800020C5FEA500C50F1000041EB045170BD0D
:100948000EF0004E4EEA113114EB5C04C2BFD4EB3A
:100958000C0541EA045170BD41F480114FF0000EBE
:10096800013C90E645EA060E8DE60CEA135594EA3A
:100978000C0F08BF95EA0C0F3FF43BAF94EA0C0F3D
:100988000AD150EA01347FF434AF95EA0C0F7FF4B2
:1009980025AF104619462CE795EA0C0F06D152EA06
:1009A80003353FF4FDAE1046194622E750EA4106EA
:1009B80018BF52EA43067FF4C5AE50EA41047FF4FB
:1009C8000DAF52EA43057FF4EBAE12E74FF0FF3C60
:1009D80006E000BF4FF0010C02E000BF4FF0010C31
:1009E8004DF804CD4FEA410C7FEA6C5C4FEA430CAA
:1009F80018BF7FEA6C5C1BD001B050EA410C0CBFF9
:100A080052EA430C91EA030F02BF90EA020F00205A
:100A1800704710F1000F91EA030F58BF994208BFC1
:100A280090422CBFD8176FEAE37040F0010070477E
:100A38004FEA410C7FEA6C5C02D150EA013C07D1D5
:100A48004FEA430C7FEA6C5CD6D152EA033CD3D020
:100A58005DF8040B704700BF8446104662468C461A
:100A68001946634600E000BF01B5FFF7B7FF00284D
:100A780048BF10F1000F01BD4DF808EDFFF7F4FF76
:100A88000CBF012000205DF808FB00BF4DF808ED01
:100A9800FFF7EAFF34BF012000205DF808FB00BF24
:100AA8004DF808EDFFF7E0FF94BF012000205DF846
:100AB80008FB00BF4DF808EDFFF7CEFF94BF0120FB
:100AC80000205DF808FB00BF4DF808EDFFF7C4FFF4
:100AD80034BF012000205DF808FB00BF4FEA410C3D
:100AE8007FEA6C5C02D150EA013C0AD14FEA430C20
:100AF8007FEA6C5C02D152EA033C02D14FF000005D
:100B080070474FF0010070474FEA410212F500129A
:100B180015D211D56FF47873B3EB625212D94FEA3C
:100B2800C12343F0004343EA505311F0004F23FA26
:100B380002F018BF404270474FF00000704750EA7B
:100B4800013005D111F0004008BF6FF00040704738
:100B58004FF00000704700BF4A0011D212F5001292
:100B680011D20DD56FF47873B3EB62520ED44FEAFD
:100B7800C12343F0004343EA505323FA02F070477D
:100B88004FF00000704750EA013002D14FF0FF30BB
:100B980070474FF00000704780F0004002E000BF4F
:100BA80081F0004142001FBF5FEA410392EA030F50
:100BB8007FEA226C7FEA236C6AD04FEA1262D2EB9A
:100BC8001363C1BFD218414048404140B8BF5B429F
:100BD800192B88BF704710F0004F40F4000020F038
:100BE8007F4018BF404211F0004F41F4000121F04E
:100BF8007F4118BF494292EA030F3FD0A2F1010298
:100C080041FA03FC10EB0C00C3F1200301FA03F1D5
:100C180000F0004302D5494260EB4000B0F5000FF8
:100C280013D3B0F1807F06D340084FEA310102F1B7
:100C38000102FE2A51D2B1F1004F40EBC25008BF69
:100C480020F0010040EA03007047490040EB000033
:100C580010F4000FA2F10102EDD1B0FA80FCACF162
:100C6800080CB2EB0C0200FA0CF0AABF00EBC25061
:100C780052421843BCBFD0401843704792F0000F4F
:100C880081F4000106BF80F400000132013BB5E7A2
:100C98004FEA41037FEA226C18BF7FEA236C21D018
:100CA80092EA030F04D092F0000F08BF084670477D
:100CB80090EA010F1CBF0020704712F07F4F04D14B
:100CC800400028BF40F00040704712F100723CBF5E
:100CD80000F50000704700F0004343F0FE4040F488
:100CE800000070477FEA226216BF08467FEA236346
:100CF8000146420206BF5FEA412390EA010F40F431
:100D0800800070474FF0000304E000BF10F000437C
:100D180048BF40425FEA000C08BF704743F0964363
:100D280001464FF000001CE050EA010208BF70477E
:100D38004FF000030AE000BF50EA010208BF704705
:100D480011F0004302D5404261EB41015FEA010C1A
:100D580002BF84460146002043F0B64308BFA3F112
:100D68008053A3F50003BCFA8CF2083AA3EBC253F4
:100D780010DB01FA02FC634400FA02FCC2F1200213
:100D8800BCF1004F20FA02F243EB020008BF20F04A
:100D98000100704702F1200201FA02FCC2F12002B0
:100DA80050EA4C0021FA02F243EB020008BF20EAA5
:100DB800DC7070474FF0FF0C1CEAD0521EBF1CEAD3
:100DC800D15392EA0C0F93EA0C0F6FD01A4480EAC1
:100DD800010C400218BF5FEA41211ED04FF00063AA
:100DE80043EA501043EA5111A0FB01310CF00040D6
:100DF800B1F5000F3EBF490041EAD3715B0040EAFC
:100E0800010062F17F02FD2A1DD8B3F1004F40EBCB
:100E1800C25008BF20F00100704790F0000F0CF09E
:100E2800004C08BF49024CEA502040EA51207F3A62
:100E3800C2BFD2F1FF0340EAC250704740F400003D
:100E48004FF00003013A5DDC12F1190FDCBF00F02E
:100E580000407047C2F10002410021FA02F1C2F1DC
:100E6800200200FA02FC5FEA310040F1000053EA78
:100E78004C0308BF20EADC70704792F0000F00F0C6
:100E8800004C02BF400010F4000F013AF9D040EACC
:100E98000C0093F0000F01F0004C02BF490011F460
:100EA800000F013BF9D041EA0C018FE70CEAD1535E
:100EB80092EA0C0F18BF93EA0C0F0AD030F0004CDE
:100EC80018BF31F0004CD8D180EA010000F0004092
:100ED800704790F0000F17BF90F0004F084691F050
:100EE800000F91F0004F14D092EA0C0F01D142028A
:100EF8000FD193EA0C0F03D14B0218BF084608D153
:100F080080EA010000F0004040F0FE4040F400009C
:100F1800704740F0FE4040F4400070474FF0FF0C2F
:100F28001CEAD0521EBF1CEAD15392EA0C0F93EA76
:100F38000C0F69D0A2EB030280EA010C49024FEAC8
:100F4800402037D04FF0805343EA111143EA101381
:100F58000CF000408B4238BF5B0042F17D024FF439
:100F6800000C8B4224BF5B1A40EA0C00B3EB510F14
:100F780024BFA3EB510340EA5C00B3EB910F24BFFD
:100F8800A3EB910340EA9C00B3EBD10F24BFA3EB82
:100F9800D10340EADC001B0118BF5FEA1C1CE0D14A
:100FA800FD2A3FF650AF8B4240EBC25008BF20F0FD
:100FB800010070470CF0004C4CEA50207F32C2BF51
:100FC800D2F1FF0340EAC250704740F400004FF0EE
:100FD8000003013A37E792F0000F00F0004C02BF1F
:100FE800400010F4000F013AF9D040EA0C0093F0E9
:100FF800000F01F0004C02BF490011F4000F013B43
:10100800F9D041EA0C0195E70CEAD15392EA0C0FAA
:1010180008D142027FF47DAF93EA0C0F7FF470AFE2
:10102800084676E793EA0C0F04D14B023FF44CAF25
:1010380008466EE730F0004C18BF31F0004CCAD1BA
:1010480030F000427FF45CAF31F000437FF43CAFF6
:101058005FE700BF4FEA4002B2F1FE4F0FD34FF0F7
:101068009E03B3EB12620DD94FEA002343F000430D
:1010780010F0004F23FA02F018BF404270474FF0BB
:101088000000704712F1610F01D1420205D110F042
:10109800004008BF6FF0004070474FF000007047F5
:1010A80080B500AF084B1B68074A43F01003136074
:1010B800032000F045F9002000F008F806F022FCB3
:1010C8000023184680BD00BF0020024080B582B0D2
:1010D80000AF7860124B1A68124B1B7819464FF410
:1010E8007A73B3FBF1F3B2FBF3F3184600F05DF942
:1010F8000346002B01D001230EE07B680F2B0AD892
:10110800002279684FF0FF3000F025F9064A7B6825
:101118001360002300E0012318460837BD4680BD50
:10112800D0000020040000200000002080B400AFA0
:10113800054B1B781A46054B1B681344034A13607A
:1011480000BFBD4680BC704704000020D8020020C4
:1011580080B400AF024B1B681846BD4680BC704780
:10116800D802002080B584B000AF7860FFF7F0FFA8
:10117800B8607B68FB60FB68B3F1FF3F05D0094BA3
:101188001B781A46FB681344FB6000BFFFF7E0FFBB
:101198000246BB68D31AFA689A42F7D800BF1037DC
:1011A800BD4680BD0400002080B485B000AF7860E3
:1011B8007B6803F00703FB600C4BDB68BB60BA6815
:1011C8004FF6FF031340BB60FB681A02BB6813436A
:1011D80043F0BF6343F40033BB60044ABB68D36089
:1011E80000BF1437BD4680BC704700BF00ED00E06B
:1011F80080B400AF044BDB681B0A03F007031846F2
:10120800BD4680BC704700BF00ED00E080B483B0ED
:1012180000AF0346FB7197F90730002B0BDBFB7916
:1012280003F01F02064997F907305B09012000FA0D
:1012380002F241F8232000BF0C37BD4680BC70473E
:1012480000E100E080B483B000AF03463960FB7171
:1012580097F90730002B0ADB3B68DAB20C4997F99B
:1012680007301201D2B20B4483F800230AE03B682E
:10127800DAB20849FB7903F00F03043B1201D2B23A
:101288000B441A7600BF0C37BD4680BC704700BFC0
:1012980000E100E000ED00E080B489B000AFF86044
:1012A800B9607A60FB6803F00703FB61FB69C3F16F
:1012B8000703042B28BF0423BB61FB690433062BF7
:1012C80002D9FB69033B00E000237B614FF0FF324A
:1012D800BB6902FA03F3DA43BB681A407B699A4098
:1012E8004FF0FF317B6901FA03F3D9437B680B4068
:1012F800134318462437BD4680BC704780B582B07A
:1013080000AF78607B68013BB3F1807F01D3012394
:101318000FE00A4A7B68013B53600F214FF0FF3012
:10132800FFF790FF054B00229A60044B07221A60D2
:10133800002318460837BD4680BD00BF10E000E016
:1013480080B582B000AF78607868FFF72DFF00BFE6
:101358000837BD4680BD80B586B000AF0346B9608A
:101368007A60FB7300237B61FFF742FF78617A683C
:10137800B9687869FFF790FF024697F90F30114670
:101388001846FFF75FFF00BF1837BD4680BD80B520
:1013980082B000AF0346FB7197F907301846FFF794
:1013A80035FF00BF0837BD4680BD80B582B000AFAD
:1013B80078607868FFF7A2FF034618460837BD46ED
:1013C80080BD000080B48BB000AF78603960002326
:1013D8007B6200233B6233E101227B6A02FA03F35A
:1013E800FB613B681B68FA691340BB61BA69FB691A
:1013F8009A4240F022813B685B68122B34D0122B52
:101408000DD8022B2BD0022B04D8002B31D0012B66
:101418001CD048E0032B43D0112B1BD043E08F4A4C
:10142800934226D08D4A934206D88D4A934220D0C3
:101438008C4A93421DD036E08B4A934219D08B4A8E
:10144800934216D08A4A934213D02CE03B68DB685B
:101458003B6228E03B68DB6804333B6223E03B687F
:10146800DB6808333B621EE03B68DB680C333B6299
:1014780019E03B689B68002B02D104233B6212E011
:101488003B689B68012B05D108233B627B68FA699E
:101498001A6108E008233B627B68FA695A6102E036
:1014A80000233B6200BFBB69FF2B01D87B6801E0CA
:1014B8007B6804337B61BB69FF2B02D87B6A9B0086
:1014C80002E07B6A083B9B003B617B691A680F213D
:1014D8003B6901FA03F3DB431A40396A3B6901FAB5
:1014E80003F31A437B691A603B685B6803F0805317
:1014F800002B00F0A2805F4B9B695E4A43F001031A
:1015080093615C4B9B6903F00103BB60BB685A4A5B
:101518007B6A9B08023352F82330FB607B6A03F036
:1015280003039B000F2202FA03F3DB43FA6813401C
:10153800FB607B68514A93421FD07B68504A9342B4
:1015480019D07B684F4A934213D07B684E4A934226
:101558000DD07B684D4A934207D07B684C4A934232
:1015680001D105230AE0062308E0042306E003234B
:1015780004E0022302E0012300E000237A6A02F07B
:10158800030292009340FA681343FB603A497B6A6E
:101598009B080233FA6841F823203B685B6803F430
:1015A8008033002B06D03B4B1A683A49BB6913437A
:1015B8000B6006E0374B1A68BB69DB4335491340BB
:1015C8000B603B685B6803F40033002B06D0314B9B
:1015D8005A683049BB6913434B6006E02D4B5A6883
:1015E800BB69DB432B4913404B603B685B6803F4E2
:1015F8008013002B06D0274B9A682649BB691343F2
:101608008B6006E0234B9A68BB69DB432149134092
:101618008B603B685B6803F40013002B06D01D4BFE
:10162800DA681C49BB691343CB6006E0194BDA68DA
:10163800BB69DB4317491340CB607B6A01337B628C
:101648003B681A687B6A22FA03F3002B7FF4C4AE66
:1016580000BF2C37BD4680BC704700BF000021107A
:1016680000001110000012100000311000003210AC
:101678000000221000100240000001400008014054
:10168800000C014000100140001401400018014006
:10169800001C01400004014080B485B000AF7860B0
:1016A8000B467B807B689A687B881340002B02D0AE
:1016B8000123FB7301E00023FB73FB7B18461437FF
:1016C800BD4680BC704780B483B000AF78600B46DD
:1016D8007B8013467B707B78002B03D07A887B68ED
:1016E8001A6103E07B881A047B681A6100BF0C3713
:1016F800BD4680BC704780B483B000AF78600B46AD
:101708007B807B68DA687B881340002B03D07A885B
:101718007B685A6102E07A887B681A6100BF0C37DF
:10172800BD4680BC7047000080B582B000AF03465C
:10173800FB80084B5A69FB881340002B06D0054AEA
:10174800FB885361FB88184606F050F800BF08373D
:10175800BD4680BD0004014080B586B000AF78600A
:101768007B68002B01D101236CE27B681B6803F0C6
:101778000103002B00F08780924B5B6803F00C0399
:10178800042B0CD08F4B5B6803F00C03082B12D191
:101798008C4B5B6803F48033B3F5803F0BD1894BE6
:1017A8001B6803F40033002B6CD07B685B68002B4C
:1017B80068D1012346E27B685B68B3F5803F06D1B8
:1017C800804B1B687F4A43F4803313602EE07B68AC
:1017D8005B68002B0CD17B4B1B687A4A23F480335F
:1017E8001360784B1B68774A23F4802313601DE04D
:1017F8007B685B68B3F5A02F0CD1724B1B68714AEC
:1018080043F4802313606F4B1B686E4A43F48033A4
:1018180013600BE06B4B1B686A4A23F48033136038
:10182800684B1B68674A23F4802313607B685B68F6
:10183800002B13D0FFF78CFC386108E0FFF788FC19
:1018480002463B69D31A642B01D90323FAE15D4BA5
:101858001B6803F40033002BF0D014E0FFF778FC8A
:10186800386108E0FFF774FC02463B69D31A642B21
:1018780001D90323E6E1534B1B6803F40033002B23
:10188800F0D100E000BF7B681B6803F00203002B67
:1018980063D04C4B5B6803F00C03002B0BD0494B17
:1018A8005B6803F00C03082B1CD1464B5B6803F400
:1018B8008033002B16D1434B1B6803F00203002B27
:1018C80005D07B681B69012B01D00123BAE13D4B90
:1018D8001B6823F0F8027B685B69DB003949134316
:1018E8000B603AE07B681B69002B20D0364B012245
:1018F8001A60FFF72DFC386108E0FFF729FC024663
:101908003B69D31A022B01D903239BE12D4B1B689A
:1019180003F00203002BF0D02A4B1B6823F0F802D7
:101928007B685B69DB00274913430B6015E0264B96
:1019380000221A60FFF70CFC386108E0FFF708FC8A
:1019480002463B69D31A022B01D903237AE11D4BC6
:101958001B6803F00203002BF0D17B681B6803F0BF
:101968000803002B3AD07B689B69002B19D0174BD2
:1019780001221A60FFF7ECFB386108E0FFF7E8FB8B
:1019880002463B69D31A022B01D903235AE10D4BB6
:101998005B6A03F00203002BF0D0012000F0DAFAB2
:1019A8001CE00A4B00221A60FFF7D2FB38610FE0F7
:1019B800FFF7CEFB02463B69D31A022B08D9032353
:1019C80040E100BF00100240000042428004424251
:1019D8009E4B5B6A03F00203002BE9D17B681B680E
:1019E80003F00403002B00F0A6800023FB75974B3F
:1019F800DB6903F08053002B0DD1944BDB69934ACC
:101A080043F08053D361914BDB6903F08053BB6093
:101A1800BB680123FB758E4B1B6803F48073002B96
:101A280018D18B4B1B688A4A43F480731360FFF705
:101A38008FFB386108E0FFF78BFB02463B69D31A3E
:101A4800642B01D90323FDE0814B1B6803F48073E9
:101A5800002BF0D07B68DB68012B06D17B4B1B6A1F
:101A68007A4A43F0010313622DE07B68DB68002BA0
:101A78000CD1764B1B6A754A23F001031362734B32
:101A88001B6A724A23F0040313621CE07B68DB685C
:101A9800052B0CD16D4B1B6A6C4A43F0040313628F
:101AA8006A4B1B6A694A43F0010313620BE0674BF8
:101AB8001B6A664A23F001031362644B1B6A634A7C
:101AC80023F0040313627B68DB68002B15D0FFF753
:101AD8003FFB38610AE0FFF73BFB02463B69D31A3C
:101AE80041F28832934201D90323ABE0574B1B6A7A
:101AF80003F00203002BEED014E0FFF729FB386156
:101B08000AE0FFF725FB02463B69D31A41F2883207
:101B1800934201D9032395E04C4B1B6A03F002035F
:101B2800002BEED1FB7D012B05D1484BDB69474AE1
:101B380023F08053D3617B68DB69002B00F0818040
:101B4800424B5B6803F00C03082B61D07B68DB69B0
:101B5800022B46D13F4B00221A60FFF7F9FA386191
:101B680008E0FFF7F5FA02463B69D31A022B01D9C0
:101B7800032367E0354B1B6803F00073002BF0D19B
:101B88007B681B6AB3F5803F08D1304B5B6823F450
:101B980000327B689B682D4913434B602B4B5B6875
:101BA80023F474127B68196A7B685B6A0B432749C4
:101BB80013434B60274B01221A60FFF7C9FA3861BB
:101BC80008E0FFF7C5FA02463B69D31A022B01D990
:101BD800032337E01D4B1B6803F00073002BF0D084
:101BE8002FE01C4B00221A60FFF7B2FA386108E0B8
:101BF800FFF7AEFA02463B69D31A022B01D9032339
:101C080020E0124B1B6803F00073002BF0D118E0A2
:101C18007B68DB69012B01D1012313E00B4B5B6867
:101C2800FB60FB6803F480327B681B6A9A4206D12A
:101C3800FB6803F470127B685B6A9A4201D0012347
:101C480000E0002318461837BD4680BD001002404A
:101C5800007000406000424280B584B000AF7860F8
:101C680039607B68002B01D10123D0E06A4B1B68E7
:101C780003F007033A689A4210D9674B1B6823F0B0
:101C8800070265493B6813430B60634B1B6803F00D
:101C980007033A689A4201D00123B8E07B681B68C1
:101CA80003F00203002B20D07B681B6803F00403B9
:101CB800002B05D0594B5B68584A43F4E0635360E6
:101CC8007B681B6803F00803002B05D0534B5B6847
:101CD800524A43F460535360504B5B6823F0F00260
:101CE8007B689B684D4913434B607B681B6803F016
:101CF8000103002B40D07B685B68012B07D1474B61
:101D08001B6803F40033002B15D101237FE07B68A7
:101D18005B68022B07D1414B1B6803F00073002B53
:101D280009D1012373E03D4B1B6803F00203002B2C
:101D380001D101236BE0394B5B6823F003027B6818
:101D48005B68364913434B60FFF702FAF8600AE014
:101D5800FFF7FEF90246FB68D31A41F28832934234
:101D680001D9032353E02D4B5B6803F00C027B6819
:101D78005B689B009A42EBD1274B1B6803F0070373
:101D88003A689A4210D2244B1B6823F00702224972
:101D98003B6813430B60204B1B6803F007033A684A
:101DA8009A4201D0012332E07B681B6803F00403E8
:101DB800002B08D0194B5B6823F4E0627B68DB6872
:101DC800164913434B607B681B6803F00803002B1C
:101DD80009D0124B5B6823F460527B681B69DB00F7
:101DE8000E4913434B6000F021F801460B4B5B682A
:101DF8001B0903F00F030A4AD35C21FA03F3094ACB
:101E08001360094B1B681846FFF760F90023184652
:101E18001037BD4680BD00BF0020024000100240C0
:101E2800ECA30008D00000200000002090B48AB085
:101E380000AF2A4B3C1D0FCB84E80F00284B1B88B2
:101E48003B800023FB610023BB6100237B620023EE
:101E58007B6100233B62234B5B68FB61FB6903F0FA
:101E68000C03042B02D0082B03D02DE01E4B3B6241
:101E78002DE0FB699B0C03F00F0307F128021344C4
:101E880013F8243C7B61FB6903F48033002B13D0E7
:101E9800144B5B685B0C03F0010307F12802134441
:101EA80013F8283CBB617B690F4A02FB03F2BB694C
:101EB800B2FBF3F37B6204E07B690C4A02FB03F399
:101EC8007B627B6A3B6202E0074B3B6200BF3B6A76
:101ED80018462837BD4690BC704700BF50A300087D
:101EE80060A300080010024000127A0000093D00BB
:101EF80080B400AF024B1B681846BD4680BC7047D3
:101F0800D000002080B500AFFFF7F2FF0146054B77
:101F18005B681B0A03F00703034AD35C21FA03F347
:101F2800184680BD00100240FCA3000880B500AF31
:101F3800FFF7DEFF0146054B5B68DB0A03F007038A
:101F4800034AD35C21FA03F3184680BD001002400F
:101F5800FCA3000880B485B000AF78600A4B1B680A
:101F68000A4AA2FB03235B0A7A6802FB03F3FB60BD
:101F780000BFFB685A1EFA60002BF9D100BF143766
:101F8800BD4680BC704700BFD0000020D34D621012
:101F980080B582B000AF78607B68002B01D1012347
:101FA8003FE07B6893F83930DBB2002B06D17B68C1
:101FB800002283F83820786805F0A2FD7B68242287
:101FC80083F839207B681B68DA687B681B6822F411
:101FD8000052DA60786800F00BF97B681B681A69B0
:101FE8007B681B6822F490421A617B681B685A69F7
:101FF8007B681B6822F02A025A617B681B68DA68D2
:102008007B681B6842F40052DA607B680022DA635E
:102018007B68202283F839207B68202283F83A20C5
:10202800002318460837BD4680BD80B588B002AF8A
:10203800F860B9603B601346FB8000237B61FB6856
:1020480093F83930DBB2202B40F08380BB68002B3B
:1020580002D0FB88002B01D101237BE0FB6893F8B9
:102068003830012B01D1022374E0FB68012283F888
:102078003820FB680022DA63FB68212283F83920C4
:10208800FFF766F87861FB68FA889A84FB68FA8833
:10209800DA8442E0FB68DB8C9BB2013B9AB2FB68B6
:1020A800DA84FB689B68B3F5805F22D13B680093B4
:1020B8007B6900228021F86800F050F80346002B65
:1020C80001D0032346E0BB683B613B691B881A4685
:1020D800FB681B68C2F308025A60FB681B69002B87
:1020E80003D1BB680233BB6017E0BB680133BB6038
:1020F80013E03B6800937B6900228021F86800F0B8
:102108002DF80346002B01D0032323E0BB685A1C9B
:10211800BA601A78FB681B685A60FB68DB8C9BB254
:10212800002BB7D13B6800937B6900224021F868F7
:1021380000F014F80346002B01D003230AE0FB68E3
:10214800202283F83920FB68002283F838200023F6
:1021580000E0022318461837BD4680BD80B584B01C
:1021680000AFF860B9603B601346FB712CE0BB69B7
:10217800B3F1FF3F28D0BB69002B07D0FEF7E8FF7B
:1021880002463B68D31ABA699A421DD2FB681B689B
:10219800DA68FB681B6822F4D072DA60FB681B6897
:1021A8005A69FB681B6822F001025A61FB68202209
:1021B80083F83920FB68202283F83A20FB68002244
:1021C80083F8382003230FE0FB681B681A68BB6894
:1021D8001340BA689A420CBF01230023DBB21A46A7
:1021E800FB799A42C3D0002318461037BD4680BDFC
:1021F80080B584B000AF78607B681B681B6923F4E6
:1022080040517B68DA687B681B680A431A617B68FF
:102218009A687B681B691A437B685B691343FB6098
:102228007B681B68DB6823F4B05323F00C037A68DF
:102238001268F9680B43D3607B681B685B6923F4F9
:1022480040717B689A697B681B680A435A617B689E
:102258001B68524A93424ED1FFF768FEB860BA68CD
:1022680013469B0013449A001A447B685B689B00E2
:10227800B2FBF3F34A4AA2FB03235B091901BA68CC
:1022880013469B0013449A001A447B685B689B00C2
:10229800B2FBF3F2424BA3FB02035B09642000FB91
:1022A80003F3D31A1B0132333D4AA2FB03235B0914
:1022B80003F0F0031944BA6813469B0013449A00CC
:1022C8001A447B685B689B00B2FBF3F2344BA3FBB8
:1022D80002035B09642000FB03F3D31A1B013233AA
:1022E8002F4AA2FB03235B0903F00F027B681B68DC
:1022F8000A449A604DE0FFF705FEB860BA681346D5
:102308009B0013449A001A447B685B689B00B2FBED
:10231800F3F3234AA2FB03235B091901BA681346A6
:102328009B0013449A001A447B685B689B00B2FBCD
:10233800F3F21B4BA3FB02035B09642000FB03F3CE
:10234800D31A1B013233164AA2FB03235B0903F09D
:10235800F0031944BA6813469B0013449A001A44C0
:102368007B685B689B00B2FBF3F20D4BA3FB020397
:102378005B09642000FB03F3D31A1B013233084ABC
:10238800A2FB03235B0903F00F027B681B680A4466
:102398009A6000BF1037BD4680BD00BF00380140BD
:1023A8001F85EB5180B586B000AF05F0D3FE002342
:1023B8003B610023FB60344B1B68184605F002FEA6
:1023C8000246314B1A60314B1B687B613DE07B69EB
:1023D8001B68BB60BB681B687B6005F0C7FEBB68F9
:1023E8005B6978689847034683F00103DBB2002BEA
:1023F80003D0BB685B6878689847BB689B68786857
:102408009847BB689B69786898470346002B0FD0AC
:10241800BB68DB6878689847B86805F023FF7B6974
:102428005B687B617B699B68184605F019FD09E0CC
:10243800BB681B69144A12681146786898473B695B
:1024480001333B617B699B687B617B69002BBED153
:102458000F4B1B687B6105E0FB680133FB607B6900
:102468009B687B617B69002BF6D1074B1B6818467C
:1024780005F0EAFD0246044B1A60FA683969054816
:1024880005F028FA93E700BFDC020020E8020020EC
:10249800E002002064A3000880B588B000AF07F10F
:1024A800100300221A605A609A60DA60464B9B69F2
:1024B800454A43F020039361434B9B6903F0200393
:1024C800FB60FB68404B9B693F4A43F00403936100
:1024D8003D4B9B6903F00403BB60BB683A4B9B69A7
:1024E800394A43F010039361374B9B6903F010039B
:1024F8007B607B6800224FF480713448FFF7E3F873
:10250800002204213248FFF7DEF801233B61314BFA
:102518007B610223BB6107F1100319462B48FEF7C4
:1025280051FF20233B612B4B7B610123BB6107F1EA
:10253800100319462848FEF745FF4FF480733B61A6
:1025480001237B610023BB610223FB6107F11003B8
:1025580019461E48FEF736FF4FF400433B611D4BFA
:102568007B610123BB6107F1100319461748FEF789
:1025780029FF04233B6101237B610023BB61022304
:10258800FB6107F1100319461148FEF71BFF0022F3
:1025980001210620FEF7DFFE0620FEF7F8FE0122E5
:1025A80001211720FEF7D7FE1720FEF7F0FE0222C2
:1025B80001212820FEF7CFFE2820FEF7E8FE00BF05
:1025C8002037BD4680BD00BF001002400008014012
:1025D80000140140000011100010014080B483B0C5
:1025E80000AF0346FB800D4B4FF480725A610B4BD2
:1025F8004FF400725A610A4AFB88D360074B802265
:102608005A61064B80221A61044B4FF400721A611A
:1026180000BF0C37BD4680BC704700BF00100140AA
:10262800000C014080B483B000AF0346FB800D4B23
:102638004FF480721A610B4B4FF400725A610A4AC8
:10264800FB88D360074B80225A61064B80221A61AF
:10265800044B4FF400721A6100BF0C37BD4680BCB2
:10266800704700BF00100140000C014080B582B0E7
:1026780000AF1D4B4FF088321A601B4B4FF0883269
:102688005A60194B0022DA60184B4FF480721A61B5
:10269800164B4FF400725A61144B40225A61144B86
:1026A8009B8848F68912934202D10120FEF75AFD11
:1026B8000D4B9B68FB800D4B40221A610B4B4FF46E
:1026C80000721A61084B4FF033321A60064B4FF014
:1026D80033325A60044B4FF6FF72DA60FB881846B3
:1026E8000837BD4680BD00BF000C01400010014006
:1026F800F002002080B582B000AF03460A46FB8096
:102708001346BB80FB881846FFF768FF0C4B4FF455
:1027180080721A610A4B4FF400725A61094ABB88E9
:10272800D360074B80225A61054B80221A61044B03
:102738004FF400721A6100BF0837BD4680BD00BF64
:1027480000100140000C014080B582B000AF034684
:10275800FB80FB881846FFF741FFFFF787FF03461A
:1027680018460837BD4680BD80B500AF034B1B89AE
:102778001846FFF733FF00BF80BD00BFF0020020FE
:1027880080B582B000AF03460A46FB801346BB8083
:10279800734B9B8849F24132934205D0704B9B881A
:1027A80045F21032934264D16D4B5B891846FFF7AE
:1027B80015FF6C4B4FF480721A616A4B4FF400722C
:1027C8005A61FB881B0A9AB2674BDA60654B802214
:1027D8005A61644B80221A61624B4FF400721A618D
:1027E800604B4FF480721A615E4B4FF400725A616D
:1027F800FB885D4ADBB2D3605A4B80225A61594B41
:1028080080221A61574B4FF400721A61544B9B890E
:102818001846FFF7E3FE534B4FF480721A61514B91
:102828004FF400725A61BB881B0A9AB24E4BDA60A9
:102838004C4B80225A614B4B80221A61494B4FF412
:1028480000721A61474B4FF480721A61454B4FF47E
:1028580000725A61BB88444ADBB2D360414B802284
:102868005A61404B80221A613E4B4FF400721A6144
:1028780048E23B4B9B8846F60402934276D1384B9C
:102888009B79012B06D1364B1A88FB88D31A9BB249
:10289800013BFB80324B5B891846FFF79FFE314BAB
:1028A8004FF480721A612F4B4FF400725A61FB8803
:1028B8001B0A9AB22C4BDA602A4B80225A61294BA8
:1028C80080221A61274B4FF400721A61254B4FF48E
:1028D80080721A61234B4FF400725A61FB88224AB6
:1028E800DBB2D3601F4B80225A611E4B80221A61D3
:1028F8001C4B4FF400721A61194B9B891846FFF75D
:102908006DFE184B4FF480721A61164B4FF400722B
:102918005A61BB881B0A9AB2134BDA60114B8022AA
:102928005A61104B80221A610E4B4FF400721A61E3
:102938000C4B4FF480721A610A4B4FF400725A61C3
:10294800BB88094ADBB2D360064B80225A61054B2B
:1029580080221A61034B4FF400721A61D2E100BF62
:10296800F002002000100140000C0140994B9B88A8
:1029780041F66312934240F03381964B9B79002BCA
:1029880063D1944B1A88FB88D31A9BB2013BFB8016
:10299800904B5B891846FFF721FE8F4B4FF48072EE
:1029A8001A618D4B4FF400725A618C4B0022DA6029
:1029B800894B80225A61884B80221A61864B4FF4DA
:1029C80000721A61844B4FF480721A61824B4FF483
:1029D80000725A61814B0022DA607F4B80225A6173
:1029E8007D4B80221A617C4B4FF400721A617A4B3E
:1029F8004FF480721A61784B4FF400725A61FB8869
:102A08001B0A9AB2754BDA60734B80225A61724B7B
:102A180080221A61704B4FF400721A616E4B4FF4AA
:102A280080721A616C4B4FF400725A61FB886B4AD2
:102A3800DBB2D360684B80225A61674B80221A61EF
:102A4800654B4FF400721A6161E0624B5B8918466E
:102A5800FFF7C4FD604B4FF480721A615E4B4FF470
:102A680000725A61FB881B0A9AB25C4BDA605A4BB7
:102A780080225A61584B80221A61574B4FF40072DA
:102A88001A61554B4FF480721A61534B4FF4007220
:102A98005A61FB88514ADBB2D3604F4B80225A619E
:102AA8004D4B80221A614C4B4FF400721A614A4B0D
:102AB8004FF480721A61484B4FF400725A61454BCB
:102AC8001B88013B1A12454BDA60434B80225A613E
:102AD800414B80221A61404B4FF400721A613E4B01
:102AE8004FF480721A613C4B4FF400725A61394BB3
:102AF8001B88013B394ADBB2D360374B80225A61CD
:102B0800354B80221A61344B4FF400721A61314BF5
:102B18009B891846FFF762FD2F4B4FF480721A61AC
:102B28002D4B4FF400725A61BB881B0A9AB22B4B8B
:102B3800DA60294B80225A61274B80221A61264B82
:102B48004FF400721A61244B4FF480721A61224BC1
:102B58004FF400725A61BB88204ADBB2D3601E4B27
:102B680080225A611C4B80221A611B4B4FF4007261
:102B78001A61194B4FF480721A61174B4FF40072A7
:102B88005A61144B5B88013B1A12144BDA60124BE2
:102B980080225A61104B80221A610F4B4FF4007249
:102BA8001A610D4B4FF480721A610B4B4FF400728F
:102BB8005A61084B5B88013B084ADBB2D360064B7D
:102BC80080225A61044B80221A61034B4FF4007231
:102BD8001A6197E0F002002000100140000C01404B
:102BE8004A4B9B8845F21052934272D1474B5B89FE
:102BF8001846FFF7F3FC464B4FF480721A61444BBA
:102C08004FF400725A61FB881B0A9AB2414BDA6092
:102C18003F4B80225A613E4B80221A613C4B4FF455
:102C280000721A61394B5B8901339BB21846FFF772
:102C3800D5FC374B4FF480721A61354B4FF4007254
:102C48005A61FB88334ADBB2D360314B80225A6128
:102C58002F4B80221A612E4B4FF400721A612B4BB6
:102C68009B891846FFF7BAFC294B4FF480721A610A
:102C7800274B4FF400725A61BB881B0A9AB2254B46
:102C8800DA60234B80225A61214B80221A61204B43
:102C98004FF400721A611D4B9B8901339BB2184691
:102CA800FFF79CFC1A4B4FF480721A61184B4FF4D3
:102CB80000725A61BB88174ADBB2D360144B80227A
:102CC8005A61134B80221A61114B4FF400721A613A
:102CD80018E00E4B9B79012B06D10C4B1A88FB8808
:102CE800D31A9BB2013BFB80084B5B89FA881146DB
:102CF8001846FFF7FFFC054B9B89BA881146184612
:102D0800FFF7F8FC00BF0837BD4680BDF002002081
:102D180000100140000C014080B584B000AF0346AC
:102D2800FB710023FB810023BB81784B9B79012B2E
:102D38000BD1764B9B8846F60402934205D0734B21
:102D48009B8841F66312934209D1704B9B79002B03
:102D580034D16E4B9B8841F6631293422ED1FB7996
:102D6800072B2BD801A252F823F000BF952D00089D
:102D78009B2D0008A12D0008A72D0008AD2D0008E7
:102D8800B32D0008B92D0008BF2D00080623FB71DC
:102D980014E00723FB7111E00423FB710EE0052307
:102DA800FB710BE00123FB7108E00023FB7105E0D8
:102DB8000323FB7102E00223FB7100BF534B9B8886
:102DC80049F24132934218D0504B9B8846F6040290
:102DD800934212D04D4B9B8845F2103293420CD04F
:102DE8004A4B9B8845F21052934206D0474B9B882A
:102DF80041F66312934240F05082FB79072B36D894
:102E080001A252F823F000BF772E0008312E0008E7
:102E18003B2E0008452E00084F2E0008592E0008AA
:102E2800632E00086D2E0008FB8943F08003FB81A8
:102E38001DE0FB8943F04003FB8118E0FB8943F068
:102E4800C003FB8113E0FB8943F02003FB810EE004
:102E5800FB8943F06003FB8109E0FB8943F0A00391
:102E6800FB8104E0FB8943F0E003FB8100BF274BB3
:102E78009B8845F21052934203D14FF45853BB81BB
:102E880001E03623BB81214B9B8845F210329342E7
:102E98000FD01E4B9B8845F21052934209D01B4B12
:102EA8009B8841F66312934203D0FB8943F00803E1
:102EB800FB81164B9B8846F60402934203D1FB899B
:102EC80043F00203FB81FA89BB8911461846FFF7D4
:102ED80011FC0E4B9B8841F66312934228D0FB8964
:102EE80003F02003002B13D0084B1A88074B5B888C
:102EF8009A421DD2054B1B887B81044B5A88034B91
:102F08001A80024A7B89538012E000BFF002002039
:102F18007F4B1A887E4B5B889A4209D97C4B1B8869
:102F28007B817B4B5A887A4B1A80794A7B895380FC
:102F3800774B9B8845F21052934240F0EF80744BD8
:102F48005B891846FFF74AFB724B4FF480721A618F
:102F5800704B4FF400725A616F4B0022DA606D4B70
:102F680080225A616B4B80221A616A4B4FF40072BF
:102F78001A61674B5B8901339BB21846FFF72EFB3A
:102F8800644B4FF480721A61624B4FF400725A61BD
:102F9800614B0022DA605F4B80225A615D4B8022D0
:102FA8001A615C4B4FF400721A61594B5B8902330A
:102FB8009BB21846FFF712FB564B4FF480721A610A
:102FC800544B4FF400725A61514B1B88013B1A1243
:102FD800514BDA604F4B80225A614E4B80221A6166
:102FE8004C4B4FF400721A61494B5B8903339BB217
:102FF8001846FFF7F3FA474B4FF480721A61454BB6
:103008004FF400725A61424B1B88013B424ADBB2C3
:10301800D360404B80225A613E4B80221A613D4B5F
:103028004FF400721A613A4B9B891846FFF7D6FA9B
:10303800384B4FF480721A61364B4FF400725A6164
:10304800354B0022DA60334B80225A61314B8022A3
:103058001A61304B4FF400721A612D4B9B89013372
:103068009BB21846FFF7BAFA2A4B4FF480721A61DE
:10307800284B4FF400725A61274B0022DA60254B27
:1030880080225A61234B80221A61224B4FF400722E
:103098001A611F4B9B8902339BB21846FFF79EFAB1
:1030A8001C4B4FF480721A611A4B4FF400725A612C
:1030B800174B5B88013B1A12174BDA60154B8022BD
:1030C8005A61144B80221A61124B4FF400721A6134
:1030D8000F4B9B8903339BB21846FFF77FFA0D4BC2
:1030E8004FF480721A610B4B4FF400725A61084B0F
:1030F8005B88013B084ADBB2D360064B80225A61E9
:10310800044B80221A61034B4FF400721A610AE1E2
:10311800F002002000100140000C0140844B5B8944
:103128001846FFF75BFA834B4FF480721A61814BA4
:103138004FF400725A61804B0022DA607D4B802286
:103148005A617C4B80221A617A4B4FF400721A61E3
:10315800784B4FF480721A61764B4FF400725A61C3
:10316800754B0022DA60734B80225A61714B8022C2
:103178001A61704B4FF400721A616E4B4FF48072F3
:103188001A616C4B4FF400725A61694B1B88013B02
:103198001A12694BDA60674B80225A61654B8022AC
:1031A8001A61644B4FF400721A61624B4FF48072DB
:1031B8001A61604B4FF400725A615D4B1B88013BEA
:1031C8005D4ADBB2D3605B4B80225A61594B802247
:1031D8001A61584B4FF400721A61554B9B89184677
:1031E800FFF7FCF9534B4FF480721A61514B4FF4BF
:1031F80000725A61504B0022DA604E4B80225A61AD
:103208004C4B80221A614B4B4FF400721A61494BA8
:103218004FF480721A61474B4FF400725A61464B63
:103228000022DA60434B80225A61424B80221A61A5
:10323800404B4FF400721A613E4B4FF480721A6192
:103248003C4B4FF400725A61394B5B88013B1A12B0
:10325800394BDA60374B80225A61364B80221A612B
:10326800344B4FF400721A61324B4FF480721A617A
:10327800304B4FF400725A612D4B5B88013B2E4A4C
:10328800DBB2D3602B4B80225A612A4B80221A6111
:10329800284B4FF400721A6145E0FB79072B36D8AA
:1032A80001A252F823F000BFD1320008DB32000837
:1032B800E532000817330008EF320008F932000839
:1032C800033300080D330008FB8943F03003FB810A
:1032D8001DE0FB8943F01003FB8118E0FB8943F0F4
:1032E8002003FB8113E0FB8943F03803FB810EE0E8
:1032F800FB8943F02803FB8109E0FB8943F01803AD
:10330800FB8104E0FB8943F00803FB8100BF032332
:10331800BB81FB8943F48053FB81FA89BB89114641
:103328001846FFF7E7F900BF1037BD4680BD00BF5C
:10333800F002002000100140000C014000000000D5
:1033480090B583B000AF0346FB71BE20FFF746F986
:103358004B4B4FF480721A61494B4FF400725A611B
:10336800484B0522DA60464B80225A61444B802242
:103378001A61434B4FF400721A61414B4FF480724B
:103388001A613F4B4FF400725A61FB791846FDF7FA
:10339800A1F839A3D3E90023FDF706F903460C4643
:1033A8001A462346374C10461946FDF7D5FB034607
:1033B800E360334B80225A61314B80221A61304BD3
:1033C8004FF400721A612E4B4FF480721A612C4B25
:1033D8004FF400725A612B4B0122DA60284B80228D
:1033E8005A61274B80221A61254B4FF400721A61EB
:1033F800234B4FF480721A61214B4FF400725A61CB
:10340800204BFF22DA601E4B80225A611C4B80221F
:103418001A611B4B4FF400721A61194B4FF48072FA
:103428001A61174B4FF400725A61164B0022DA608A
:10343800134B80225A61124B80221A61104B4FF4B1
:1034480000721A610E4B4FF480721A610C4B4FF4E4
:1034580000725A610B4B0022DA60094B80225A61D4
:10346800074B80221A61064B4FF400721A6100BFA5
:103478000C37BD4690BD00BF66666666666604404A
:1034880000100140000C014080B582B000AF034637
:10349800FB71FB79002B77D1804B00229A717F4B0F
:1034A800F0221A807D4B4FF4A0725A807B4B9B8888
:1034B80049F2413293420BD0784B9B8846F604027E
:1034C800934205D0754B9B8845F2103293421ED12A
:1034D800724B2C221A81714B2A225A816F4B2B2254
:1034E8009A816E4B9B8846F60402934206D06B4B3A
:1034F8009B8845F21032934240F0C780674B4FF4E7
:10350800A0721A80654B4FF4F0725A80BDE0634B8D
:103518009B8845F21052934214D1604B4FF43052BD
:103528001A815E4B4FF428525A815C4B4FF42C524F
:103538009A815A4B4FF4F0721A80584B4FF44872E4
:103548005A80A3E0554B9B8841F66312934211D1F0
:10355800524B2C221A81514B2B225A814F4B2A2233
:103568009A814E4B4FF4F0721A804C4B4FF44872CC
:103578005A808BE0494B22221A81484B20225A81DB
:10358800464B21229A8181E0444B01229A71434B98
:103598004FF4A0721A80414BF0225A803F4B9B880F
:1035A80049F24132934205D03C4B9B8845F2103298
:1035B800934209D1394B2C221A81384B2A225A813D
:1035C800364B2B229A814BE0344B9B8846F60402FB
:1035D800934209D1314B2C221A81304B2B225A812C
:1035E8002E4B2A229A813BE02C4B9B8845F21052A5
:1035F800934214D1294B4FF430521A81274B4FF480
:1036080028525A81254B4FF42C529A81234B4FF460
:1036180048721A80214B4FF4F0725A8020E01F4BF9
:103628009B8841F66312934211D11C4B2C221A81BC
:103638001A4B2A225A81194B2B229A81174B4FF485
:1036480048721A80154B4FF4F0725A8008E0134BF9
:1036580022221A81114B21225A81104B20229A8151
:103668000E4B9B8846F60402934205D00B4B9B8871
:1036780045F21032934209D1084B4FF4F0721A8088
:10368800064B4FF4A0725A8000E000BF0020FFF7FD
:1036980043FB00BF0837BD4680BD00BFF0020020D5
:1036A80080B586B000AF904B9B698F4A43F0080302
:1036B80093618D4B9B6903F008037B607B688A4BA1
:1036C8009B69894A43F010039361874B9B6903F018
:1036D80010033B603B684FF4F863BB600123FB6059
:1036E80001233B6103237B6107F1080319467F48E7
:1036F800FDF768FE4FF6FF73BB6007F10803194634
:103708007B48FDF75FFE3220FDF72CFD01210020EC
:10371800FEF7F0FF3220FDF725FD0020FFF714F833
:1037280003461A46734B9A80724B9B88FE2B0BD923
:10373800704B9B884FF6FF72934205D06D4B9B8868
:10374800B3F5134F40F0C880D320FEF747FFFEF7CC
:103758008DFFFEF78BFFFEF789FF03461A46654B80
:103768009A80644B9B881B029AB2624B9A80FEF740
:103778007DFF03461A465F4B9B8813439AB25D4B05
:103788009A805C4B9B8849F24132934200F0A480B6
:10379800BF20FEF723FFFEF769FFFEF767FFFEF77E
:1037A80065FFFEF763FF03461A46524B9A80514B5A
:1037B8009B881B029AB24F4B9A80FEF757FF03462D
:1037C8001A464C4B9B8813439AB24A4B9A80494BF2
:1037D8009B8846F6040293427ED0D420FEF7FEFE74
:1037E800FEF744FFFEF742FFFEF740FF03461A4686
:1037F800404B9A803F4B9B881B029AB23D4B9A8064
:10380800FEF734FF03461A463A4B9B8813439AB295
:10381800384B9A80374B9B8845F2103293425BD0E5
:103828004FF45A40FEF7DAFEFEF720FF4FF45B40F4
:10383800FEF7D4FEFEF71AFF03461A462D4B9A8070
:103848002C4B9B881B029AB22A4B9A804FF45C40FF
:10385800FEF7C4FEFEF70AFF03461A46254B9B886F
:1038680013439AB2234B9A80224B9B88B3F5004F9F
:1038780003D1204B45F210529A801E4B9B8845F28B
:103888001052934228D0A120FEF7A8FEFEF7EEFEC4
:1038980003461A46174B9A80FEF7E8FE03461A4677
:1038A800144B9A80134B9B881B029AB2114B9A8037
:1038B800FEF7DCFE03461A460E4B9B8813439AB26A
:1038C8000C4B9A800B4B9B8845F26172934203D153
:1038D800084B41F663129A80064B9B8849F24132A5
:1038E800934240F01F8107E00010024000100140A1
:1038F800000C0140F0020020CF20FEF76FFE0020F0
:10390800FEF790FEC120FEF78DFE3020FEF78AFEFE
:10391800ED20FEF763FE6420FEF784FE0320FEF729
:1039280081FE1220FEF77EFE8120FEF77BFEE82056
:10393800FEF754FE8520FEF775FE1020FEF772FE96
:103948007A20FEF76FFECB20FEF748FE3920FEF7FF
:1039580069FE2C20FEF766FE0020FEF763FE342089
:10396800FEF760FE0220FEF75DFEF720FEF736FE4A
:103978002020FEF757FEEA20FEF730FE0020FEF773
:1039880051FE0020FEF74EFEC020FEF727FE1B204A
:10399800FEF748FEC120FEF721FE0120FEF742FE99
:1039A800C520FEF71BFE3020FEF73CFE3020FEF758
:1039B80039FEC720FEF712FEB720FEF733FE362089
:1039C800FEF70CFE4820FEF72DFE3A20FEF706FE15
:1039D8005520FEF727FEB120FEF700FE0020FEF777
:1039E80021FE1A20FEF71EFEB620FEF7F7FD0A207C
:1039F800FEF718FEA220FEF715FEF220FEF7EEFDF8
:103A08000020FEF70FFE2620FEF7E8FD0120FEF756
:103A180009FEE020FEF7E2FD0F20FEF703FE2A2054
:103A2800FEF700FE2820FEF7FDFD0820FEF7FAFD50
:103A38000E20FEF7F7FD0820FEF7F4FD5420FEF7F0
:103A4800F1FDA920FEF7EEFD4320FEF7EBFD0A206D
:103A5800FEF7E8FD0F20FEF7E5FD0020FEF7E2FD8A
:103A68000020FEF7DFFD0020FEF7DCFD0020FEF75A
:103A7800D9FDE120FEF7B2FD0020FEF7D3FD1520A9
:103A8800FEF7D0FD1720FEF7CDFD0720FEF7CAFD93
:103A98001120FEF7C7FD0620FEF7C4FD2B20FEF718
:103AA800C1FD5620FEF7BEFD3C20FEF7BBFD0520FC
:103AB800FEF7B8FD1020FEF7B5FD0F20FEF7B2FDAA
:103AC8003F20FEF7AFFD3F20FEF7ACFD0F20FEF7CD
:103AD800A9FD2B20FEF782FD0020FEF7A3FD0020A4
:103AE800FEF7A0FD0120FEF79DFD3F20FEF79AFDA1
:103AF8002A20FEF773FD0020FEF794FD0020FEF754
:103B080091FD0020FEF78EFDEF20FEF78BFD1120C2
:103B1800FEF764FD7820FDF725FB2920FEF75EFD02
:103B280003F0D8BC584B9B8846F60402934240F0F9
:103B3800AD801120FEF752FD1420FDF713FBD020B5
:103B4800FEF74CFD0720FEF76DFD4220FEF76AFDEB
:103B58001D20FEF767FDD120FEF740FD0020FEF78F
:103B680061FD1A20FEF75EFD0920FEF75BFDD220FD
:103B7800FEF734FD0120FEF755FD2220FEF752FD29
:103B8800C020FEF72BFD1020FEF74CFD3B20FEF772
:103B980049FD0020FEF746FD0220FEF743FD1120F7
:103BA800FEF740FDC520FEF719FD0320FEF73AFD9C
:103BB800C820FEF713FD0020FEF734FD2520FEF790
:103BC80031FD2120FEF72EFD0520FEF72BFD0020FC
:103BD800FEF728FD0A20FEF725FD6520FEF722FDE9
:103BE8002520FEF71FFD7720FEF71CFD5020FEF76D
:103BF80019FD0F20FEF716FD0020FEF713FDF82033
:103C0800FEF7ECFC0120FEF70DFDFE20FEF7E6FCBA
:103C18000020FEF707FD0220FEF704FD2020FEF736
:103C2800DDFC3620FEF7DAFC0820FEF7FBFC3A2024
:103C3800FEF7D4FC5520FEF7F5FC2B20FEF7CEFC52
:103C48000020FEF7EFFC0020FEF7ECFC0120FEF759
:103C5800E9FC3F20FEF7E6FC2A20FEF7BFFC002027
:103C6800FEF7E0FC0020FEF7DDFC0120FEF7DAFCA1
:103C7800DF20FEF7D7FC7820FDF774FA2920FEF73D
:103C8800ADFC03F027BC00BFF0020020034B9B886B
:103C980045F21032934240F07C8701E0F0020020A8
:103CA800ED20FEF79BFC0120FEF7BCFCFE20FEF792
:103CB800B9FCEE20FEF792FCDE20FEF7B3FC2120D3
:103CC800FEF7B0FCF120FEF789FC0120FEF7AAFC04
:103CD800DF20FEF783FC1020FEF7A4FCC420FEF7CB
:103CE8007DFC8F20FEF79EFCC620FEF777FC0020A7
:103CF800FEF798FCE220FEF795FCE220FEF792FC26
:103D0800E220FEF78FFCBF20FEF768FCAA20FEF732
:103D180089FCB020FEF762FC0D20FEF783FC002032
:103D2800FEF780FC0D20FEF77DFC0020FEF77AFCF4
:103D38001120FEF777FC0020FEF774FC1920FEF72F
:103D480071FC0020FEF76EFC2120FEF76BFC0020C2
:103D5800FEF768FC2D20FEF765FC0020FEF762FCEC
:103D68003D20FEF75FFC0020FEF75CFC5D20FEF7BF
:103D780059FC0020FEF756FC5D20FEF753FC00209E
:103D8800FEF750FCB120FEF729FC8020FEF74AFC24
:103D98000020FEF747FC8B20FEF744FC0020FEF7CE
:103DA80041FC9620FEF73EFC0020FEF73BFCB220CB
:103DB800FEF714FC0020FEF735FC0020FEF732FC6D
:103DC8000220FEF72FFC0020FEF72CFC0320FEF754
:103DD80029FC0020FEF726FCB320FEF7FFFB00209D
:103DE800FEF720FC0020FEF71DFC0020FEF71AFC61
:103DF8000020FEF717FC0020FEF714FC0020FEF759
:103E080011FC0020FEF70EFC0020FEF70BFC002042
:103E1800FEF708FC0020FEF705FC0020FEF702FC78
:103E28000020FEF7FFFB0020FEF7FCFB0020FEF75A
:103E3800F9FB0020FEF7F6FB0020FEF7F3FB00205D
:103E4800FEF7F0FB0020FEF7EDFB0020FEF7EAFB93
:103E58000020FEF7E7FB0020FEF7E4FB0020FEF75A
:103E6800E1FB0020FEF7DEFB0020FEF7DBFBB420C1
:103E7800FEF7B4FB8B20FEF7D5FB0020FEF7D2FB44
:103E88009620FEF7CFFB0020FEF7CCFBA120FEF723
:103E9800C9FB0020FEF7C6FBB520FEF79FFB0220FA
:103EA800FEF7C0FB0020FEF7BDFB0320FEF7BAFBC0
:103EB8000020FEF7B7FB0420FEF7B4FB0020FEF756
:103EC800B1FBB620FEF78AFB0020FEF7ABFB002013
:103ED800FEF7A8FBB720FEF781FB0020FEF7A2FB48
:103EE8000020FEF79FFB3F20FEF79CFB0020FEF71B
:103EF80099FB5E20FEF796FB0020FEF793FB6420FB
:103F0800FEF790FB0020FEF78DFB8C20FEF78AFB66
:103F18000020FEF787FBAC20FEF784FB0020FEF7AD
:103F280081FBDC20FEF77EFB0020FEF77BFB702088
:103F3800FEF778FB0020FEF775FB9020FEF772FB7A
:103F48000020FEF76FFBEB20FEF76CFB0020FEF76E
:103F580069FBDC20FEF766FB0020FEF763FBB82058
:103F6800FEF73CFB0020FEF75DFB0020FEF75AFB46
:103F78000020FEF757FB0020FEF754FB0020FEF759
:103F880051FB0020FEF74EFB0020FEF74BFB002004
:103F9800FEF748FBBA20FEF721FB2420FEF742FB80
:103FA8000020FEF73FFB0020FEF73CFB0020FEF759
:103FB80039FBC120FEF712FB2020FEF733FB00205F
:103FC800FEF730FB5420FEF72DFB0020FEF72AFBFE
:103FD800FF20FEF727FB0020FEF724FBC220FEF798
:103FE800FDFA0A20FEF71EFB0020FEF71BFB04204B
:103FF800FEF718FB0020FEF715FBC320FEF7EEFACC
:104008003C20FEF70FFB0020FEF70CFB3A20FEF7E2
:1040180009FB0020FEF706FB3920FEF703FB002012
:10402800FEF700FB3720FEF7FDFA0020FEF7FAFA4C
:104038003C20FEF7F7FA0020FEF7F4FA3620FEF7E8
:10404800F1FA0020FEF7EEFA3220FEF7EBFA002034
:10405800FEF7E8FA2F20FEF7E5FA0020FEF7E2FA6D
:104068002C20FEF7DFFA0020FEF7DCFA2920FEF705
:10407800D9FA0020FEF7D6FA2620FEF7D3FA002058
:10408800FEF7D0FA2420FEF7CDFA0020FEF7CAFA90
:104098002420FEF7C7FA0020FEF7C4FA2320FEF713
:1040A800C1FA0020FEF7BEFA3C20FEF7BBFA00205A
:1040B800FEF7B8FA3620FEF7B5FA0020FEF7B2FA96
:1040C8003220FEF7AFFA0020FEF7ACFA2F20FEF7F9
:1040D800A9FA0020FEF7A6FA2C20FEF7A3FA002082
:1040E800FEF7A0FA2920FEF79DFA0020FEF79AFABB
:1040F8002620FEF797FA0020FEF794FA2420FEF710
:1041080091FA0020FEF78EFA2420FEF78BFA0020A1
:10411800FEF788FA2320FEF785FA0020FEF782FAD8
:10412800C420FEF75BFA6220FEF77CFA0020FEF757
:1041380079FA0520FEF776FA0020FEF773FA842054
:10414800FEF770FA0020FEF76DFAF020FEF76AFA23
:104158000020FEF767FA1820FEF764FA0020FEF741
:1041680061FAA420FEF75EFA0020FEF75BFA182039
:10417800FEF758FA0020FEF755FA5020FEF752FADB
:104188000020FEF74FFA0C20FEF74CFA0020FEF74D
:1041980049FA1720FEF746FA0020FEF743FA952061
:1041A800FEF740FA0020FEF73DFAF320FEF73AFA50
:1041B8000020FEF737FAE620FEF734FA0020FEF773
:1041C80031FAC520FEF70AFA3220FEF72BFA002052
:1041D800FEF728FA4420FEF725FA0020FEF722FA17
:1041E8006520FEF71FFA0020FEF71CFA7620FEF77E
:1041F80019FA0020FEF716FA8820FEF713FA0020B5
:10420800FEF710FAC620FEF7E9F92020FEF70AFAB1
:104218000020FEF707FA1720FEF704FA0020FEF741
:1042280001FA0120FEF7FEF90020FEF7FBF9C7208E
:10423800FEF7D4F90020FEF7F5F90020FEF7F2F9B1
:104248000020FEF7EFF90020FEF7ECF9C820FEF792
:10425800C5F90020FEF7E6F90020FEF7E3F9002093
:10426800FEF7E0F90020FEF7DDF9C920FEF7B6F900
:104278000020FEF7D7F90020FEF7D4F90020FEF75A
:10428800D1F90020FEF7CEF90020FEF7CBF9002087
:10429800FEF7C8F90020FEF7C5F90020FEF7C2F9BD
:1042A8000020FEF7BFF90020FEF7BCF90020FEF75A
:1042B800B9F90020FEF7B6F90020FEF7B3F900209F
:1042C800FEF7B0F90020FEF7ADF90020FEF7AAF9D5
:1042D800E020FEF783F91620FEF7A4F90020FEF788
:1042E800A1F91C20FEF79EF90020FEF79BF921207A
:1042F800FEF798F90020FEF795F93620FEF792F9B7
:104308000020FEF78FF94620FEF78CF90020FEF713
:1043180089F95220FEF786F90020FEF783F9642018
:10432800FEF780F90020FEF77DF97A20FEF77AF98A
:104338000020FEF777F98B20FEF774F90020FEF7CE
:1043480071F99920FEF76EF90020FEF76BF9A820A5
:10435800FEF768F90020FEF765F9B920FEF762F963
:104368000020FEF75FF9C420FEF75CF90020FEF795
:1043780059F9CA20FEF756F90020FEF753F9D22062
:10438800FEF750F90020FEF74DF9D920FEF74AF95B
:104398000020FEF747F9E020FEF744F90020FEF779
:1043A80041F9F320FEF73EF90020FEF73BF9E12042
:1043B800FEF714F91620FEF735F90020FEF732F95A
:1043C8001C20FEF72FF90020FEF72CF92220FEF71B
:1043D80029F90020FEF726F93620FEF723F90020F8
:1043E800FEF720F94520FEF71DF90020FEF71AF91F
:1043F8005220FEF717F90020FEF714F96420FEF7A3
:1044080011F90020FEF70EF97A20FEF70BF90020CB
:10441800FEF708F98B20FEF705F90020FEF702F9F0
:104428009920FEF7FFF80020FEF7FCF8A820FEF719
:10443800F9F80020FEF7F6F8B920FEF7F3F80020A7
:10444800FEF7F0F8C420FEF7EDF80020FEF7EAF8D2
:10445800CA20FEF7E7F80020FEF7E4F8D220FEF7BE
:10446800E1F80020FEF7DEF8D820FEF7DBF80020A0
:10447800FEF7D8F8E020FEF7D5F80020FEF7D2F8CE
:10448800F320FEF7CFF80020FEF7CCF8E220FEF785
:10449800A5F80520FEF7C6F80020FEF7C3F80B20A4
:1044A800FEF7C0F80020FEF7BDF81B20FEF7BAF8AB
:1044B8000020FEF7B7F83420FEF7B4F80020FEF726
:1044C800B1F84420FEF7AEF80020FEF7ABF84F2015
:1044D800FEF7A8F80020FEF7A5F86120FEF7A2F87D
:1044E8000020FEF79FF87920FEF79CF80020FEF7E1
:1044F80099F88820FEF796F80020FEF793F89720A1
:10450800FEF790F80020FEF78DF8A620FEF78AF84F
:104518000020FEF787F8B720FEF784F80020FEF7A2
:1045280081F8C220FEF77EF80020FEF77BF8C7204E
:10453800FEF778F80020FEF775F8D120FEF772F83C
:104548000020FEF76FF8D620FEF76CF80020FEF783
:1045580069F8DD20FEF766F80020FEF763F8F3201F
:10456800FEF760F80020FEF75DF8E320FEF736F866
:104578000520FEF757F80020FEF754F80A20FEF74A
:1045880051F80020FEF74EF81C20FEF74BF80020EB
:10459800FEF748F83320FEF745F80020FEF742F80A
:1045A8004420FEF73FF80020FEF73CF85020FEF7C5
:1045B80039F80020FEF736F86220FEF733F80020BD
:1045C800FEF730F87820FEF72DF80020FEF72AF8DD
:1045D8008820FEF727F80020FEF724F89720FEF73A
:1045E80021F80020FEF71EF8A620FEF71BF8002091
:1045F800FEF718F8B720FEF715F80020FEF712F8B6
:10460800C220FEF70FF80020FEF70CF8C720FEF7CF
:1046180009F80020FEF706F8D120FEF703F800207D
:10462800FEF700F8D520FDF7FDFF0020FDF7FAFFA3
:10463800DD20FDF7F7FF0020FDF7F4FFF320FDF77D
:10464800F1FF0020FDF7EEFFE420FDF7C7FF012092
:10465800FDF7E8FF0020FDF7E5FF0120FDF7E2FF89
:104668000020FDF7DFFF0220FDF7DCFF0020FDF74B
:10467800D9FF2A20FDF7D6FF0020FDF7D3FF3C2005
:10468800FDF7D0FF0020FDF7CDFF4B20FDF7CAFF57
:104698000020FDF7C7FF5D20FDF7C4FF0020FDF7F0
:1046A800C1FF7420FDF7BEFF0020FDF7BBFF84208B
:1046B800FDF7B8FF0020FDF7B5FF9320FDF7B2FF27
:1046C8000020FDF7AFFFA220FDF7ACFF0020FDF7AB
:1046D800A9FFB320FDF7A6FF0020FDF7A3FFBE202A
:1046E800FDF7A0FF0020FDF79DFFC420FDF79AFF0E
:1046F8000020FDF797FFCD20FDF794FF0020FDF780
:1047080091FFD320FDF78EFF0020FDF78BFFDD2002
:10471800FDF788FF0020FDF785FFF320FDF782FFF6
:104728000020FDF77FFFE520FDF758FF0020FDF78B
:1047380079FF0020FDF776FF0020FDF773FF0020CA
:10474800FDF770FF0220FDF76DFF0020FDF76AFFFF
:104758002920FDF767FF0020FDF764FF3C20FDF7E7
:1047680061FF0020FDF75EFF4B20FDF75BFF002097
:10477800FDF758FF5D20FDF755FF0020FDF752FFBC
:104788007420FDF74FFF0020FDF74CFF8420FDF754
:1047980049FF0020FDF746FF9320FDF743FF002067
:1047A800FDF740FFA220FDF73DFF0020FDF73AFF8F
:1047B800B320FDF737FF0020FDF734FFBE20FDF7DB
:1047C80031FF0020FDF72EFFC420FDF72BFF00204E
:1047D800FDF728FFCD20FDF725FF0020FDF722FF7C
:1047E800D320FDF71FFF0020FDF71CFFDC20FDF79D
:1047F80019FF0020FDF716FFF320FDF713FF002037
:10480800FDF710FFE620FDF7E9FE1120FDF70AFF8E
:104818000020FDF707FF3420FDF704FF0020FDF717
:1048280001FF5620FDF7FEFE0020FDF7FBFE762077
:10483800FDF7F8FE0020FDF7F5FE7720FDF7F2FE04
:104848000020FDF7EFFE6620FDF7ECFE0020FDF7E7
:10485800E9FE8820FDF7E6FE0020FDF7E3FE99203B
:10486800FDF7E0FE0020FDF7DDFEBB20FDF7DAFED8
:104878000020FDF7D7FE9920FDF7D4FE0020FDF7B4
:10488800D1FE6620FDF7CEFE0020FDF7CBFE5520B9
:10489800FDF7C8FE0020FDF7C5FE5520FDF7C2FE56
:1048A8000020FDF7BFFE4520FDF7BCFE0020FDF708
:1048B800B9FE4320FDF7B6FE0020FDF7B3FE442005
:1048C800FDF7B0FE0020FDF7ADFEE720FDF786FE00
:1048D8003220FDF7A7FE0020FDF7A4FE5520FDF7C6
:1048E800A1FE0020FDF79EFE7620FDF79BFE00202E
:1048F800FDF798FE6620FDF795FE0020FDF792FE75
:104908006720FDF78FFE0020FDF78CFE6720FDF77E
:1049180089FE0020FDF786FE8720FDF783FE002034
:10492800FDF780FE9920FDF77DFE0020FDF77AFE59
:10493800BB20FDF777FE0020FDF774FE9920FDF7F8
:1049480071FE0020FDF76EFE7720FDF76BFE00205C
:10495800FDF768FE4420FDF765FE0020FDF762FEC6
:104968005620FDF75FFE0020FDF75CFE2320FDF7D3
:1049780059FE0020FDF756FE3320FDF753FE0020B8
:10498800FDF750FE4520FDF74DFE0020FDF74AFEDD
:10499800E820FDF723FE0020FDF744FE0020FDF788
:1049A80041FE9920FDF73EFE0020FDF73BFE8720E3
:1049B800FDF738FE0020FDF735FE8820FDF732FEB2
:1049C8000020FDF72FFE7720FDF72CFE0020FDF7D5
:1049D80029FE6620FDF726FE0020FDF723FE88202D
:1049E800FDF720FE0020FDF71DFEAA20FDF71AFEA8
:1049F8000020FDF717FEBB20FDF714FE0020FDF791
:104A080011FE9920FDF70EFE0020FDF70BFE662033
:104A1800FDF708FE0020FDF705FE5520FDF702FE14
:104A28000020FDF7FFFD5520FDF7FCFD0020FDF7F8
:104A3800F9FD4420FDF7F6FD0020FDF7F3FD4420C5
:104A4800FDF7F0FD0020FDF7EDFD5520FDF7EAFD2F
:104A58000020FDF7E7FDE920FDF7C0FDAA20FDF7DE
:104A6800E1FD0020FDF7DEFD0020FDF7DBFD002065
:104A7800FDF7D8FD0020FDF7B1FDAA20FDF7D2FD16
:104A8800CF20FDF7ABFD0020FDF7CCFD0020FDF7A2
:104A9800C9FD0020FDF7C6FD0020FDF7C3FD00207D
:104AA800FDF7C0FD0020FDF7BDFD0020FDF7BAFDB4
:104AB8000020FDF7B7FD0020FDF7B4FD0020FDF74D
:104AC800B1FD0020FDF7AEFD0020FDF7ABFD002095
:104AD800FDF7A8FD0020FDF7A5FD0020FDF7A2FDCC
:104AE8000020FDF79FFD0020FDF79CFDF020FDF75D
:104AF80075FD0020FDF796FD5020FDF793FD002081
:104B0800FDF790FD0020FDF78DFD0020FDF78AFDE3
:104B1800F320FDF763FD0020FDF784FDF920FDF784
:104B28005DFD0620FDF77EFD1020FDF77BFD2920A9
:104B3800FDF778FD0020FDF775FD3A20FDF74EFDE5
:104B48005520FDF76FFD1120FDF748FD6420FCF7A7
:104B580009FB2920FDF742FD3520FDF73FFD002028
:104B6800FDF760FD5120FDF739FDFF20FDF75AFDE7
:104B78005320FDF733FD2C20FDF754FD5520FDF79C
:104B88002DFD8220FDF74EFD2C20FDF727FD02F0BC
:104B9800A1BC044B9B8845F21052934240F0828797
:104BA80002E000BFF002002055214FF47040FDF7ED
:104BB800A1FDAA214FF20100FDF79CFD52214FF201
:104BC8000200FDF797FD08214FF20300FDF792FD63
:104BD80001214FF20400FDF78DFD0D214FF4304007
:104BE800FDF788FD0D214BF20100FDF783FD0D2136
:104BF8004BF20200FDF77EFD34214FF43640FDF7FD
:104C080079FD34214BF20160FDF774FD34214BF23C
:104C18000260FDF76FFD0D214FF43140FDF76AFD8D
:104C28000D214BF20110FDF765FD0D214BF202102D
:104C3800FDF760FD34214FF43740FDF75BFD34216B
:104C48004BF20170FDF756FD34214BF20270FDF76F
:104C580051FD00214FF43240FDF74CFD00214BF28D
:104C68000120FDF747FD00214BF20220FDF742FD30
:104C780024214FF43840FDF73DFD24214BF6010077
:104C8800FDF738FD24214BF60200FDF733FD012125
:104C98004FF43F40FDF72EFD0F214FF43340FDF751
:104CA80029FD0F214BF20130FDF724FD0F214BF2B6
:104CB8000230FDF71FFD34214FF43940FDF71AFD8E
:104CC80034214BF60110FDF715FD34214BF6021087
:104CD800FDF710FD08214FF43540FDF70BFD0821C5
:104CE8004BF20150FDF706FD08214BF20250FDF78B
:104CF80001FD03214FF44240FDF7FCFC24214FF451
:104D08003A40FDF7F7FC24214BF60120FDF7F2FCB1
:104D180024214BF60220FDF7EDFC00214FF43C4026
:104D2800FDF7E8FC78214BF60140FDF7E3FC002194
:104D38004BF60240FDF7DEFC00214FF43D40FDF745
:104D4800D9FC78214BF60150FDF7D4FC00214BF635
:104D58000250FDF7CFFC00214FF43E40FDF7CAFC9E
:104D680064214BF60160FDF7C5FC00214FF451406A
:104D7800FDF7C0FC33214DF20110FDF7BBFC00210B
:104D88004DF20210FDF7B6FC34214DF20310FDF789
:104D9800B1FC00214DF20410FDF7ACFC3A214DF2B4
:104DA8000510FDF7A7FC00214DF20610FDF7A2FC47
:104DB8004A214DF20710FDF79DFC00214DF2081025
:104DC800FDF798FC5C214DF20910FDF793FC0021DA
:104DD8004DF20A10FDF78EFC81214DF20B10FDF704
:104DE80089FC00214DF20C10FDF784FCA6214DF240
:104DF8000D10FDF77FFC00214DF20E10FDF77AFC37
:104E0800E5214DF20F10FDF775FC01214DF2101050
:104E1800FDF770FC13214DF21110FDF76BFC012119
:104E28004DF21210FDF766FC54214DF21310FDF7F8
:104E380061FC01214DF21410FDF75CFC82214DF25A
:104E48001510FDF757FC01214DF21610FDF752FC25
:104E5800CA214DF21710FDF74DFC02214DF2181032
:104E6800FDF748FC00214DF21910FDF743FC022123
:104E78004DF21A10FDF73EFC01214DF21B10FDF713
:104E880039FC02214DF21C10FDF734FC34214DF29F
:104E98001D10FDF72FFC02214DF21E10FDF72AFC14
:104EA80067214DF21F10FDF725FC02214DF220105D
:104EB800FDF720FC84214DF22110FDF71BFC022197
:104EC8004DF22210FDF716FCA4214DF22310FDF738
:104ED80011FC02214DF22410FDF70CFCB7214DF214
:104EE8002510FDF707FC02214DF22610FDF702FC04
:104EF800CF214DF22710FDF7FDFB02214DF22810BE
:104F0800FDF7F8FBDE214DF22910FDF7F3FB022136
:104F18004DF22A10FDF7EEFBF2214DF22B10FDF7B2
:104F2800E9FB02214DF22C10FDF7E4FBFE214DF2C6
:104F38002D10FDF7DFFB03214DF22E10FDF7DAFBF4
:104F480010214DF22F10FDF7D5FB03214DF2301043
:104F5800FDF7D0FB33214DF23110FDF7CBFB0321D8
:104F68004DF23210FDF7C6FB6D214DF23310FDF7FF
:104F7800C1FB00214FF45240FDF7BCFB33214DF239
:104F88000120FDF7B7FB00214DF20220FDF7B2FB2F
:104F980034214DF20320FDF7ADFB00214DF2042032
:104FA800FDF7A8FB3A214DF20520FDF7A3FB0021F0
:104FB8004DF20620FDF79EFB4A214DF20720FDF732
:104FC80099FB00214DF20820FDF794FB5C214DF27E
:104FD8000920FDF78FFB00214DF20A20FDF78AFB1F
:104FE80081214DF20B20FDF785FB00214DF20C20AD
:104FF800FDF780FBA6214DF20D20FDF77BFB00217C
:105008004DF20E20FDF776FBE5214DF20F20FDF75E
:1050180071FB01214DF21020FDF76CFB13214DF2BD
:105028001120FDF767FB01214DF21220FDF762FB0D
:1050380054214DF21320FDF75DFB01214DF21420A0
:10504800FDF758FB82214DF21520FDF753FB012196
:105058004DF21620FDF74EFBCA214DF21720FDF741
:1050680049FB02214DF21820FDF744FB00214DF2C7
:105078001920FDF73FFB02214DF21A20FDF73AFBFC
:1050880001214DF21B20FDF735FB02214DF21C20BA
:10509800FDF730FB34214DF21D20FDF72BFB0221DB
:1050A8004DF21E20FDF726FB67214DF21F20FDF76C
:1050B80021FB02214DF22020FDF71CFB84214DF23B
:1050C8002120FDF717FB02214DF22220FDF712FBEC
:1050D800A4214DF22320FDF70DFB02214DF22420DF
:1050E800FDF708FBB7214DF22520FDF703FB022150
:1050F8004DF22620FDF7FEFACF214DF22720FDF7CD
:10510800F9FA02214DF22820FDF7F4FADE214DF2DA
:105118002920FDF7EFFA02214DF22A20FDF7EAFADD
:10512800F2214DF22B20FDF7E5FA02214DF22C2059
:10513800FDF7E0FAFE214DF22D20FDF7DBFA032101
:105148004DF22E20FDF7D6FA10214DF22F20FDF753
:10515800D1FA03214DF23020FDF7CCFA33214DF27C
:105168003120FDF7C7FA03214DF23220FDF7C2FACC
:105178006D214DF23320FDF7BDFA00214FF4534065
:10518800FDF7B8FA33214DF20130FDF7B3FA0021EB
:105198004DF20230FDF7AEFA34214DF20330FDF73F
:1051A800A9FA00214DF20430FDF7A4FA3A214DF294
:1051B8000530FDF79FFA00214DF20630FDF79AFA07
:1051C8004A214DF20730FDF795FA00214DF20830DB
:1051D800FDF790FA5C214DF20930FDF78BFA0021BA
:1051E8004DF20A30FDF786FA81214DF20B30FDF7BA
:1051F80081FA00214DF20C30FDF77CFAA6214DF220
:105208000D30FDF777FA00214DF20E30FDF772FAF6
:10521800E5214DF20F30FDF76DFA01214DF2103006
:10522800FDF768FA13214DF21130FDF763FA0121F9
:105238004DF21230FDF75EFA54214DF21330FDF7AE
:1052480059FA01214DF21430FDF754FA82214DF23A
:105258001530FDF74FFA01214DF21630FDF74AFAE5
:10526800CA214DF21730FDF745FA02214DF21830E8
:10527800FDF740FA00214DF21930FDF73BFA022103
:105288004DF21A30FDF736FA01214DF21B30FDF7C9
:1052980031FA02214DF21C30FDF72CFA34214DF27F
:1052A8001D30FDF727FA02214DF21E30FDF722FAD4
:1052B80067214DF21F30FDF71DFA02214DF2203013
:1052C800FDF718FA84214DF22130FDF713FA022177
:1052D8004DF22230FDF70EFAA4214DF22330FDF7EE
:1052E80009FA02214DF22430FDF704FAB7214DF2F4
:1052F8002530FDF7FFF902214DF22630FDF7FAF9C6
:10530800CF214DF22730FDF7F5F902214DF2283073
:10531800FDF7F0F9DE214DF22930FDF7EBF9022116
:105328004DF22A30FDF7E6F9F2214DF22B30FDF768
:10533800E1F902214DF22C30FDF7DCF9FE214DF2A6
:105348002D30FDF7D7F903214DF22E30FDF7D2F9B4
:1053580010214DF22F30FDF7CDF903214DF23030F9
:10536800FDF7C8F933214DF23130FDF7C3F90321B8
:105378004DF23230FDF7BEF96D214DF23330FDF7B5
:10538800B9F900214FF45440FDF7B4F933214DF237
:105398000140FDF7AFF900214DF20240FDF7AAF9EF
:1053A80034214DF20340FDF7A5F900214DF20440E8
:1053B800FDF7A0F93A214DF20540FDF79BF90021D0
:1053C8004DF20640FDF796F94A214DF20740FDF7E8
:1053D80091F900214DF20840FDF78CF95C214DF25E
:1053E8000940FDF787F900214DF20A40FDF782F9DF
:1053F80081214DF20B40FDF77DF900214DF20C4063
:10540800FDF778F9A6214DF20D40FDF773F900215B
:105418004DF20E40FDF76EF9E5214DF20F40FDF714
:1054280069F901214DF21040FDF764F913214DF29D
:105438001140FDF75FF901214DF21240FDF75AF9CD
:1054480054214DF21340FDF755F901214DF2144056
:10545800FDF750F982214DF21540FDF74BF9012176
:105468004DF21640FDF746F9CA214DF21740FDF7F7
:1054780041F902214DF21840FDF73CF900214DF2A7
:105488001940FDF737F902214DF21A40FDF732F9BC
:1054980001214DF21B40FDF72DF902214DF21C4070
:1054A800FDF728F934214DF21D40FDF723F90221BB
:1054B8004DF21E40FDF71EF967214DF21F40FDF722
:1054C80019F902214DF22040FDF714F984214DF21B
:1054D8002140FDF70FF902214DF22240FDF70AF9AC
:1054E800A4214DF22340FDF705F902214DF2244095
:1054F800FDF700F9B7214DF22540FDF7FBF8022131
:105508004DF22640FDF7F6F8CF214DF22740FDF782
:10551800F1F802214DF22840FDF7ECF8DE214DF2BA
:105528002940FDF7E7F802214DF22A40FDF7E2F89D
:10553800F2214DF22B40FDF7DDF802214DF22C400F
:10554800FDF7D8F8FE214DF22D40FDF7D3F80321E1
:105558004DF22E40FDF7CEF810214DF22F40FDF709
:10556800C9F803214DF23040FDF7C4F833214DF25C
:105578003140FDF7BFF803214DF23240FDF7BAF88C
:105588006D214DF23340FDF7B5F800214FF4554039
:10559800FDF7B0F833214DF20150FDF7ABF80021CB
:1055A8004DF20250FDF7A6F834214DF20350FDF7F5
:1055B800A1F800214DF20450FDF79CF83A214DF274
:1055C8000550FDF797F800214DF20650FDF792F8C7
:1055D8004A214DF20750FDF78DF800214DF2085091
:1055E800FDF788F85C214DF20950FDF783F800219A
:1055F8004DF20A50FDF77EF881214DF20B50FDF770
:1056080079F800214DF20C50FDF774F8A6214DF2FF
:105618000D50FDF76FF800214DF20E50FDF76AF8B6
:10562800E5214DF20F50FDF765F801214DF21050BC
:10563800FDF760F813214DF21150FDF75BF80121D9
:105648004DF21250FDF756F854214DF21350FDF764
:1056580051F801214DF21450FDF74CF882214DF21A
:105668001550FDF747F801214DF21650FDF742F8A5
:10567800CA214DF21750FDF73DF802214DF218509E
:10568800FDF738F800214DF21950FDF733F80221E3
:105698004DF21A50FDF72EF801214DF21B50FDF77F
:1056A80029F802214DF21C50FDF724F834214DF25F
:1056B8001D50FDF71FF802214DF21E50FDF71AF894
:1056C80067214DF21F50FDF715F802214DF22050C9
:1056D800FDF710F884214DF22150FDF70BF8022157
:1056E8004DF22250FDF706F8A4214DF22350FDF7A4
:1056F80001F802214DF22450FCF7FCFFB7214DF2CE
:105708002550FCF7F7FF02214DF22650FCF7F2FF77
:10571800CF214DF22750FCF7EDFF02214DF2285022
:10572800FCF7E8FFDE214DF22950FCF7E3FF0221E8
:105738004DF22A50FCF7DEFFF2214DF22B50FCF718
:10574800D9FF02214DF22C50FCF7D4FFFE214DF277
:105758002D50FCF7CFFF03214DF22E50FCF7CAFF66
:1057680010214DF22F50FCF7C5FF03214DF23050A8
:10577800FCF7C0FF33214DF23150FCF7BBFF03218A
:105788004DF23250FCF7B6FF6D214DF23350FCF765
:10579800B1FF00214FF45640FCF7ACFF33214DF226
:1057A8000160FCF7A7FF00214DF20260FCF7A2FFA1
:1057B80034214DF20360FCF79DFF00214DF2046097
:1057C800FCF798FF3A214DF20560FCF793FF0021A2
:1057D8004DF20660FCF78EFF4A214DF20760FCF798
:1057E80089FF00214DF20860FCF784FF5C214DF22F
:1057F8000960FCF77FFF00214DF20A60FCF77AFF91
:1058080081214DF20B60FCF775FF00214DF20C6011
:10581800FCF770FFA6214DF20D60FCF76BFF00212D
:105828004DF20E60FCF766FFE5214DF20F60FCF7C4
:1058380061FF01214DF21060FCF75CFF13214DF26E
:105848001160FCF757FF01214DF21260FCF752FF7F
:1058580054214DF21360FCF74DFF01214DF2146005
:10586800FCF748FF82214DF21560FCF743FF012148
:105878004DF21660FCF73EFFCA214DF21760FCF7A7
:1058880039FF02214DF21860FCF734FF00214DF278
:105898001960FCF72FFF02214DF21A60FCF72AFF6E
:1058A80001214DF21B60FCF725FF02214DF21C601F
:1058B800FCF720FF34214DF21D60FCF71BFF02218D
:1058C8004DF21E60FCF716FF67214DF21F60FCF7D2
:1058D80011FF02214DF22060FCF70CFF84214DF2EC
:1058E8002160FCF707FF02214DF22260FCF702FF5E
:1058F800A4214DF22360FCF7FDFE02214DF2246045
:10590800FCF7F8FEB7214DF22560FCF7F3FE022103
:105918004DF22660FCF7EEFECF214DF22760FCF732
:10592800E9FE02214DF22860FCF7E4FEDE214DF28B
:105938002960FCF7DFFE02214DF22A60FCF7DAFE4F
:10594800F2214DF22B60FCF7D5FE02214DF22C60BE
:10595800FCF7D0FEFE214DF22D60FCF7CBFE0321B3
:105968004DF22E60FCF7C6FE10214DF22F60FCF7B9
:10597800C1FE03214DF23060FCF7BCFE33214DF22D
:105988003160FCF7B7FE03214DF23260FCF7B2FE3E
:105998006D214DF23360FCF7ADFE55214FF4704098
:1059A800FCF7A8FEAA214FF20100FCF7A3FE522142
:1059B8004FF20200FCF79EFE08214FF20300FCF7AD
:1059C80099FE00214FF20400FCF794FECC214FF41D
:1059D8003140FCF78FFE00214BF20110FCF78AFEE4
:1059E80005214FF43640FCF785FE70214FF437400F
:1059F800FCF780FE70214BF20170FCF77BFE012161
:105A08004FF43840FCF776FE03214BF60100FCF713
:105A180071FE03214BF60200FCF76CFE03214BF6E6
:105A28000300FCF767FE02214FF43C40FCF762FEDE
:105A380000214BF60140FCF75DFE00214BF60240C9
:105A4800FCF758FED0214FF44940FCF753FE0221E1
:105A58004CF60110FCF74EFE50214CF60210FCF7F4
:105A680049FE50214CF60310FCF744FE50214CF639
:105A78000410FCF73FFE00214FF45450FCF73AFEA7
:105A880055214FF46850FCF735FE4FF48850FCF769
:105A9800A5FD0120FBF766FB4FF42450FCF79EFDA3
:105AA80001F018BDEC4B9B8849F22532934240F037
:105AB800D78047F6F001E520FCF71CFE4FF4807113
:105AC8000120FCF717FE4FF4E0610220FCF712FEFC
